:1000000000600020A90100003F020000AB41000099
:1000100043020000450200004702000049020000C0
:100020000000000000000000000000004B02000083
:100030004D020000000000004F02000051020000CD
:10004000ED3C0000F53C0000FD3C0000053D0000DB
:100050000D3D0000153D00001D3D0000253D000048
:100060002D3D0000353D00003D3D0000453D0000B8
:100070004D3D0000553D00005D3D0000653D000028
:100080006D3D0000753D00007D3D0000853D000098
:100090008D3D0000953D00009D3D0000A53D000008
:1000A000AD3D0000B53D0000BD3D0000C53D000078
:1000B000CD3D0000D53D0000DD3D0000111C0000DD
:1000C000E53D0000611E0000ED3D0000F53D000033
:1000D000FD3D0000053E00000D3E0000153E000005
:1000E0001D3E0000253E00002D3E0000353E000074
:1000F0003D3E0000453E00004D3E0000553E0000E4
:100100005D3E0000653E00006D3E0000753E000053
:100110007D3E0000853E00008D3E0000953E0000C3
:100120009D3E0000A53E0000AD3E0000B53E000033
:10013000BD3E0000C53E0000CD3E0000D53E0000A3
:10014000DD3E0000E53E0000ED3E0000F53E000013
:10015000FD3E0000053F00000D3F0000153F000080
:100160001D3F0000253F00002D3F0000084D00000E
:100170000000002010000000084D000000000004F6
:1001800000000000084D00000020000400000000F6
:1001900010000020780300000000000400000000B0
:1001A000002000040000000072B6134B134A1748E9
:1001B0000360196881F3088882F30A8801F08CFFD4
:1001C0000F4B07E003F10C049A685968186800F0B7
:1001D0001FF823460B4A9342F4D306E01C465968A5
:1001E00054F8080B00F022F82346074A9342F5D34F
:1001F00062B603F0FBFFFEE700000000005A00209B
:100200006C01000090010000A801000008ED00E072
:100210000023934209D210B450F8044B41F8044B28
:1002200004339342F8D310BC70477047002303E0B7
:10023000002240F8042B04338B42F9D37047FEE7C9
:10024000FEE7FEE7FEE7FEE7FEE7FEE7FEE7FEE786
:10025000FEE7FEE7FFFFFFFFB0B588B000AFC7E9DC
:100260000201C7E90023D7E90223D7E9000103F01F
:10027000A5FB02460B461046194603F0BEFFC7E930
:10028000060123A3D3E90023D7E9060103F07EFA90
:1002900002460B46104619464FF00002204B03F071
:1002A000F3FA02460B46104619461BA3D3E9002376
:1002B00003F06CFA02460B4614461D4614A3D3E91C
:1002C0000023D7E90C0103F061FA02460B46104601
:1002D00019464FF00002124B03F0D6FA02460B46C5
:1002E0001046194600F010F902460B4620462946F2
:1002F00003F04CFA02460B46C7E90423D7E904236E
:10030000104619462037BD46B0BD00BFAFF3008090
:100310007A008BFCFA21094000000000AE4D5841E4
:1003200000806640FFFFFFFF80B588B000AFC7E9DF
:100330000201C7E90023D7E90223D7E9000103F04E
:100340003DFB02460B461046194603F056FFC7E92F
:10035000060113A3D3E90023D7E9060103F016FA37
:1003600002460B46104619464FF00002104B03F0B0
:100370008BFA02460B46104619460BA3D3E900231D
:1003800003F004FA02460B46C7E90423D7E9042325
:10039000104619462037BD4680BD00BFAFF3008030
:1003A0007A008BFCFA21094000000000AE4D584154
:1003B00000806640FFFFFFFFB0B5A0B006AF4FF46E
:1003C000E13001F08BFB4FF4165001F0C3FC4249C1
:1003D0003DA3D3E90023C1E902233F4B4E221A7407
:1003E0003D493BA3D3E90023C1E900233A4B452211
:1003F0005A743A4801F06AFF5DE001F00FFD0346D0
:10040000DBB2FB70F91C3B1D0122184603F0A0FF74
:10041000FB780A2B4FD13B1D06223149184603F0C9
:10042000ABFF0346002B44D13B1D2E4A2E491846F4
:1004300001F054FD284A2C492C4803F041FE2A4B78
:10044000D3E90201284B1B7C1D46274BD3E900232F
:10045000254C647C0494CDE90223009502460B46AA
:10046000234801F033FF1F4BD3E900231D490989BD
:100470000091204801F02AFF1F4B1B6819461F48B6
:1004800001F024FF194BD3E90201184B1B7C1D46D8
:10049000164BD3E90023154C647C0494CDE9022368
:1004A000009502460B46164801F010FF00233B71F1
:1004B00001E000233B7101F0C9FC0346002B9CD1F5
:1004C000F9E700BFAFF30080A46318C110FE4940F4
:1004D000379E190E9598174028000020604A0000AA
:1004E0006C4A00005800002010000020400000204E
:1004F000744A00009C4A000000000020C84A000026
:10050000D44A0000FFFFFFFFF7B500230022044696
:100510000D4604F0B4F9A0B111A1D1E900012246C1
:100520002B4603F04BFA012306460F46CDE9003374
:10053000204632463B4605F1004101F06DF903B01B
:10054000F0BD07A3D3E900232046294603F010FBA2
:1005500001230246CDE9003320460B462946ECE74D
:10056000182D4454FB21F93F2DE9F04F9DB014465E
:100570000693D1E90023CDE90423059B8246089325
:1005800047F6F073089ADDF89C9033EA124320D1C5
:100590000023E370C2F31303049A134340F0A884CA
:1005A000089B002BC0F2AA84069B98070FD4A84A88
:1005B00013F0040FA74B18BF134669226E20662163
:1005C0002270269A6070A1700325136039E3A24B54
:1005D000F3E720F02003412B00F0F082DDE9040175
:1005E0000022002304F04BF90546002834D0DDE951
:1005F000040303F1004101230FAA079304F022F83A
:1006000040F22D15CDE910014FF47A710F9A0020B8
:100610005543A5F5AB531C3B93FBF1FB8F49ABEB6B
:10062000020202F0FFFE41F294139D42CDE91A014D
:100630001FDC81A3D3E90023CDE91623CBF100050C
:10064000E9071FD4DDE91601DDE9162303F09EF862
:100650006D10CDE91601F3E70023DDE90401002266
:1006600004F0F5F80346002840F0A282DDE9040119
:10067000C2E700227A4BCDE91623BBF1000F0BD065
:100680005D46DDE7DDE91601DDE91A2303F07EF8BA
:10069000012DCDE91A01D5D1DDE91001DDE91A23DB
:1006A00003F0F2F80026CDE912016E4FDDE91201E8
:1006B00063A3D3E9002304F0E2F8002840F093801C
:1006C0000026684FDDE912015FA3D3E9002304F09F
:1006D00056F9002840F09A80DDE9120104F06BF829
:1006E00005468BEAEB73A3EBEB7309930F9A28464D
:1006F000ABEB020604F0A3F8324602F093FE0022B0
:100700000023BBF1000FCDE91201CDE9142380F2E3
:10071000AB8049A1D1E90001CDE91601CDE918234B
:10072000DDE91667DDE916010026DDE91823CDE9CC
:100730000A2332463B4603F041F9DDE90A2303F080
:1007400017FACDE91801CDE91667DDE91601002297
:10075000434B03F01BF802460B4600203F4903F0D1
:100760002DF900223E4B03F08FF8CDE91801DDF89A
:10077000248018F0010F40F08E80DDE91623DDE9BA
:100780001801DDE91867CDE90A011046194603F0A2
:10079000EFF9DDE90A2303F0EBF932463B4602F0BC
:1007A000F5FFCDE91801DDE91601DDE9162302F0B8
:1007B000EDFFCDE91601DDE91667DDE9160100263A
:1007C000DDE91823CDE90A2332463B4603F0F6F86B
:1007D000DDE90A2303F0CCF94FEA6808CDE91801F6
:1007E000CDE91667C5E7DDE9120132463B4602F066
:1007F000CDFFCDE91201DDE91A0132463B4603F097
:1008000043F80BF1FF3BCDE91A014FE7DDE9120197
:1008100032463B4603F038F8CDE91201DDE91A0112
:1008200032463B4602F0B2FF0BF1010BCDE91A0153
:1008300048E700BFAFF300809A9999999999C93F09
:1008400000000000006AF8400000000080842E4193
:10085000024B0000864B0000004B00000000F03F00
:1008600000001440000024404FF00002B64BCDE9D8
:1008700016234FF000024FF00003CDE918237FF458
:1008800076AFDDE91201DDE9102304F04EF800280F
:1008900047D1013D2AE7DDE91223CDE90A23DDE94D
:1008A0001823DDE91601CDE90C23DDE91823DDE984
:1008B000146703F05DF932463B4602F067FFDDE95D
:1008C0000C2306460F46DDE90A0102F05FFF0246EF
:1008D0000B463046394603F04BF9CDE91401DDE90A
:1008E0001601DDE9122302F051FFCDE91201DDE925
:1008F0001267DDE912010026DDE91423CDE90A23A0
:1009000032463B4603F05AF8DDE90A2303F030F99A
:10091000B8F1010FCDE91401CDE912677FF42DAFD5
:10092000AFE7DDE91223DDE9100103F047F8CDE977
:100930001001DDE91423DDE9100103F03FF8CDE9F2
:100940001001DDE91A23DDE9100102F09DFF7CA30F
:10095000D3E90023CDE91001DDE9100102F016FF13
:10096000CDE91001DDE9100103F025FFDDE9106795
:10097000804603F064FF02460B463046394603F0DA
:100980001DF86FA3D3E9002302F000FFCDE91001A9
:10099000DDE9100103F00FFF0646002EC0F2C28011
:1009A0006A4B9E4200F3C580B8F1000FC0F2DA80B6
:1009B000664B984500F3DC80654A954200F3DE8083
:1009C000644B0A21B8FBF3F2B6FBF3F3624801FB78
:1009D000052500FB028201FB023800FB036301FBDB
:1009E00003F60BF1FF3B21463027284601F8067B32
:1009F00003F037FC404604F10C0103F032FC3046B2
:100A000004F1120103F02DFC00232375079B0BF169
:100A1000050BE77443EA8B0B002B40F0D480069B58
:100A20009A0700F1CE804D4A13F0040F4C4B18BFCB
:100A300013463BF0010B269A48BF0BF1030BBAF1AA
:100A4000670FD9F8001013604FEAAB0B0EDCBAF158
:100A5000600F00F3BA80BAF1450F00F0C881BAF117
:100A6000470F05D0BAF1410F00F0C6804FF0670A7A
:100A7000069B002943F400630693DCBF0123C9F8F9
:100A80000030D9F8001020461129A8BF11210131EA
:100A900003F0C1FBD9F8003083445B4540F3A281E9
:100AA0001BF1040FC0F29E810BF101029B1AC9F8E1
:100AB0000030069ABBF1000FD9F8003002F400664E
:100AC00080F21481CBF100075A1CBA4280F2D78021
:100AD000302323702E2302256370D9F80030299A21
:100AE0001360299B1B68002B02DD3E2363550135F3
:100AF000069B03F00803002E00F05B81002B40F002
:100B0000A080254415F8013C6A1E302B00F04F816F
:100B10003E2B00F04C812E2BA5EB040540F091807C
:100B2000013D8EE006F5742606F5107608F1FF38D3
:100B300033E7A6F57426A6F5107608F1010830E72C
:100B40000000000080842E41000014403F420F004E
:100B50009F860100A08601006079FEFF024B000025
:100B6000864B000008F5742808F51078013D1BE756
:100B7000A8F57428A8F5107801351AE79D427FF78B
:100B800032AF0A226FF0090795FBF2F107FB015320
:100B90008B480D4600FB038393FBF2F807FB0833F9
:100BA00000FB0363053393FBF2F60BF1010B1AE72D
:100BB0006FF0040B2E46A846079514E74FF0000B84
:100BC0002DE7804B35E7804B33E7AAF16103062B15
:100BD0003FF64CAF01A252F823F000BFF90B000022
:100BE0006D0A00006D0A00006D0A0000EF0D0000A4
:100BF000B30A0000710A0000089B049DC3F30A5267
:100C0000C3F313000AB3A2F2FF33069E06F00806F0
:100C10000E4320D16D486E49002A14BF3122302284
:100C2000BAF1610F18BF0146204601F0E5FA694AA2
:100C30000599654B054613EA210338BF1346269AEA
:100C4000136028461DB0BDE8F08F55EA00030CBFC5
:100C50001346614BD9E7CDE9005002935F480B463C
:100C60005F49002A14BF31223022BAF1610F18BF48
:100C70000146204601F0C0FAD9E71546EBE05B4497
:100C80009D1C122DC1BF299A113B1325136076B903
:100C90002946204603F0BFFA48B17FEA0B0705F169
:100CA000010504D1637823702E23637019E7012FA7
:100CB00004EB05030CD11A1B002A02DC302301359A
:100CC000F1E713F801299A70F5E713F80129DA70B2
:100CD0001A1B002AF9DC302323702E2363703C2377
:100CE000A370289B013F02351F60FAE60BEB030758
:100CF000BD1C122D45DD26B91321204603F08BFAC9
:100D0000E0B91323132B0CBF122213225A4519DD0D
:100D1000621E04EB0B01907802F8010F9142FAD1A8
:100D20002E224A70D9F8002029995A44113A0A60B3
:100D3000002A3AD03E225D1CE254D9E614230BF17E
:100D4000010BDFE7621CE11812F8010B914202F877
:100D5000020CF9D13C22ABEB030B01F8012C2899D2
:100D60000BF102020A602E22E254D9F800205D1C29
:100D7000002A3FF4BDAE29990A603E2262559D1CAF
:100D8000B6E63EB92946204603F045FA10B10BF10C
:100D9000010BFD1C631EA3449A7803F8012F9B45A9
:100DA000FAD12E238BF80130A2E61D46A0E61546A7
:100DB000A8E6D9F8002013437FF443AFB0E600BFA4
:100DC00040420F00004B0000044B00000E4B00009F
:100DD000064B0000864B000001FCFFFF254B000086
:100DE000164B0000013BC9F80030AAF1020AD9F8FD
:100DF0000030112B05DD299A113B13601123C9F82E
:100E00000030069BD9F8005013F4006605F1020586
:100E100004D12946204603F0FEF983446378237009
:100E2000069BD9F8002023F4FE6323F007031B057B
:100E30001B0D13431CBF2E236370299B08BF012584
:100E40001B68002BC2BF3E23635501358EB1069B44
:100E50001B070ED4254415F8013C6A1E302B3FF4C5
:100E60000CAF3E2B3FF409AF2D1B2E2B08BF05F115
:100E7000FF35BBF1000FB6BF2D222B22CBF1000BAB
:100E800060195FFA8AF6691CBBF57A7F067005F176
:100E9000020362540ADB4FF47A72BBFBF2F202F1F6
:100EA0003001E154184B03FB02BBEB1CBBF1630F99
:100EB0000ADD64229BFBF2F202F13001E1546FF093
:100EC000630101FB02BB01330A229BFBF2F2D2B2A7
:100ED00002F13001E154C2EB4211C2EB81020BF18D
:100EE000300B9D1C0BEB420B234483F801B0A8E6AA
:100EF0006E2261201146054BFFF762BB69226E200E
:100F00006621034BFFF75CBB18FCFFFF864B00001C
:100F1000044B0000FFFFFFFF00232DE9F04F0446C4
:100F20009DB0CDE9043311920E78002E50D0252EBD
:100F3000DFF8CC9201F1010A4ED009EB060292F8DB
:100F400080206368D20703F1FF3324D555461AF891
:100F5000013B4B4493F88030DF07F7D46368013BD3
:100F6000002B636013DB23685A1C2260187809EB9E
:100F7000000393F88030DE0705D4214603F026FAFB
:100F8000AA465146D0E7049B01330493E6E7204686
:100F900002F08CF9EBE7002B636009DB23685A1C35
:100FA00022601D78B54208D1049B01330493E8E721
:100FB000204602F07BF90546F4E72146284603F077
:100FC00005FA013504D1059B13B94FF0FF330593A2
:100FD00005981DB0BDE8F08F4B784FF000082A2B24
:100FE00006BF01F1020A0126002652460A20854961
:100FF0001AF8013B09EB030595F88050AD0600F1A6
:10100000038116F0080F08BF6FF000486C2B40F00A
:1010100008819AF8003046F0020602F1020A782BA5
:10102000D6DC572B00F30C81252B00F05381242BA9
:10103000CEDD23F00203452BCAD14FF0FF356368A4
:10104000AB46013B002B05F101056360C0F29081C6
:1010500023685A1C2260187809EB000393F880304B
:10106000DB07ECD4471CAED0B8F1000F00F08A814A
:101070002B2800F081812D2840F0848146F40077F0
:1010800063680BF10205013B002B6360C0F27681BF
:1010900023685A1C2260187808F1FF3852A3D3E95C
:1010A0000023CDE9082300230022CDE90A230023F1
:1010B0009B4608F1FF390693B9F1FF3F40F0648188
:1010C000214603F083F9DDE90A010A23032203FB29
:1010D0000BF393FBF2F3ABEB03084246109302F0E1
:1010E000A1F9CDE90C01069803F0A9FB424602F0F4
:1010F00099F9BBF1000FCDE90A0180F2EC813CA324
:10110000D3E90023CBF1000BCDE908233AA3D3E9BF
:1011100000234FF000084FF00009CDE906231BF033
:10112000010F39D0DDE90823DDE9060102F020FDD9
:1011300002460B46CDE90E01DDE90C0102F026FB6B
:1011400042464B46CDE90C01DDE90E0102F01EFBE3
:10115000DDE90A2380468946DDE9080102F016FB35
:1011600042464B4602F004FDDDE90A2380468946EB
:10117000DDE9060102F00AFB00220B46CDE90A2355
:1011800002F01CFC42464B4602F0F2FCBBF1010FA0
:101190008046894600F0AB81DDE9062310461946FA
:1011A00002F0E6FCDDE9082302F0E2FC02460B4611
:1011B000DDE9080102F0EAFADDE90623CDE90801DC
:1011C0001046194602F0E2FA00220B46CDE906234A
:1011D00002F0F4FBDDE9082302F0CAFC4FEA6B0BD6
:1011E000CDE908019BE700BF9A9999999999B93F70
:1011F000333333333333733E000000009999C93FD2
:10120000874B0000CCCCCC0C88453FF7E1AE00FB0F
:101210000833B3F130083FF5DBAE524646F008061E
:10122000E6E64C2B04D19AF8003046F01206F4E6BC
:10123000682B7FF4F4AE9AF8003046F00406ECE632
:10124000583B202B3FF6C4AE01A252F823F000BF5A
:101250000D170000D10F0000D10F0000151700007E
:10126000D10F0000D10F0000D10F0000D10F0000FE
:10127000D10F0000D10F0000D10F0000F5120000C7
:101280005B1300003B1000003B1000003B1000000F
:10129000D10F000017160000D10F0000D10F000081
:1012A000D10F0000D10F00001F1600003316000000
:1012B00061160000D10F0000D10F00006D16000074
:1012C000D10F000003170000D10F0000D10F000064
:1012D0000D1700006368013B002B636005DB23688A
:1012E0005A1C22601D78252D5DE6204601F0DEFFA8
:1012F0000546F8E716F0080F08BF4FF0010816F092
:10130000010609BF119B00251A1D1D6808BF119217
:10131000B8F1000F3FF45CAE049B9844049B01338A
:1013200004936368013B002B636010DB23685A1C45
:10133000226018780EB905F8010B049B4345EDD1E6
:10134000002E7FF41EAE059B0133059319E620465F
:1013500001F0ACFF421CEDD135E60A23CDF8008048
:1013600046F02002204611A901F040FE0546F2E0B9
:10137000204601F09BFF6FE6374681E6204601F0EC
:1013800095FF89E6374689E62E2811D179060FD4D4
:1013900047F0400863680135013B002B63603CDB8C
:1013A00023685A1C22601878474609F1FF3983E602
:1013B000A24B034493F880309A0632D5069BA04A8C
:1013C00047F48078934207F04007A0F1300009DC31
:1013D0000A23069A03FB02030693002FDAD00BF1CF
:1013E000FF3BD7E703F02BFADDE9082302F0CEF943
:1013F00002460B46DDE90A0102F0BAFB0022CDE904
:101400000A01DDE908018F4B02F03EFACDE908013F
:10141000002FBFD10BF1010BBCE7204601F046FFC6
:10142000C2E720F02003452B7FF44AAEFB057FF591
:1014300047AE636827F4C077013B002B63601CDB79
:1014400023685A1C226018782B281CD02D2818D00D
:1014500001354FF000080A22784BA944A9EB050199
:10146000002904DD191891F8801089061CD43B0668
:101470004CBFABEB080BC34422E6204601F016FF3D
:10148000E2E747F0800763680235013B002B6360A9
:1014900006DB23685A1C2260187809F1FF39D8E767
:1014A000204601F003FFF8E7616830380139002970
:1014B00002FB080847F4807705F10105616004DB51
:1014C0002168481C20600878C8E7204601F0EEFE3D
:1014D0000A225A4BC2E706D000220023CDE9082396
:1014E0000022594B15E64FF000084FF00009DDE9E6
:1014F0000C0142464B4602F03BFBDDE90A2302F0B9
:1015000037FB13AA03F09EF8139BDDF840B080462A
:101510009B44BBF5806F8946CDF84CB024DD00229A
:10152000B9054CBF494B4A4BCDE902232222494B16
:101530001A60FB057FF54CAD07F00108BF0735D5F4
:10154000B8F1000F07D1119B1A1D1B681192DDE93C
:101550000212C3E90012002DFFF633ADF30740F18C
:101560002E81049B2B4421E56FF47F739B450CDA9D
:101570000022002303F06BF938B92222354B1A60A0
:1015800000220023CDE90223D3E7BB055A4640469B
:10159000494606D501F046FF01F10043029003934E
:1015A000C7E701F03FFFCDE90201C2E714AADDE978
:1015B000020103F047F8149B7E33002B149313DCD5
:1015C000DDE902010022002303F041F9F0B92222F3
:1015D0000020204B1A60B8F1000FBCD1119B1A1DDE
:1015E0001B6811921860B6E7FE2B0FDDDDE90201E2
:1015F0000022002303F0C3F9174A184B22210028C8
:1016000008BF1346134A18681160E4E7DDE90201D8
:1016100002F03AFBDFE70023CDF80080A0E6119B43
:10162000700753F8042B1193049B4CBF1380136075
:10163000A7E40823CDF8008092E600BF874B0000A6
:101640009F86010000002440000014400000F0FFCD
:101650000000F07FC80200200400002008000020E5
:101660001023CDF8008026F006027BE64FF0FF3510
:1016700063680135013B002B63602ADB23685A1C39
:101680002260187809EB000393F8807017F00107C7
:10169000EED1411C3FF497AC16F0010B08BF119B33
:1016A000A84402BF1A1D1F681192454507D0421C6D
:1016B00005D009EB000393F88030DB070DD52146F8
:1016C00002F084FEBBF1000F7FF445AF87F800B055
:1016D00041E7204601F0EAFDD4E7BBF1000F01D15C
:1016E00007F8010B63680135013B002B636004DBE5
:1016F00023685A1C22601878D7E7204601F0D6FDEF
:10170000D3E70A233246CDF800802BE61023CDF82C
:10171000008025E600229AF8003001255E2B14BFD8
:1017200000210121CDE91422CDE91622CDE91822AC
:10173000CDE91A220ABF9AF801300AF1010A0AF12A
:10174000020A002B3FF444AC5A111CA800EB8202A1
:1017500052F8200C03F01F0305FA03F3034342F889
:10176000203C1AF8013B5D2BEBD161BB16F0010662
:1017700033D000276368013B002B636032DB2368B2
:101780005A1C226018780025A84511D0411C0FD0A2
:1017900003460028B8BF00F11F031CAA5B1102EB2F
:1017A000830353F8203C00F01F021341DA0720D4D2
:1017B000214602F00BFE002E7FF4D3AE3E70059B57
:1017C00001330593CDE6002314AA11680133C94300
:1017D000082B42F8041BF8D1C8E7119B1A1D1F689B
:1017E0001192C7E7204601F061FD451CCBD1FFF700
:1017F000EABB0EB907F8010B63680135013B002B0A
:10180000636004DB23685A1C22601878BCE720461A
:1018100001F04CFDB8E700BF2DE9F0471446DDE9C3
:1018200008761D465CA3D3E90023804689462046FE
:10183000294603F0A4F840B121220024724B734DD5
:101840001A6020462946BDE8F087204654A3D3E914
:101850000023294602F08CF953A3D3E9002302F0B8
:1018600013F802F0A8FF824602F0E9FF1AF0010F18
:1018700004460D4618BF7F422EB10022644B02F091
:101880009DF804460D464AA3D3E900232046294685
:1018900001F07CFF02460B464046494602F08EF8B6
:1018A00045A3D3E90023804689462046294601F016
:1018B0006DFF02460B464046494602F059F9044680
:1018C0000D4602F09AFC3EA3D3E9002303F057F83B
:1018D000002857D022462B462046294601F056FFC5
:1018E00039A3D3E900238046894601F04FFF38A38E
:1018F000D3E9002302F062F842464B4601F046FF6E
:1019000035A3D3E9002302F033F942464B4601F0F8
:101910003DFF33A3D3E9002302F050F842464B4683
:1019200001F034FF30A3D3E9002302F021F942464D
:101930004B4601F02BFF2EA3D3E9002302F03EF823
:1019400042464B4601F022FF2BA3D3E9002302F0CD
:101950000FF942464B4601F019FF29A3D3E90023B2
:1019600002F02CF842464B4601F010FF22462B466F
:1019700001F00CFF02460B462046294602F0F8F81B
:1019800004460D46002FBFBF224605F10043144612
:101990001D4656E7AFF300800000000065CDCD4145
:1019A000182D4454FB21F93F182D4454FB210940C4
:1019B00000000000002209409EE59E4BEFAEE23E93
:1019C000BBBDD7D9DF7CDB3D95DF9369FF80E83C69
:1019D0009C4908DC20E46A3D30D46A683C12E63D4C
:1019E000ABC05D4B45E65A3E63F024A5E31DC73E00
:1019F0001A3E011AA0012A3FB01011111111813FA6
:101A0000555555555555C53FC80200200000F0FFFB
:101A10000000E03F80B483B000AF0346FB7197F94C
:101A20000730002B0BDBFB7903F01F02064997F907
:101A300007305B09012000FA02F241F8232000BFC1
:101A40000C37BD4680BC704700E100E080B483B035
:101A500000AF0346FB7197F90730002B0CDBFB79D5
:101A600003F01F02074997F907305B09012000FACC
:101A700002F2603341F8232000BF0C37BD4680BC22
:101A8000704700BF00E100E080B483B000AF0346C0
:101A90003960FB7197F90730002B0ADB3B68DAB23B
:101AA0000C4997F907305201D2B20B4483F8002356
:101AB0000AE03B68DAB20849FB7903F00F03043B04
:101AC0005201D2B20B441A7600BF0C37BD4680BC1F
:101AD000704700BF00E100E000ED00E080B582B09B
:101AE00000AF786080222649264802F051FA802211
:101AF0002549264802F04CFA254B0222C3F8E02083
:101B0000234B0022C3F8E420214B4FF400225A64F7
:101B10001F4B4FF000525A641D4B4FF400225A6085
:101B20001B4B4FF000525A601A4B4FF41242C3F84D
:101B30008820184B4FF40242C3F88C207B681B01AD
:101B4000154AB2FBF3F3C3F30C03144A43F070637A
:101B50001361124B9B69114A43F4301393610321C3
:101B60001F20FFF791FF1F20FFF770FF1F20FFF7D7
:101B700051FF62B600BF00BF0837BD4680BD00BF41
:101B8000980000206800002018010020800000203C
:101B90000010094000C00B40006CDC0200F009405E
:101BA00080B582B000AF786000BF7B68DBB21946B9
:101BB000094802F012FA034683F00103DBB2002B5E
:101BC000F3D1064B9B69054A43F40003936100BFC0
:101BD0000837BD4680BD00BF6800002000F0094006
:101BE00080B582B000AF0023FB7100BFFB1D19461A
:101BF000064802F027FA034683F00103DBB2002B0C
:101C0000F4D1FB7918460837BD4680BD800000201E
:101C100080B582B000AF1F20FFF718FF184B5B693B
:101C200003F40003002B11D0FB1D1946154802F0E8
:101C300009FA0346002B03D0FA79114BDA6105E06B
:101C40000F4B9B690E4A23F4000393610C4B5B69B5
:101C500003F40013002B0FD0094BDB69DBB2FB71DF
:101C6000FB791946084802F0B8F9034683F00103EE
:101C7000DBB2002B00D0FEE700BF0837BD4680BDB9
:101C800000F00940680000208000002080B483B08C
:101C900000AF0346FB7197F90730002B0BDBFB7994
:101CA00003F01F02064997F907305B09012000FA8B
:101CB00002F241F8232000BF0C37BD4680BC7047BC
:101CC00000E100E080B483B000AF0346FB7197F9F8
:101CD0000730002B0CDBFB7903F01F02074997F953
:101CE00007305B09012000FA02F2603341F823203B
:101CF00000BF0C37BD4680BC704700BF00E100E06C
:101D000080B483B000AF03463960FB7197F90730A8
:101D1000002B0ADB3B68DAB20C4997F90730520115
:101D2000D2B20B4483F800230AE03B68DAB20849D8
:101D3000FB7903F00F03043B5201D2B20B441A7635
:101D400000BF0C37BD4680BC704700BF00E100E01B
:101D500000ED00E080B582B000AF786080222649B7
:101D6000264802F015F980222549264802F010F98C
:101D7000254B0222C3F8F020234B0022C3F8F420A5
:101D8000214B4FF400125A641F4B4FF080425A64AB
:101D90001D4B4FF400125A601B4B4FF080425A60AB
:101DA0001A4B4FF41342C3F8B020194B4FF40342BF
:101DB000C3F8B4207B681B01164AB2FBF3F3C3F3EC
:101DC0000C03154A43F070631361134B9B69124A6D
:101DD00043F43013936103212120FFF791FF212069
:101DE000FFF770FF2120FFF751FF62B600BF00BF71
:101DF0000837BD4680BD00BFC80100209801002003
:101E000048020020B00100200010094000D00B4023
:101E100000C00B40006CDC0200100A4080B582B0AC
:101E200000AF0023FB7100BFFB1D1946064802F0FE
:101E300009F9034683F00103DBB2002BF4D1FB79EF
:101E400018460837BD4680BDB001002080B500AF00
:101E5000024802F02AF90346184680BDB00100206E
:101E600080B582B000AF2120FFF72CFF184B5B69D3
:101E700003F40003002B11D0FB1D1946154802F096
:101E8000E1F80346002B03D0FA79114BDA6105E043
:101E90000F4B9B690E4A23F4000393610C4B5B6963
:101EA00003F40013002B0FD0094BDB69DBB2FB718D
:101EB000FB791946084802F090F8034683F00103C5
:101EC000DBB2002B00D0FEE700BF0837BD4680BD67
:101ED00000100A4098010020B00100202DE9B04F09
:101EE0008CB000AFF860B9607A607749F86801F0AB
:101EF000BDF9F8620023BB62DBE0BB6A0133BB6261
:101F0000BB6A033B062B00F2B58001A252F823F016
:101F10002D1F0000A71F0000B11F00002B20000094
:101F2000352000005320000063200000F86A01F013
:101F300087F9C7E908014FF00002644BD7E90801AF
:101F400001F0A2FC02460B461046194602F033FC93
:101F50000346FB61FB69642202FB03F3184602F0AF
:101F60006EFC02460B46D7E9080101F027FD024648
:101F70000B46C7E90423F86902F061FC82468B46F0
:101F80004FF00002524BD7E9040101F07DFC0246FC
:101F90000B465046594601F0EBFD02460B46B96828
:101FA000C1E9022366E0FB6A1A78BB681A7461E033
:101FB000F86A01F045F9C7E908014FF00002434B08
:101FC000D7E9080101F060FC02460B4610461946AD
:101FD00002F0F1FB0346FB61FB69642202FB03F3A1
:101FE000184602F02CFC02460B46D7E9080101F026
:101FF000E5FC02460B46C7E90423F86902F01FFC22
:1020000082468B464FF00002314BD7E9040101F0C4
:102010003BFC02460B465046594601F0A9FD0246DC
:102020000B46B968C1E9002324E0FB6A1A78BB6853
:102030005A741FE0F86A01F00DF90346002B05D130
:10204000244B1B680133234A136002E0214B00221A
:102050001A60F86A01F0FEF803469AB27B681A81AA
:1020600008E0F86A01F0ECF802460B467968C1E92D
:10207000002300BFBB681B7C532B08D1BB68D3E98E
:102080000223144683F00045BB68C3E90245BB68E0
:102090005B7C572B08D1BB68D3E90023904683F0C3
:1020A0000049BB68C3E900890749002001F0DEF858
:1020B000F862FB6A002B7FF420AF00BF00BF30370F
:1020C000BD46BDE8B08F00BFF84A0000000059408F
:1020D00000004E400000002080B582B000AF3B4BB6
:1020E000D3F88830394A43F00F03C2F88830374BB1
:1020F000D3F88C30354A43F4406343F00303C2F80D
:102100008C30324B324A9A60324BD3F82438314A01
:1021100043F48073C2F824382E4BD3F824382D4A68
:1021200023F00103C2F824384FF080731B68B3F129
:10213000FF3F0FD04FF080731B68274A934237D17F
:10214000264B1B68B3F1FF3F32D1254B1B68B3F11F
:10215000FF3F2DD1234B4FF4C0221A60214B224A5E
:102160001A60204B214A1A601E4B4FF424125A6009
:102170001C4B1D4A1A601B4B4FF420125A60194B1E
:102180000F221A601A4B4FF4EE421A620023FB71C1
:1021900008E0174AFB791033002142F82310FB793D
:1021A0000133FB71FB79012BF3D90E4B0E4A1A60F8
:1021B000104BD3F800330F4A43F08073C2F800335A
:1021C00002F00EF800BF0837BD4680BD00ED00E00C
:1021D00000000000001009400000635940000001A9
:1021E00044000001001D09400F0002000F00010023
:1021F00000E00840000009400EB430B594B017ABC1
:1022000053F8045B04463C22002105A8049302F025
:10221000F6F80A2308936FF000430793104B4FF032
:10222000FF320293049B05A8CDE900536FF00043F1
:10223000059400F0B1F8079B0446013B002B07937F
:1022400008DB0022059B1A70204614B0BDE8304020
:1022500003B0704705A9002002F004F9F4E700BFBD
:1022600069050000F0B50C4616461F46054695B0B8
:1022700010B931BB012404AD3C22002105A802F0B5
:10228000BEF80A2308936FF00043059500250793D5
:102290000D4B621ECDE9017300962B4605A800F098
:1022A0007BF8079A0446013AAA42079204DB059B91
:1022B0001D70204615B0F0BD284605A902F0D2F8E1
:1022C000F7E74FF0FF34F4E7690500000FB473B58A
:1022D00006AB53F8046B0121324668460193FFF7C1
:1022E000C1FF041E13DD651C284601F0F5F80090BF
:1022F00068B132462946019BFFF7B4FF074B2246DF
:102300000099186D01F01FFF009802F0C8F92046EF
:1023100002B0BDE8704004B0704700BFD402002096
:1023200010B5174A1749002002F02FF94FF48073B7
:102330004FF480620021124801F0C4FF124A134991
:10234000012002F022F94FF480734FF480620021E3
:102350000D4801F0B7FF0E4B1B68022B0EDD0D4A36
:102360000A49022002F011F9BDE810404FF48073D1
:102370004FF480620021074801F0A4BF10BD00BFE8
:10238000D4020020344B000010030020364B000024
:10239000FC4A00004C0300202DE9F04F06464FF0A8
:1023A00000089DB0CDE90823279DDDF8989019F825
:1023B000010B18B940461DB0BDE8F08F252819D093
:1023C000089A4FEAE8739045099A934104DB08F1B3
:1023D0000108CDF89890E8E7B368013B002BB360A3
:1023E00004DB33685A1C32601870F0E7314602F0A3
:1023F00039F8ECE7002416E02D2F10D0302F50D004
:102400004FF0000A0A22A7F13003D9B2092925D8D2
:1024100002FB0A3A049B13F8017B0493F3E744F0B0
:102420000104DDF810904B4613F8017B2B2F049329
:102430002ED0E1D8202F2ED0232F2FD02A2FDFD13E
:10244000049B55F804AB1F78BAF1000F09F10203A1
:10245000BCBFCAF1000A84F0010404932AEAEA73BB
:102460002E2F059353D1049B1F782A2F1CD04FF099
:10247000000B0A2201330493A7F13003D9B20929D2
:1024800018D802FB0B3B049B13F8017B0493F3E782
:1024900044F00204C5E744F00404C2E744F0080431
:1024A000BFE744F40074BCE7049B55F804BB5F78B5
:1024B00002330493BBF1000F29DB44F010046C2FAE
:1024C0000ED1049B1F786C2F15BF049B5F780133DE
:1024D000023307BF44F060040493049344F02004E3
:1024E000712F46D016DC682F4AD06A2F00F0A580E5
:1024F0004C2F3ED0572F15DC412F00F0A68200F361
:10250000A280002F4CD1049B013B049392E04FF03A
:10251000000BD4E7742F00F092807A2F00F08F80A8
:10252000782F3DDCA7F15803202B39D8DFE813F0D2
:102530009001380038003800380038003800380082
:1025400038008D023800A2005E028F008F008F00DD
:1025500038005E023800380038003800DE00110212
:10256000D80138003800F800380030023800380050
:10257000B401049B44F0600413F8017B04930DE064
:10258000049B1F78682F04D15F7844F48074023371
:10259000F4E7049B44F0800401330493782FA9DD11
:1025A000059B03F1FF3914F0010306931DD114F4C8
:1025B000007F0CBF4FF0200B4FF0300B44464FEA2A
:1025C000E873B9F1010958D5059B059A012BB8BFED
:1025D0000123BAF1000FC2F10109D8BF4FF0000981
:1025E000013B9844059B023B9944089A4FEAE873E3
:1025F0009045099A08F1010A934108DAB368013B52
:10260000002BB36054DB33685A1C32601F70069B8A
:10261000002B00F0758454464F464FF0200B4FEAD4
:10262000EA78013F49D5B9F1000FACBF0AEB0908C0
:102630000AF10008DDF81090CBE644F04004049B5A
:1026400013F8017B9AE727F00203452BA8D1073541
:1026500025F00705F5E80223CDE91223002314F045
:10266000100F08BF4FF0060B1A461946184644F4DF
:1026700080643AE155F8047B92E7089A9442099AFB
:1026800073EB020109DAB16801390029B16008DB96
:102690003168481C306081F800B0013443F1000318
:1026A0008FE731465846079301F0DCFE079BF4E7BD
:1026B0003146384601F0D6FEA9E7089B9C42099BAB
:1026C00078EB030309DAB368013B002BB36008DB46
:1026D00033685A1C326083F800B0013448F10008B6
:1026E0009FE73146202001F0BDFEF6E767062A6825
:1026F00005F1040305D54FEAE871C2E900811D46E2
:1027000098E7A50602D5C2F80080F8E7E00502D5F3
:1027100082F80080F3E72106F5D5A2F80080EEE705
:1027200055F804ABAA4BBAF1000F08BF9A465046C1
:1027300001F0E7FDE706814602D55845A8BFD94616
:10274000059BA3EB090714F00103059310D114F4C2
:10275000007F0CBF202230224446BB464FEAE8737C
:10276000BBF1010B20D527EAE773013F9844FF1A1C
:1027700044464FF0000B4FEAE873CB4530DB059B36
:10278000B9F1000FA8BFC844002B3FF453AF444633
:10279000B9464FF0200B4FEAE87AB9F101093ED56E
:1027A000002FA8BFB84445E708998C42099973EBFC
:1027B000010108DAB16801390029B16007DB31682D
:1027C000481C30600A70013443F10003C8E710462A
:1027D00031460793069201F045FEDDE90623F2E754
:1027E000089A9442099A73EB02020ADAB268013A33
:1027F000002AB2600BDB3268511C31601AF80B10F2
:10280000117001340BF1010B43F10003B5E73146C0
:102810001AF80B00069301F025FE069BF1E7089BD2
:102820009C42099B7AEB030309DAB368013B002B56
:10283000B36008DB33685A1C326083F800B001349F
:102840004AF1000AA9E73146202001F00BFEF6E725
:1028500014F040021DBFEA1D22F00702154655F88C
:10286000043B1CBF55F8083B526814F080010DD0A2
:1028700000229BB2574914F0080F574818BF08466A
:10288000E10601D524F4007454492EE0E00544BF6C
:102890000A4603F0FF03EDE714F040021DBFEA1DF6
:1028A00022F00702154655F8043B1CBF55F8083BBB
:1028B000526814F080010DD000229BB2484914F0F8
:1028C000080F454818BF0846E10601D524F40074F6
:1028D00044490AE0E00544BF0A4603F0FF03EDE780
:1028E000002255F8043B3F493D48CDE90EB04FF07A
:1028F000FF30DDF820C0CDE91000BCEB080CCDF8AE
:1029000018C0DDF824C04FF000006CEBE87CCDF877
:102910001CC00DF1500CE6464FF05509013020283F
:102920000EF8019BFAD114F4826F04BF01200E90BF
:102930006E2F00F39180472F00F39F805123A7F162
:102940004102D34013F0010340F093814FF0000B9C
:10295000CEE014F040021DBFEA1D22F0070215462A
:1029600055F8043B1CBF55F8083B526814F0800131
:1029700008D000229BB218481B4914F0080F18BF5A
:1029800008464BE0E00544BF0A4603F0FF03F2E7C8
:1029900014F040021DBFEA1D22F00702154655F84B
:1029A000043B1CBF55F8083B526814F0800109D065
:1029B00000229BB214F0100102D0002124F4007414
:1029C000054892E7E00544BF0A4603F0FF03F1E73C
:1029D000384B00003F4B0000864B0000474B000087
:1029E000424B0000584B0000454B0000600643BFBF
:1029F000EA1D22F00702154655F8043B46BF55F87C
:102A0000083B5268DA17210610D543F3C0321BB2D7
:102A1000002A11DA5B42B74862EB420214F010015F
:102A20003FF463AF002124F400745EE7E00544BF87
:102A300043F3C0125BB2EBE7A10704D4AE48AF4941
:102A400014F0040F9BE7AE48E8E7E3065CBF4FF0E5
:102A50000D0B44F01004FAE56F3F4FF0000B092F07
:102A600046D8DFE817F0B9004200450045004500B0
:102A700045000301450045004200A7F15800112818
:102A80003FF664AF0FF2040E5EF820F0BD2B00009D
:102A90004D2900004D2900004D2900004D2900005E
:102AA0004D2900004D2900004D2900004D2900004E
:102AB000732C00004D2900004D290000692C0000F6
:102AC000732C0000732C0000732C00004D290000B3
:102AD000692C000003F00F00085C1B0943EA027335
:102AE0000BF1010B0CF8010B120953EA0200F1D1B2
:102AF00014F480630B9300F0CC8000230E93109BA2
:102B0000002BC4BF03F1FF330E93119B0E9A002BD1
:102B100002DD013B13440E930F980E9F01F0F1FB71
:102B2000059B5F44DF1B3B1A40F2012705932740BA
:102B300004F001030C9300F0D6800027B9464FEA59
:102B4000E77A0F9B5A1C0F921B780A93002B40F0D8
:102B5000D9800C9BABB914F4007F0CBF2023302329
:102B60003C46DDF814904FEAE77AB9F1010940F1EB
:102B7000E480059B059A23EAE373013A1F44D31AC4
:102B800005930B9B002B00F0F2804FF0300A0A9B5C
:102B90009B4500F305810C9B73B13C464FF0200B25
:102BA000DDF814904FEAE77AB9F1010940F18F811D
:102BB000059B002BA8BFFF18B8443BE54FF0000B66
:102BC00093E703F007013031DB0843EA42730BF16E
:102BD000010B0CF8011BD20853EA0201F1D187E77F
:102BE00058089F0840EAC27047EA8277C7194FEA3F
:102BF000920141EB5201380940EA01703F1841EB64
:102C00001111380A40EA01603F1841EB1121380CDC
:102C100040EA0140381841EB1141401841F10001F0
:102C2000C00840EA41709F1D42F1000AA0FB0E92CD
:102C3000C9080EFB0122B7EB09076AEB02023F0944
:102C400047EA02773F1803F1300307EB8700A3EB55
:102C500040030CF8013B3B460BF1010B41EB121218
:102C600053EA0201BCD143E74FF0000B4FF00A0ECC
:102C7000F6E711AB039310AB02930EAB01930FABCE
:102C800038460093289F234614AA12A9B8478346C2
:102C90002EE70E9B0B9AB3EB0B0348BF13463AE7A4
:102CA000069A9742079A79EB020208DAB268013A6B
:102CB000002AB26011DB3268511C31601370013799
:102CC00049F10009AAEB0702002AE9DA059B23EA89
:102CD000E377AAEB0703059330E73146202001F0A4
:102CE000C1FB2023EBE7059BB94603F1FF3A202304
:102CF000E8E700BF044B0000864B0000024B0000D9
:102D0000004B0000069B01379945079B7AEB0303B4
:102D100009DAB368013B002BB36009DB33685A1C46
:102D200032600A9A1A7019F101094AF1000A08E79B
:102D300031460A9801F096FBF5E7069A9442079A05
:102D40007AEB020208DAB268013A002AB26007DBC5
:102D50003268511C3160137001344AF1000A04E7F3
:102D6000184631460D9301F07DFB0D9BF4E73C4680
:102D70004FF0300A4FEAE7790E9B013B002B0E9390
:102D800070DA3C465A464FEAE77914AB002A02F162
:102D9000FF3A00F38180BBF1000FA8BF5F44FAE661
:102DA0000A9B14AAD05CFC173C281DD03E2845D1B4
:102DB000B946119B013B002B11931BDB069B01378E
:102DC0009945079B74EB030309DAB368013B002BB9
:102DD000B3602EDB33685A1C326083F800A019F10F
:102DE000010944F10004E4E7B946109B013B002BC4
:102DF000109303DA0A9B01330A93C8E6069B013756
:102E00009945079B74EB030309DAB368013B002B78
:102E1000B36009DB33685A1C326083F800A019F1F3
:102E2000010944F10004E0E73146302001F01AFBCB
:102E3000F5E73146302001F015FBD0E7069B9F42B5
:102E4000079B9C4108DAB368013B002BB36005DBAC
:102E500033685A1C326018700137CBE7314601F0F5
:102E600001FBF9E7069B01379C42079B79EB0303C3
:102E700009DAB368013B002BB36008DB33685A1CE6
:102E8000326083F800A0013449F1000974E731464B
:102E9000302001F0E7FAF6E7069A9442079A79EBB8
:102EA00002020ADAB2681AF80300013A002AB26094
:102EB00008DB3268511C316010700134524649F110
:102EC000000963E7314601F0CDFA14ABF5E7069B44
:102ED0009C42079B7AEB030309DAB368013B002BA2
:102EE000B36008DB33685A1C326083F800B00134E9
:102EF0004AF1000A58E63146202001F0B3FAF6E71D
:102F0000D046FFF797BB00BF0A4B034493F88030CD
:102F10009A0605D530388842A8BF4FF0FF30704779
:102F20001A0701D55738F6E7DB0654BF4FF0FF30DC
:102F30003738F0E7874B00002DE9F0470746894610
:102F400005461446274A294615F8010BD8B113182F
:102F500093F88030DB07F6D4302814D128788A1C07
:102F600000F0DF03582B09D134F0100337D11024BF
:102F70006878CA1C214615461C4607E00123002C30
:102F8000F8D10824F6E7B4B1214600240026B04663
:102F9000B246FFF7B9FF00280FDA04B16F1EC9F877
:102FA0000070BAF1000F17D022224FF0FF300E4B05
:102FB0001A60BDE8F0870A21E8E706FB01031A0C56
:102FC00008FB0128B8F5803F28BF4FF0010A012413
:102FD00015F8010B9EB2DCE746EA0840E9E7012359
:102FE000C8E700BF874B0000C80200202DE9F74F5B
:102FF00005468A461F464FF0FF381646DDF83090EA
:10300000614A6B68C346013B002B08F101086B6005
:1030100055DB2B68591C29601C78131993F88030F4
:10302000D807EED4611C00F0A080B9F1000F61D088
:10303000B20613D52B2C03D02D2C0FD146F40076DD
:103040006B680BF10208013B002B6B603DDB2B68CA
:103050005A1C2A601C78B9F101094BD0302C49D197
:1030600008F1010300936B6846F48071013B002B6B
:1030700009F1FF3B6B602DDB2B68581C28601C7826
:10308000BBF1000F32D024F02003582B2ED137F0A3
:1030900010030FD108F1020300936B68A9F1020B32
:1030A000013B002B6B601CDB2B68591C29601C78D2
:1030B00031461027D9460E46DDF800801DE028462F
:1030C00000F0F4F8304A0446A7E7284600F0EEF88E
:1030D0000446C0E72846019100F0E8F8019904464B
:1030E000CEE7284600F0E2F80446E1E7002F08BFEB
:1030F0000827DFE7002F08BF0A27A346C14444463C
:103100004FF000080FE06B6808FB0708013B002B3D
:1031100046F4807604F101046B602ADB2B685A1CAC
:103120002A6093F800B04C4505D039465846FFF761
:10313000EBFE0028E7DA2946584601F047F9F30587
:103140001FD5F70711D4DAF80030B50606F00402EF
:1031500003F1040103D5B00548BFC8F10008CAF85F
:1031600000101B6852B1A3F80080204603B0BDE8F0
:10317000F08F284600F09AF88346D4E7C3F8008021
:10318000F3E76FF00104F0E7874B000030B585B03E
:103190000C4601AB094902AA054601F074F8002863
:1031A00005DC04B125600020002105B030BD14B15C
:1031B000019B1D442560DDE90201F6E7694B000033
:1031C000F7B5034607460E46DFF86CC01D4613F8F8
:1031D000011B21B30CEB010090F8804014F00104B6
:1031E000F4D12B291DD02D290ABF1D4600244FF4F0
:1031F0000074284601A9FFF79FFE26B1019BAB4250
:1032000008BF3B46336074B10028BDBF22224FF097
:1032100000400A4B4042B8BF1A6003B0F0BD0C46F4
:10322000E7E71D46E5E70028BFBF2222034B6FF00A
:1032300000401A60F1E700BF874B0000C802002081
:1032400038B5034C00212568FFF7A0FF256038BD85
:10325000C802002038B5044C0A2225680021FFF777
:10326000AFFF256038BD00BFC8020020F8B50E468C
:1032700005460D4F00B93D683146284601F06CFA0D
:103280002A5C2C1862B13146204601F056FA225CC5
:10329000231812B100220133225420463B60F8BDAE
:1032A00023461446F9E700BF0C000020F8B5C368B8
:1032B00004461A0309D5426B23F400234260826B53
:1032C000C360826090F82500F8BD9F0601D501F02B
:1032D000A9F846F2C902E3681A40012A0FD0002279
:1032E000626044F24002134276D023F4A04323F0FC
:1032F000400343F04003E3604FF0FF30E4E7474A08
:1033000013420CD14FF4807000F04AF94FF48073EF
:10331000E361E368206143F400632060E360626876
:10332000E368561C0DDA43F48053C2F1FF22E360D8
:1033300002F57F022368FE3262605A1C2260187810
:10334000C2E7DD06676904D5D8033ED5204601F003
:1033500050F9E268E66942F48053D103E3602569DD
:1033600023684CD5E16A8B422CBFC5EB0305C5EB46
:103370000105761B33D1204601F03BF9E669E3698C
:1033800025699B1B1D44E368324623F01003E3606C
:103390002946384601F035F80028BEBFE36820F022
:1033A000004043F48043A6EB0006B8BFE360AB19CE
:1033B000E362E3692363E36836BB23F4805343F09D
:1033C0004003C4E90056E36096E73846A16901F07E
:1033D0003AFB0028BDDAE36843F080038BE7104B2B
:1033E0001340002BCBD1A1693846294401F02BFBB7
:1033F0000028E368F0DB43F40033E360BFE7A26931
:103400005B1B1A44A261BEE7013E6A1C43F4003311
:1034100066602260E360287856E700BF000F010075
:103420001000020070B500231646002204460D4627
:1034300001F00DFA10B10020002170BDC5F30A5350
:103440009A1940F2FE739A422046294605DD22224F
:10345000044B002004491A60EFE7002AEBDD62F319
:103460001E51EAE7C80200200000F07F2DE9F0417C
:10347000D5688046EB020E461446576905D5384696
:1034800001F0C9FA45F01005A061124B2B408BB139
:103490003846A16901F0D7FA002806DAE3684FF050
:1034A000FF3043F08003E36011E025F4003525F0A0
:1034B0001005E56032464146384600F044FE20F0F3
:1034C0000043F61AA3693344A3610028E6D1BDE89E
:1034D000F08100BF10000200F8B5304F3C680028B2
:1034E00051D10020F8BD2368B3F1805F39D1D4E910
:1034F000013151B10D68B5F1805F06D1DD1C4B681B
:103500002B4463608B68A360F1E79E4207DC9E4515
:1035100005DB20464FF0005340F80C3BE2E76345E3
:1035200011D920464FF00055666040F80C5B22F040
:1035300003054219A2604FF080549B1B033B44518A
:10354000C2E90131CEE761B9A0EB830000F0F4F8E5
:103550000130C6D04FF0005304F10C00C4E900362E
:10356000C0E72546A468002CBDD10C3000F0E4F87B
:10357000431CB6D04FF000538460C0E9003655B903
:1035800038600C30AEE7C21C9608002506F10A0C24
:1035900006F1030EE7E7A860F3E700BFD0020020C2
:1035A00010B5FFF799FF044628B91722034900F028
:1035B000CAFD00F095FB204610BD00BF6F4B000018
:1035C000F8B5044638B905460A4B0B4E1F68A742AA
:1035D00005DC2846F8BDBDE8F84001F0CCB830461F
:1035E00001F0C9F8002818BF4FF0FF3501343C3610
:1035F000EDE700BFFC4A0000D40200202DE9F843AB
:10360000C6683B4B044633400D469046D0F81490B4
:103610006BB1484601F005FA074640B9B8F1010F11
:1036200009D0B8F1020F31D0B8F1000F07D002274E
:103630003846BDE8F883204600F05CF80544002DCC
:10364000F5DBB30404D52368E26A9A4238BFE3622B
:10365000A069A8420EDC2368E26A934238BF134691
:1036600022691918891AA94204DB216B00EB010CAD
:10367000AC452CDC0023C4E9013346F02006A562EA
:1036800026F4032626F04006E660D1E7484601F01E
:10369000C2F90028E26804DA42F080020127E26001
:1036A000C6E72168A369D4F82CC061452CBF5B181C
:1036B000634421699206A3EB010303D5A26A9342F6
:1036C000B8BF13468342ACBFED182D18B7E72D1ACB
:1036D000B00744BF691AA160F10744BF9B1AEB1AF7
:1036E0002A4448BF6360226026F02006C8E700BF76
:1036F00003001000C3689A0705D121220D4B4FF03B
:10370000FF301A60704703F020021B0309D512B185
:10371000806A013870470368826900691344181A87
:10372000F7E70AB1806A7047036882690069134449
:10373000181A7047C802002070B50B4D2B680BB9E2
:103740000A4B2B60C41C2E6824F00304344420462A
:1037500000F010F810B92C60304670BD0C22044BFC
:103760004FF0FF361A60F7E7CC02002088030020F4
:10377000C8020020044B23B1984234BF002001202E
:1037800070471846704700BF880900202DE9F043B4
:1037900081EA0304C1F30A550E469C4640F2FF7EBF
:1037A00004F0004455B1754504D0C3F30A570FB176
:1037B000774517D1730013F5001F5CD24FEA4C0315
:1037C00013F5001F54D34FEA4C0313F5001F53D8D1
:1037D0002B4B00201E4250D01CEA030F4DD044EA70
:1037E00003013AE0C1F3130600213D44570D47EAB7
:1037F000C3270B4646F48016D202A6FB02EC47F024
:103800000047E6FB07C3A2FB0062E7FB002112EBC7
:103810000E0241F1000111EB0C0143F10000B0F583
:10382000801F42EA96031AD2491841EAD371A5F5DE
:10383000806540415B00DA0F521840F10000B3F19F
:10384000004F40F2FD7308BF22F001029D4209D8EB
:1038500044EA0003104603EB0551BDE8F083A5F2EE
:10386000FF35E8E7002D03DB44F0FF4444F4E004B7
:1038700000202146F1E7A6D000200249EDE700BF75
:103880000000F07F0000F87F2DE9F041C1F30A5EEF
:103890008C461E4640F2FF7883EA0105BEF1000F18
:1038A00011D14900700010F5001F18D8414A46EAAE
:1038B0000C03134213D01CEA020305F0004565D146
:1038C0002946184657E0C64504D0C3F30A570FB13E
:1038D000474506D14FEA4C0111F5001FE2D90020FF
:1038E00065E0430D43EAC123510DC00241EAC62100
:1038F000D202904243F0004341F0004173EB0106D5
:103900004FF0350C4FF00006AEEB070728BF40081C
:103910004FEA520228BF40EAC37042EAC17232BF86
:1039200007F2FD375B0807F2FE374908904273EB58
:10393000010E4FEA460604D3801A63EB010346F0FA
:10394000010600185B41BCF1210F08BF3446BCF1F1
:10395000010CEBD1904273EB010102D3013608BF99
:10396000013440F2FD739F4205F0004505D8304612
:1039700005EB07552919BDE8F0810020002FA4BFF1
:1039800045F0FF4545F4E0052946F4E716EA020351
:1039900002D145EA020194E710F5001F4FF0000044
:1039A00002D045EA0201E6E711F5001FECD1024919
:1039B000E1E700BF0000F07F0000F87FF0B5174698
:1039C00093EA01020E4605469E4607D503F10045DF
:1039D0003A462B46BDE8F04000F0CAB88B4203D807
:1039E000874209D38B4207D102F1004256408EEA4A
:1039F000020E2A463D46174640F2FF7CC6F30A52A5
:103A00004FEA1E5062454FEA1654C0EB165104D1DE
:103A1000330300F0A1800020A2E0914204D10029EC
:103A200000F0A080314689E0C6F31302CEF3130301
:103A30001F2942F4801243F4801350D8203023FA17
:103A400001FC001BA2EB0C0227FA01FC03FA00F1B7
:103A500041EA0C01691A38BF02F1FF3217FA00F38C
:103A60000D4603D05B424D1E01B9013A12F4C01F4E
:103A700051D1E90FDB0F41EA420243EA450352EA22
:103A800003016FD0023C510B23D0510C01BF190F21
:103A900041EA02121B01043CD10C01BF990F41EA1B
:103AA00082029B00023C110D02BFD90F41EA420283
:103AB00004F1FF344FEAD67108BF5B00B1EBD42F9D
:103AC0004FF0000006BF184602EB045106F000411B
:103AD000F0BD190E41EA02221B02083CD3E735294A
:103AE00019D8203923FA01F0281AC1F1200638BF6D
:103AF00002F1FF3227FA01F1B3403F06054643EADF
:103B0000010306D043F0FF035B42451E18B9013A9A
:103B100001E0002BF8D1D10209D4013C66050FD099
:103B2000E90F41EA4202D90F41EA45055B00002B4B
:103B300022F480124FEA045405DB11192846C7E726
:103B400030462105C4E7013508BF0132B3F1004F0B
:103B500008BF25F00105F0E7002000297FF462AFDF
:103B60000249B5E700200021B2E700BF0000F87F5E
:103B7000F0B51E4696EA010F1C468E4607461346D0
:103B800006D506F100452B46BDE8F040FFF716BF0D
:103B90008E429CBF0E46A64640F2FF7C98BF174659
:103BA000C6F30A5298BF03464FEA1E5162454FEAD8
:103BB0001650C1EB165404D1320306D0002031490F
:103BC00036E0944203D1002C58D0314654E0C6F37D
:103BD000130CCEF313021F2C4CF4801542F4801208
:103BE00027D82031091A22FA04FC27FA04F48A4063
:103BF00022439A186544134628BF013507FA01F29B
:103C0000A9022BD5013308BF01350AB923F00203FD
:103C10006FF3130606EB5506720012F5001F2BBF5B
:103C2000431C31460020ED0734BF45EA5300190517
:103C3000F0BD352CE4D8203C22FA04F159180B468B
:103C4000C4F1200102FA01F227FA04F428BF013579
:103C500022433F0618BF42F0FF02D1E7002A00F1DD
:103C6000FF3407DA013308BF0135B2F1004F08BF56
:103C700023F0010305EB04511846D9E7204606F06E
:103C80000041D5E70000F87F30B521F0004505F18F
:103C9000474404F57004B4F17E6F01F0004210D285
:103CA000410F05F14845C400C0F3007341EAC50166
:103CB0000B44B4F1004F08BF23F0010343EA0200B4
:103CC00030BD002C01DA1046FAE74B0013F5001F57
:103CD0008CBF024842F0FF40F2E700BF0000C07F07
:103CE00018200149ABBE70472600020008B5FCF75A
:103CF000B0FA08BD08B5FCF7ACFA08BD08B5FCF78A
:103D0000A8FA08BD08B5FCF7A4FA08BD08B5FCF789
:103D1000A0FA08BD08B5FCF79CFA08BD08B5FCF789
:103D200098FA08BD08B5FCF794FA08BD08B5FCF789
:103D300090FA08BD08B5FCF78CFA08BD08B5FCF789
:103D400088FA08BD08B5FCF784FA08BD08B5FCF789
:103D500080FA08BD08B5FCF77CFA08BD08B5FCF789
:103D600078FA08BD08B5FCF774FA08BD08B5FCF789
:103D700070FA08BD08B5FCF76CFA08BD08B5FCF789
:103D800068FA08BD08B5FCF764FA08BD08B5FCF789
:103D900060FA08BD08B5FCF75CFA08BD08B5FCF789
:103DA00058FA08BD08B5FCF754FA08BD08B5FCF789
:103DB00050FA08BD08B5FCF74CFA08BD08B5FCF789
:103DC00048FA08BD08B5FCF744FA08BD08B5FCF789
:103DD00040FA08BD08B5FCF73CFA08BD08B5FCF789
:103DE00038FA08BD08B5FCF734FA08BD08B5FCF789
:103DF00030FA08BD08B5FCF72CFA08BD08B5FCF789
:103E000028FA08BD08B5FCF724FA08BD08B5FCF788
:103E100020FA08BD08B5FCF71CFA08BD08B5FCF788
:103E200018FA08BD08B5FCF714FA08BD08B5FCF788
:103E300010FA08BD08B5FCF70CFA08BD08B5FCF788
:103E400008FA08BD08B5FCF704FA08BD08B5FCF788
:103E500000FA08BD08B5FCF7FCF908BD08B5FCF789
:103E6000F8F908BD08B5FCF7F4F908BD08B5FCF78A
:103E7000F0F908BD08B5FCF7ECF908BD08B5FCF78A
:103E8000E8F908BD08B5FCF7E4F908BD08B5FCF78A
:103E9000E0F908BD08B5FCF7DCF908BD08B5FCF78A
:103EA000D8F908BD08B5FCF7D4F908BD08B5FCF78A
:103EB000D0F908BD08B5FCF7CCF908BD08B5FCF78A
:103EC000C8F908BD08B5FCF7C4F908BD08B5FCF78A
:103ED000C0F908BD08B5FCF7BCF908BD08B5FCF78A
:103EE000B8F908BD08B5FCF7B4F908BD08B5FCF78A
:103EF000B0F908BD08B5FCF7ACF908BD08B5FCF78A
:103F0000A8F908BD08B5FCF7A4F908BD08B5FCF789
:103F1000A0F908BD08B5FCF79CF908BD08B5FCF789
:103F200098F908BD08B5FCF794F908BD08B5FCF789
:103F300090F908BD80B584B000AFC7E90201C7E9B8
:103F40000023D7E90223D7E9000100F0C3FC0346B0
:103F5000002B01D0452300E0572318461037BD46FB
:103F600080BD80B584B000AFC7E90201C7E9002376
:103F7000D7E90223D7E9000100F0ACFC0346002B8F
:103F800001D04E2300E0532318461037BD4680BDB4
:103F900080B485B000AFF860B9607A607B685A1E63
:103FA0007B681340002B00D0FEE7FB68BA681A60FC
:103FB000FB6800225A60FB6800229A60FB680022BE
:103FC000DA60FB687A681A617B685A1EFB685A617E
:103FD00000BF1437BD4680BC704780B487B000AFC7
:103FE00078600B46FB707B68DA687B681B699A42D5
:103FF00022D2EFF31083FB60FB687B6172B600BFD7
:104000007B685B685A1C7B685B691A407B685A60F6
:104010007B681A687B685B681344FA781A707B685F
:10402000DB685A1C7B68DA607B693B613B6983F320
:10403000108800BF012300E0002318461C37BD464E
:1040400080BC704780B487B000AF786039607B680F
:10405000DB68002B23D0EFF31083FB60FB687B61F0
:1040600072B600BF7B689B685A1C7B685B691A400C
:104070007B689A607B681A687B689B6813441A782F
:104080003B681A707B68DB685A1E7B68DA607B6964
:104090003B613B6983F3108800BF012300E00023EC
:1040A00018461C37BD4680BC704780B483B000AF53
:1040B00078607B68DB6818460C37BD4680BC70476B
:1040C000B0B586B002AFF860B9607A60BB68D3E97A
:1040D00000017B68D3E90045BB68D3E90223CDE941
:1040E000002322462B46FCF7B7F802460B46F96838
:1040F000C1E90023BB68D3E902017B68D3E902234D
:10410000FCF712F902460B46F968C1E90223BB68C5
:10411000D3E900017B68D3E90023FFF70BFF0346D7
:104120001A46FB685A74BB68D3E902017B68D3E97D
:104130000223FFF716FF03461A46FB681A7400BFF6
:104140001037BD46B0BD80B586B000AFF860B9602D
:104150007A60BB68002B02D14FF0FF331AE0FB6896
:10416000012B05D0FB68022B02D04FF0FF3311E08A
:1041700000237B6109E0BA687B6913441B78184609
:10418000FDF70EFD7B6901337B617B687A699A429A
:10419000F1D37B6818461837BD4680BD80B500AFA7
:1041A000FDF71EFD0346184680BD042071460842F7
:1041B00002D0EFF3098001E0EFF3088081690A88FB
:1041C0004BF6AB639A4200D0FEE702318161016891
:1041D000012901D0002100E020210160704700BFCB
:1041E00080B400AF00BFBD4680BC704708B5FEF785
:1041F00097F8BDE80840FCF7DFB838B50022002387
:1042000004460D4600F03BFB10B105F100431D468E
:104210002046294638BD10B5425C4318342A01DCDB
:10422000002010BD352A06D1194611F8012F302A79
:10423000FBD0002AF4D01A46302412F8011D392987
:1042400001D11470F9E7013111700278302AE7D0FA
:104250001A1A002A01DA0120E3E713F801299A70FB
:10426000F6E730B50A258C1F034690FBF5F0C0EB4E
:104270004012C0EB8202303303EB420301F80139F4
:10428000A142F1D130BD0EB430B590B013AB53F8AC
:10429000045B04463C22002101A8009300F0AFF823
:1042A00009232046CDE90434019400F02AF8294678
:1042B0000290009A01A8FCF72FFE10B0BDE8304034
:1042C00003B0704770B5C468A50708D0B2F5007F89
:1042D00011D0B2F5806F04D0B2F5807F0BD00120F1
:1042E00008E0012300F12401144301610160C3616E
:1042F000C460002070BD6FF07F455E1EAE42F3D3F8
:10430000EDE7034610B59A071C4615D1234654F82D
:10431000042BA2F1013121EA020111F0803FF5D016
:10432000D1B299B112F47F4F0ED012F47F0F14BFA7
:1043300023460333013003E01A4612F8011B09B982
:10434000181A10BD1346DEE70233F3E70133F1E735
:1043500030B50446257823460134002DFAD11A449D
:10436000934202D100221A7005E011F8014B03F8C4
:10437000014B002CF4D130BD03460843800770B5D3
:1043800012D11D460E46032A31462B460CD955F84C
:10439000040B0C680436844206D1A4F1013020EAF3
:1043A000040010F0803F01D01A440BE0043AEAE721
:1043B00013F8010B11F8014BA04201D0001B70BD96
:1043C0000028FCD09342F3D10020F8E7431C15D01D
:1043D000CB6813F402220FD123F4012323F040030E
:1043E00043F40123CB608B6881F825008B634B6815
:1043F000C1E901224B6370474FF0FF30704700F076
:10440000EBBA38B50D46044608B9012A05D029464D
:104410002046BDE8384000F00ABBFFF7BFFE287019
:10442000204638BDC36810B523F020038269C360FD
:10443000836A04469A420ED000F0DBF8E36823F466
:10444000405323F0100343F01003E360A36AA36119
:104450002369E3622360E36823F4804323F040038D
:10446000E36010BDCB6870B523F400229E060546BC
:104470000C46CA6002D50846FFF7D4FFD4E90236DD
:10448000581C10DAB1050ED4C3F1FF2303F57F03E6
:10449000FE33A360236846F490365A1CE66022601F
:1044A0001D70E8B270BD41F28A023240022A07D084
:1044B000002346F08006A360E6604FF0FF30F1E78E
:1044C0004AF210033340B3F5004F0AD100212046D1
:1044D000FFF794F8E3689A0602D52046FFF7A2FF9B
:1044E000E66846F4903316F4706FE36010D16069AB
:1044F00000F097FA4FF48070FFF752F84FF4807392
:10450000E268E36146F494331A4320612060E2607C
:1045100013F4106F2268266917D0E36A9A422CBF01
:10452000C6EB0201C6EB030141B9731CE3622360D1
:10453000E3695A1EA26023633570B2E72246304613
:10454000FEF794FF0028F0D0B7E7511CEDB22160D0
:104550001570E26A206890422CBFC6EB0001C6EBE2
:104560000201E2695B05226303D40A2D01D08A426D
:1045700009DC002322463046E6622660A360FEF78F
:1045800075FF002899D128468CE770B50D46064680
:104590001046144600F09BF82B78722B17D0772B1F
:1045A00018D0612B23D1082348F2020215F8011F0D
:1045B0002B2912D0622915D01B07E260666104D551
:1045C000022200212046FFF719F8204670BD002383
:1045D0000122EBE704230222E8E742F0030243F062
:1045E0000203E3E742F0040243F00103DEE70024A4
:1045F000EBE738B50446C36805690168C26A23F46D
:104600000020E06003F08200022802D04FF0FF306B
:1046100038BDDB030CD5914238BF11468D4209D11C
:104620000023A360E368E56223F480332560E36040
:104630000020EDE722462846491BFEF717FF002819
:10464000EED0E3E770B500231646002204460D467F
:1046500000F0FDF820B1002300200021336070BD80
:10466000C5F30A5320462946A3F2FE328BB9C5F39F
:10467000130CE30F43EA4C03BCF5002FC3F3130301
:104680004FEA440402D29C46013AF2E7204663F323
:10469000130140F2FE33326063F31E51DFE7A8B12D
:1046A0004FF0805340F80C3C50F8042C72B1136862
:1046B000B3F1805F0AD150F8083C516803330B44D2
:1046C00040F8083C936840F8043CEDE77047F0B5CB
:1046D000D0E90467C5680446A90789B020D02A0735
:1046E00016D4FEF76DFF384600F08FF92B0502D582
:1046F0003046FFF7D4FF6FF3150515F1A54F07D12D
:1047000020226846216A00F0A4F9684600F00BF800
:104710003C2200212046FFF772FE002009B0F0BDC8
:104720004FF0FF30FAE710B50446FFF7EAFD014607
:104730002046BDE8104000F080B9024670B513462F
:1047400012F8016B36B14D1E15F8014F002CF6D052
:10475000B442F9D1181A70BD024670B5134612F86A
:10476000014B1CB14E1E16F8015F0DB9181A70BD31
:10477000A542F8D1F2E7C36870B513F0030604460A
:1047800011D09B0611D5856AFFF74CFEE3682046E1
:1047900023F44053E360FFF72CFF0022064629462E
:1047A0002046FEF72BFF304670BD836905681D4427
:1047B0000369ED1AEAE70246C80240EA525040F2A5
:1047C0001E42A2EB115240F00040FF2A20FA02F0F4
:1047D00011D912F4E06F01D14042704711F08040CE
:1047E00009D04A0012F5001F04D86FF0004000EB1A
:1047F000D170704700207047F0B1030C0CBF00046B
:1048000001F18071030E0CBF000201F50001030FDE
:104810000CBF000101F58001830F0CBF800001F582
:1048200000110028ACBF400001F5801101EBE0232E
:10483000420510461946704700200021704710F0CD
:10484000004118BF404201F18041FFF7D5BF30B5AC
:104850001D460C464B0040EA4501114351EA440114
:1048600009D0AC4209D1904207D113F5001F8CBF8B
:104870000020012030BD0120FCE70020FAE730B520
:104880000D461C4655EA040301460BD4630013F59C
:10489000001F1DD8A54219D31AD190422CBF002069
:1048A000012030BD680010F5001F11D8630013F51A
:1048B000001F0DD80B4313431843F2D0A54205D86F
:1048C00006D1914294BF00200120EAE70120E8E7E9
:1048D0000020E6E730B50D461C4655EA04030146C4
:1048E0004FEA45000AD410F5001F1CD8A54218D87D
:1048F00019D1914294BF0020012030BD10F5001F56
:1049000011D8630013F5001F0DD80B431343184350
:10491000F3D0A54205D306D191422CBF002001203F
:10492000EBE70120E9E70020E7E730B50C46194640
:1049300054EA01030BD44B0013F5001F1BD88C4223
:104940001BD318D190428CBF0020012030BD6500E0
:1049500015F5001F0FD84B0013F5001F0BD88C4224
:104960000BD801D1904208D2034313432B430CBF11
:1049700001200020EAE70020E8E70120E6E730B563
:104980000C46194654EA01034FEA44050AD415F5CA
:10499000001F1DD88C421DD81AD1904234BF002070
:1049A000012030BD15F5001F12D84B0013F5001F74
:1049B0000ED88C420ED304D190428CBF002001202F
:1049C000EFE7034313432B430CBF01200020E8E72C
:1049D0000020E6E70120E4E7034613F0030F0ED1C1
:1049E00001F0FF0141EA012141EA0141043A24BFFB
:1049F00043F8041BB2F10402F9D202F10402013AB5
:104A000024BF03F8011BFAE7704703B4694602208C
:104A1000ABBE02B0704703B469460C20ABBE02B017
:104A2000704703B469460920ABBE02B070470FB4AB
:104A300069460620ABBE04B0704703B469460E2039
:104A4000ABBE02B0704703B469460A20ABBE02B0E9
:104A500070470FB469460D20ABBE04B07047FFFF2E
:104A600047505320546573740A00000024474E4792
:104A7000474100004C6F636174696F6E3A200A4CC5
:104A800061743A20252E366C662563204C6F6E6764
:104A90003A20252E366C6625630A0000436F6E6E41
:104AA000656374696F6E3A200A48444F503A202576
:104AB0002E326C6620536174656C6C697465733A50
:104AC0002025750A000000004E4F4649583A20251F
:104AD000690A0000252E326C66206D65746572735C
:104AE0002025632C20252E326C66206D657465723E
:104AF000732025630A0000002C00FFFF0300000064
:104B00002B0020002D00307825637025640030587C
:104B1000256350256400307825632E252E2A6C6C81
:104B20007870256400305825632E252E2A6C6C5829
:104B30005025640072007700286E756C6C29003077
:104B40005800307800300030313233343536373861
:104B500039414243444546003031323334353637EB
:104B6000383961626364656600256C66256E002ACB
:104B70002A2A205F437379735F616C6C6F632066D0
:104B800061696C65640A000000000000000000001C
:104B90000000000000000000000000000000000015
:104BA0000000000000000000000000000000000005
:104BB00000000000000000000000000000000000F5
:104BC00000000000000000000000000000000000E5
:104BD00000000000000000000000000000000000D5
:104BE00000000000000000000000000000000000C5
:104BF00000000000000000000000000000000000B5
:104C00000000000000000040404040404040404064
:104C1000414141414140404040404040404040408F
:104C200040404040404040050202020202020202AF
:104C30000202020202020220202020202020202046
:104C400020020202020202029090909090901010B6
:104C50001010101010101010101010101010101054
:104C600010100202020202028888888888880808D8
:104C700008080808080808080808080808080808B4
:104C800008080202020240000000000000000000CC
:104C90000000000000000000000000000000000014
:104CA0000000000000000000000000000000000004
:104CB00000000000000000000000000000000000F4
:104CC00000000000000000000000000000000000E4
:104CD00000000000000000000000000000000000D4
:104CE00000000000000000000000000000000000C4
:104CF00000000000000000000000000000000000B4
:084D000000000000000000FFAC
:104D080005000000000080FF0000807F864B000047
:04000003000001A94F
:00000001FF
