:1000000000600020A90100003F0200007F4C0000BA
:1000100043020000450200004702000049020000C0
:100020000000000000000000000000004B02000083
:100030004D020000000000004F02000051020000CD
:1000400071470000794700008147000089470000A0
:100050009147000099470000A1470000A947000010
:10006000B1470000B9470000C1470000C947000080
:10007000D1470000D9470000E1470000E9470000F0
:10008000F1470000F947000001480000094800005E
:1000900011480000194800002148000029480000CC
:1000A000314800003948000041480000494800003C
:1000B000514800005948000061480000F527000041
:1000C00069480000412A000071480000794800009A
:1000D00081480000894800009148000099480000CC
:1000E000A1480000A9480000B1480000B94800003C
:1000F000C1480000C9480000D1480000D9480000AC
:10010000E1480000E9480000F1480000F94800001B
:100110000149000009490000114900001949000087
:1001200021490000294900003149000039490000F7
:100130004149000049490000514900005949000067
:1001400061490000694900007149000079490000D7
:100150008149000089490000914900009949000047
:10016000A1490000A9490000B149000098580000C9
:10017000000000200C00000098580000000000045F
:10018000000000009858000000200004000000005B
:1001900010000020280400000000000400000000FF
:1001A000002000040000000072B6134B134A1748E9
:1001B0000360196881F3088882F30A8802F0CAFC98
:1001C0000F4B07E003F10C049A685968186800F0B7
:1001D0001FF823460B4A9342F4D306E01C465968A5
:1001E00054F8080B00F022F82346074A9342F5D34F
:1001F00062B604F065FDFEE700000000005A002032
:100200006C01000090010000A801000008ED00E072
:100210000023934209D210B450F8044B41F8044B28
:1002200004339342F8D310BC70477047002303E0B7
:10023000002240F8042B04338B42F9D37047FEE7C9
:10024000FEE7FEE7FEE7FEE7FEE7FEE7FEE7FEE786
:10025000FEE7FEE7FFFFFFFFB0B588B000AFC7E9DC
:100260000201C7E90023D7E90223D7E9000104F01E
:10027000E7F802460B461046194604F028FDC7E988
:10028000060123A3D3E90023D7E9060103F0C0FF49
:1002900002460B46104619464FF00002204B04F070
:1002A00035F802460B46104619461BA3D3E9002336
:1002B00003F0AEFF02460B4614461D4614A3D3E9D5
:1002C0000023D7E90C0103F0A3FF02460B461046BA
:1002D00019464FF00002124B04F018F802460B4684
:1002E0001046194600F0B0F802460B462046294653
:1002F00003F08EFF02460B46C7E90423D7E9042327
:10030000104619462037BD46B0BD00BFAFF3008090
:100310007A008BFCFA21094000000000AE4D5841E4
:1003200000806640FFFFFFFF80B588B000AFC7E9DF
:100330000201C7E90023D7E90223D7E9000104F04D
:100340007FF802460B461046194604F0C0FCC7E988
:10035000060113A3D3E90023D7E9060103F058FFF0
:1003600002460B46104619464FF00002104B03F0B0
:10037000CDFF02460B46104619460BA3D3E90023D6
:1003800003F046FF02460B46C7E90423D7E90423DE
:10039000104619462037BD4680BD00BFAFF3008030
:1003A0007A008BFCFA21094000000000AE4D584154
:1003B00000806640FFFFFFFF80B400AF0E490AA334
:1003C000D3E90023C1E902230B4B4E221A740A49D8
:1003D00007A3D3E90023C1E90023074B45225A7440
:1003E00000BFBD4680BC70471DAF40F4A4FE49402D
:1003F000200A664CC1CA174068000020FFFFFFFFBB
:1004000080B400AF0E490AA3D3E90023C1E9022357
:100410000B4B4E221A740A4907A3D3E90023C1E902
:100420000023074B45225A7400BFBD4680BC70476D
:10043000B1A71DFE9AFE4940912A8A5759CB174011
:1004400080000020FFFFFFFFF7B5002300220446D5
:100450000D4604F09CFFA0B111A1D1E90001224694
:100460002B4603F0EDFF012306460F46CDE900338E
:10047000204632463B4605F1004101F09DFC03B0A9
:10048000F0BD07A3D3E900232046294604F0B2F8C3
:1004900001230246CDE9003320460B462946ECE70E
:1004A000182D4454FB21F93F2DE9F04F9DB014461F
:1004B0000693D1E90023CDE90423059B82460893E6
:1004C00047F6F073089ADDF89C9033EA124320D186
:1004D0000023E370C2F31303049A134340F0A8848B
:1004E000089B002BC0F2AA84069B98070FD4A84A49
:1004F00013F0040FA74B18BF134669226E20662124
:100500002270269A6070A1700325136039E3A24B14
:10051000F3E720F02003412B00F0F082DDE9040135
:100520000022002304F033FF0546002834D0DDE923
:10053000040303F1004101230FAA079304F0FBFD1C
:1005400040F22D15CDE910014FF47A710F9A002079
:100550005543A5F5AB531C3B93FBF1FB8F49ABEB2C
:10056000020203F07DFC41F294139D42CDE91A0191
:100570001FDC81A3D3E90023CDE91623CBF10005CD
:10058000E9071FD4DDE91601DDE9162303F040FE7B
:100590006D10CDE91601F3E70023DDE90401002227
:1005A00004F0DDFE0346002840F0A282DDE90401EC
:1005B000C2E700227A4BCDE91623BBF1000F0BD026
:1005C0005D46DDE7DDE91601DDE91A2303F020FED3
:1005D000012DCDE91A01D5D1DDE91001DDE91A239C
:1005E00003F094FE0026CDE912016E4FDDE9120101
:1005F00063A3D3E9002304F0CAFE002840F09380EF
:100600000026684FDDE912015FA3D3E9002304F05F
:100610003EFF002840F09A80DDE9120104F053FE0D
:1006200005468BEAEB73A3EBEB7309930F9A28460D
:10063000ABEB020604F08BFE324603F011FC002205
:100640000023BBF1000FCDE91201CDE9142380F2A4
:10065000AB8049A1D1E90001CDE91601CDE918230C
:10066000DDE91667DDE916010026DDE91823CDE98D
:100670000A2332463B4603F0E3FEDDE90A2303F09A
:10068000B9FFCDE91801CDE91667DDE916010022B1
:10069000434B03F0BDFD02460B4600203F4903F0EB
:1006A000CFFE00223E4B03F031FECDE91801DDF80C
:1006B000248018F0010F40F08E80DDE91623DDE97B
:1006C0001801DDE91867CDE90A011046194603F063
:1006D00091FFDDE90A2303F08DFF32463B4603F02C
:1006E00097FDCDE91801DDE91601DDE9162303F0D8
:1006F0008FFDCDE91601DDE91667DDE9160100265B
:10070000DDE91823CDE90A2332463B4603F098FE83
:10071000DDE90A2303F06EFF4FEA6808CDE918010E
:10072000CDE91667C5E7DDE9120132463B4603F025
:100730006FFDCDE91201DDE91A0132463B4603F0B7
:10074000E5FD0BF1FF3BCDE91A014FE7DDE91201B1
:1007500032463B4603F0DAFDCDE91201DDE91A012C
:1007600032463B4603F054FD0BF1010BCDE91A0173
:1007700048E700BFAFF300809A9999999999C93FCA
:1007800000000000006AF8400000000080842E4154
:100790009256000016570000905600000000F03FEF
:1007A00000001440000024404FF00002B64BCDE999
:1007B00016234FF000024FF00003CDE918237FF419
:1007C00076AFDDE91201DDE9102304F036FE0028E2
:1007D00047D1013D2AE7DDE91223CDE90A23DDE90E
:1007E0001823DDE91601CDE90C23DDE91823DDE945
:1007F000146703F0FFFE32463B4603F009FDDDE9D6
:100800000C2306460F46DDE90A0103F001FD02460E
:100810000B463046394603F0EDFECDE91401DDE923
:100820001601DDE9122303F0F3FCCDE91201DDE945
:100830001267DDE912010026DDE91423CDE90A2360
:1008400032463B4603F0FCFDDDE90A2303F0D2FE0D
:10085000B8F1010FCDE91401CDE912677FF42DAF96
:10086000AFE7DDE91223DDE9100103F0E9FDCDE991
:100870001001DDE91423DDE9100103F0E1FDCDE90C
:100880001001DDE91A23DDE9100103F03FFD7CA32F
:10089000D3E90023CDE91001DDE9100103F0B8FC34
:1008A000CDE91001DDE9100104F00DFDDDE910676F
:1008B000804604F04CFD02460B463046394603F0B4
:1008C000BFFD6FA3D3E9002303F0A2FCCDE9100123
:1008D000DDE9100104F0F7FC0646002EC0F2C280EC
:1008E0006A4B9E4200F3C580B8F1000FC0F2DA8077
:1008F000664B984500F3DC80654A954200F3DE8044
:10090000644B0A21B8FBF3F2B6FBF3F3624801FB38
:10091000052500FB028201FB023800FB036301FB9B
:1009200003F60BF1FF3B21463027284601F8067BF2
:1009300004F001FA404604F10C0104F0FCF93046E1
:1009400004F1120104F0F7F900232375079B0BF162
:10095000050BE77443EA8B0B002B40F0D480069B19
:100960009A0700F1CE804D4A13F0040F4C4B18BF8C
:1009700013463BF0010B269A48BF0BF1030BBAF16B
:10098000670FD9F8001013604FEAAB0B0EDCBAF119
:10099000600F00F3BA80BAF1450F00F0C881BAF1D8
:1009A000470F05D0BAF1410F00F0C6804FF0670A3B
:1009B000069B002943F400630693DCBF0123C9F8BA
:1009C0000030D9F8001020461129A8BF11210131AB
:1009D00004F08BF9D9F8003083445B4540F3A281E1
:1009E0001BF1040FC0F29E810BF101029B1AC9F8A2
:1009F0000030069ABBF1000FD9F8003002F400660F
:100A000080F21481CBF100075A1CBA4280F2D780E1
:100A1000302323702E2302256370D9F80030299AE1
:100A20001360299B1B68002B02DD3E2363550135B3
:100A3000069B03F00803002E00F05B81002B40F0C2
:100A4000A080254415F8013C6A1E302B00F04F8130
:100A50003E2B00F04C812E2BA5EB040540F091803D
:100A6000013D8EE006F5742606F5107608F1FF3894
:100A700033E7A6F57426A6F5107608F1010830E7ED
:100A80000000000080842E41000014403F420F000F
:100A90009F860100A08601006079FEFF925600004B
:100AA0001657000008F5742808F51078013D1BE77B
:100AB000A8F57428A8F5107801351AE79D427FF74C
:100AC00032AF0A226FF0090795FBF2F107FB0153E1
:100AD0008B480D4600FB038393FBF2F807FB0833BA
:100AE00000FB0363053393FBF2F60BF1010B1AE7EE
:100AF0006FF0040B2E46A846079514E74FF0000B45
:100B00002DE7804B35E7804B33E7AAF16103062BD5
:100B10003FF64CAF01A252F823F000BF390B0000A2
:100B2000AD090000AD090000AD0900002F0D000067
:100B3000F3090000B1090000089B049DC3F30A52A9
:100B4000C3F313000AB3A2F2FF33069E06F00806B1
:100B50000E4320D16D486E49002A14BF3122302245
:100B6000BAF1610F18BF0146204602F083F8694AC6
:100B70000599654B054613EA210338BF1346269AAB
:100B8000136028461DB0BDE8F08F55EA00030CBF86
:100B90001346614BD9E7CDE9005002935F480B46FD
:100BA0005F49002A14BF31223022BAF1610F18BF09
:100BB0000146204602F05EF8D9E71546EBE05B44BB
:100BC0009D1C122DC1BF299A113B1325136076B9C4
:100BD0002946204604F089F848B17FEA0B0705F161
:100BE000010504D1637823702E23637019E7012F68
:100BF00004EB05030CD11A1B002A02DC302301355B
:100C0000F1E713F801299A70F5E713F80129DA7072
:100C10001A1B002AF9DC302323702E2363703C2337
:100C2000A370289B013F02351F60FAE60BEB030718
:100C3000BD1C122D45DD26B91321204604F055F8C0
:100C4000E0B91323132B0CBF122213225A4519DDCE
:100C5000621E04EB0B01907802F8010F9142FAD169
:100C60002E224A70D9F8002029995A44113A0A6074
:100C7000002A3AD03E225D1CE254D9E614230BF13F
:100C8000010BDFE7621CE11812F8010B914202F838
:100C9000020CF9D13C22ABEB030B01F8012C289993
:100CA0000BF102020A602E22E254D9F800205D1CEA
:100CB000002A3FF4BDAE29990A603E2262559D1C70
:100CC000B6E63EB92946204604F00FF810B10BF104
:100CD000010BFD1C631EA3449A7803F8012F9B456A
:100CE000FAD12E238BF80130A2E61D46A0E6154668
:100CF000A8E6D9F8002013437FF443AFB0E600BF65
:100D000040420F0090560000945600009E5600008E
:100D1000965600001657000001FCFFFFB556000074
:100D2000A6560000013BC9F80030AAF1020AD9F822
:100D30000030112B05DD299A113B13601123C9F8EE
:100D40000030069BD9F8005013F4006605F1020547
:100D500004D12946204603F0C8FF834463782370FA
:100D6000069BD9F8002023F4FE6323F007031B053C
:100D70001B0D13431CBF2E236370299B08BF012545
:100D80001B68002BC2BF3E23635501358EB1069B05
:100D90001B070ED4254415F8013C6A1E302B3FF486
:100DA0000CAF3E2B3FF409AF2D1B2E2B08BF05F1D6
:100DB000FF35BBF1000FB6BF2D222B22CBF1000B6C
:100DC00060195FFA8AF6691CBBF57A7F067005F137
:100DD000020362540ADB4FF47A72BBFBF2F202F1B7
:100DE0003001E154184B03FB02BBEB1CBBF1630F5A
:100DF0000ADD64229BFBF2F202F13001E1546FF054
:100E0000630101FB02BB01330A229BFBF2F2D2B267
:100E100002F13001E154C2EB4211C2EB81020BF14D
:100E2000300B9D1C0BEB420B234483F801B0A8E66A
:100E30006E2261201146054BFFF762BB69226E20CE
:100E40006621034BFFF75CBB18FCFFFF1657000041
:100E500094560000FFFFFFFF2DE9F04F92469B469E
:100E600004460D468BB00022504659463A4B04F0DA
:100E700076FA28BB002200232046294604F0DDFA3A
:100E800000285FD0002200232046294604F067FA9C
:100E90000022D0B100235046594604F0CEFA002873
:100EA00000F09A8121222D4B50461A6059460022AB
:100EB000002304F054FA002840F04A820024284D10
:100EC000204629460BB0BDE8F08F50465946254BC9
:100ED00004F05DFA98B91CA3D3E9002350465946A3
:100EE00004F080FA58B95946504604F0ECF9064629
:100EF00004F02DFA52465B4604F031FA18B921226B
:100F0000164B1A60DAE705F100431D4606F00103AF
:100F1000019300224FF080435046594604F01FFAD7
:100F200010B30BA3D3E900232046294604F02FFA7F
:100F3000D0B122462B462046294603F069F90446E3
:100F40000D46BDE70190E4E70000C0FFFFFFDF4171
:100F5000408CB5781DAF15440000F03F78030020A9
:100F60000000F0FF0000E0C12046294609AA04F075
:100F700053F99BA3D3E900230F46064604F05DFA1C
:100F8000041E18BF0124A24DE40004F1040805EB7F
:100F9000C8013246D1E900013B4604F078FA002846
:100FA00008BFA04608F1020405EBC4013246D1E9AE
:100FB00000013B4604F06BFA002808BF444605EBED
:100FC000C405D5E90289304642464B46394603F00E
:100FD00037FA904B621003EBC203D3E9002303F00E
:100FE0002FFA0022CDE902018B4B3046394603F03F
:100FF0000FF9002206460F4640464946864B03F04D
:1010000007F902460B463046394603F0F3FA02462A
:101010000B46DDE9020103F079F902460B468046F2
:10102000894603F0F5F870A3D3E9002306460F467E
:1010300003F0EEF86EA3D3E9002303F0DBFA3246A7
:101040003B4603F0E5F86CA3D3E9002303F0D2FAA2
:1010500032463B4603F0DCF869A3D3E9002303F0F2
:10106000C9FA32463B4603F0D3F842464B4603F0FA
:10107000CFF865A3D3E9002306460F4603F0C8F86E
:10108000099BCDE90601C4EB0310013804F05FF9B8
:101090000022624B03F0BCF80022614BCDE9020153
:1010A0005046594603F0B4F804F00DF904F04FF936
:1010B00000225A4B03F0ACF853A3D3E90023CDE947
:1010C00004014046494603F0A3F8324604460D4663
:1010D000DDE906013B4603F08DFA02460B46204649
:1010E000294603F087FA42464B4603F083FA5246FC
:1010F0005B4603F08DF8DDE9042304460D465046B7
:10110000594603F09DF9DDE9022303F081F8024618
:101110000B462046294603F06DFA0022404B044658
:101120000D4603F075F804F0CEF804F010F9002233
:101130003A4B03F06DF806460F4602460B46204632
:10114000294603F07DF9DDE9042304460D46DDE977
:10115000020103F05DF832463B4603F04BFA0022F1
:101160002F4B8046894603F053F804F0ACF804F0A6
:10117000EEF80022294B03F04BF8064602460B46D8
:101180000F464046494603F05BF922462B4603F0E2
:1011900031FA0022224B8046894603F039F804F0E8
:1011A00092F804F0D4F800221C4B03F031F8024608
:1011B0000B4604460D463046394603F01BFA184BE1
:1011C000002203F025F804F07EF8164B06469842FC
:1011D0002CDA2222144B1A600024002570E600BF8E
:1011E000CD3B7F669EA0E63F28FC4ADBFD783C3F76
:1011F000AC8D272E2449623F0E089E999999893F0C
:101200004D5555555555B53FF80BAE941D55DC3F22
:10121000B0550000705500000000E03F0000B03FF6
:101220000000304020C0FFFF7803002022462B46FC
:101230004046494603F004F90022002304460D46C7
:1012400004F0D0F840B1204629460022504B03F06C
:10125000F7F804460D460136002EB5BF06F10F081B
:101260004FEA26184FEA281808F10108494BC6EB47
:10127000081603EBC603D3E90067204636A3D3E97B
:101280000023294602F0C4FF35A3D3E9002303F06D
:10129000B1F922462B4602F0BBFF33A3D3E900236A
:1012A00003F0A8F922462B4602F0B2FF30A3D3E99F
:1012B000002303F09FF922462B4602F0A9FF2EA33C
:1012C000D3E9002303F096F922462B4602F0A0FF53
:1012D0002BA3D3E9002303F08DF922462B4602F01D
:1012E00097FF29A3D3E9002303F084F922462B4674
:1012F00002F08EFF32463B4602F08AFF0B46024662
:101300003946304603F076F909AA03F085FF099BB8
:1013100008EB0302B2F5806F09DD22221E4B1A6032
:10132000019B002B7FF4CAAD00241C4DC8E56FF46F
:101330007F739A42FFF64DAF02F01CFF019B0446FB
:101340000D46002B3FF4BCAD01F100431D46B7E54F
:101350000024134DB4E500BF80CC92E3DD4EEF3E98
:10136000744C38E07A2F243F9FCDD7187ED8553F54
:10137000981D136EABB2833F6D0203D7086BAC3F71
:10138000CEC482FFBDBFCE3FEF39FAFE422EE63F0C
:101390000000B03FB0550000780300200000F07F4F
:1013A0000000F03FFFFFFFFF00232DE9F04F044650
:1013B0009DB0CDE9043311920E78002E50D0252E29
:1013C000DFF8CC9201F1010A4ED009EB060292F847
:1013D00080206368D20703F1FF3324D555461AF8FD
:1013E000013B4B4493F88030DF07F7D46368013B3F
:1013F000002B636013DB23685A1C2260187809EB0A
:10140000000393F88030DE0705D4214603F057FD32
:10141000AA465146D0E7049B01330493E6E72046F1
:1014200002F062FCEBE7002B636009DB23685A1CC7
:1014300022601D78B54208D1049B01330493E8E78C
:10144000204602F051FC0546F4E72146284603F009
:1014500036FD013504D1059B13B94FF0FF330593D9
:1014600005981DB0BDE8F08F4B784FF000082A2B8F
:1014700006BF01F1020A0126002652460A208549CC
:101480001AF8013B09EB030595F88050AD0600F111
:10149000038116F0080F08BF6FF000486C2B40F076
:1014A00008819AF8003046F0020602F1020A782B11
:1014B000D6DC572B00F30C81252B00F05381242B15
:1014C000CEDD23F00203452BCAD14FF0FF35636810
:1014D000AB46013B002B05F101056360C0F2908132
:1014E00023685A1C2260187809EB000393F88030B7
:1014F000DB07ECD4471CAED0B8F1000F00F08A81B6
:101500002B2800F081812D2840F0848146F400775B
:1015100063680BF10205013B002B6360C0F276812A
:1015200023685A1C2260187808F1FF3852A3D3E9C7
:101530000023CDE9082300230022CDE90A2300235C
:101540009B4608F1FF390693B9F1FF3F40F06481F3
:10155000214603F0B4FCDDE90A010A23032203FB60
:101560000BF393FBF2F3ABEB03084246109302F04C
:1015700077FCCDE90C01069803F0E9FE424602F043
:101580006FFCBBF1000FCDE90A0180F2EC813CA3B6
:10159000D3E90023CBF1000BCDE908233AA3D3E92B
:1015A00000234FF000084FF00009CDE906231BF09F
:1015B000010F39D0DDE90823DDE9060103F01AF84F
:1015C00002460B46CDE90E01DDE90C0102F020FEDA
:1015D00042464B46CDE90C01DDE90E0102F018FE52
:1015E000DDE90A2380468946DDE9080102F010FEA4
:1015F00042464B4602F0FEFFDDE90A23804689465B
:10160000DDE9060102F004FE00220B46CDE90A23C3
:1016100002F016FF42464B4602F0ECFFBBF1010F11
:101620008046894600F0AB81DDE906231046194665
:1016300002F0E0FFDDE9082302F0DCFF02460B4682
:10164000DDE9080102F0E4FDDDE90623CDE908014A
:101650001046194602F0DCFD00220B46CDE90623B8
:1016600002F0EEFEDDE9082302F0C4FF4FEA6B0B47
:10167000CDE908019BE700BF9A9999999999B93FDB
:10168000333333333333733E000000009999C93F3D
:1016900017570000CCCCCC0C88453FF7E1AE00FBDF
:1016A0000833B3F130083FF5DBAE524646F008068A
:1016B000E6E64C2B04D19AF8003046F01206F4E628
:1016C000682B7FF4F4AE9AF8003046F00406ECE69E
:1016D000583B202B3FF6C4AE01A252F823F000BFC6
:1016E0009D1B00006114000061140000A51B000098
:1016F0006114000061140000611400006114000016
:1017000061140000611400006114000085170000DE
:10171000EB170000CB140000CB140000CB1400002A
:1017200061140000A71A0000611400006114000099
:101730006114000061140000AF1A0000C31A000019
:10174000F11A00006114000061140000FD1A00008D
:1017500061140000931B000061140000611400007C
:101760009D1B00006368013B002B636005DB236861
:101770005A1C22601D78252D5DE6204602F0B4FA41
:101780000546F8E716F0080F08BF4FF0010816F0FD
:10179000010609BF119B00251A1D1D6808BF119283
:1017A000B8F1000F3FF45CAE049B9844049B0133F6
:1017B00004936368013B002B636010DB23685A1CB1
:1017C000226018780EB905F8010B049B4345EDD152
:1017D000002E7FF41EAE059B0133059319E62046CB
:1017E00002F082FA421CEDD135E60A23CDF80080E2
:1017F00046F02002204611A902F036F90546F2E033
:10180000204602F071FA6FE6374681E6204602F084
:101810006BFA89E6374689E62E2811D179060FD46E
:1018200047F0400863680135013B002B63603CDBF7
:1018300023685A1C22601878474609F1FF3983E66D
:10184000A24B034493F880309A0632D5069BA04AF7
:1018500047F48078934207F04007A0F1300009DC9C
:101860000A23069A03FB02030693002FDAD00BF13A
:10187000FF3BD7E703F06BFDDDE9082302F0C8FC6E
:1018800002460B46DDE90A0102F0B4FE0022CDE972
:101890000A01DDE908018F4B02F038FDCDE90801AE
:1018A000002FBFD10BF1010BBCE7204602F01CFA60
:1018B000C2E720F02003452B7FF44AAEFB057FF5FD
:1018C00047AE636827F4C077013B002B63601CDBE5
:1018D00023685A1C226018782B281CD02D2818D079
:1018E00001354FF000080A22784BA944A9EB050105
:1018F000002904DD191891F8801089061CD43B06D4
:101900004CBFABEB080BC34422E6204602F0ECF9D7
:10191000E2E747F0800763680235013B002B636014
:1019200006DB23685A1C2260187809F1FF39D8E7D2
:10193000204602F0D9F9F8E761683038013900290A
:1019400002FB080847F4807705F10105616004DBBC
:101950002168481C20600878C8E7204602F0C4F9D6
:101960000A225A4BC2E706D000220023CDE9082301
:101970000022594B15E64FF000084FF00009DDE951
:101980000C0142464B4602F035FEDDE90A2302F027
:1019900031FE13AA03F0CFFB139BDDF840B0804665
:1019A0009B44BBF5806F8946CDF84CB024DD002206
:1019B000B9054CBF494B4A4BCDE902232222494B82
:1019C0001A60FB057FF54CAD07F00108BF0735D560
:1019D000B8F1000F07D1119B1A1D1B681192DDE9A8
:1019E0000212C3E90012002DFFF633ADF30740F1F8
:1019F0002E81049B2B4421E56FF47F739B450CDA09
:101A00000022002303F0ABFC38B92222354B1A60C8
:101A100000220023CDE90223D3E7BB055A46404606
:101A2000494606D502F01CFA01F1004302900393E7
:101A3000C7E702F015FACDE90201C2E714AADDE911
:101A4000020103F078FB149B7E33002B149313DC0C
:101A5000DDE902010022002303F081FCF0B922221B
:101A60000020204B1A60B8F1000FBCD1119B1A1D49
:101A70001B6811921860B6E7FE2B0FDDDDE902014D
:101A80000022002303F003FD174A184B22210028EF
:101A900008BF1346134A18681160E4E7DDE9020144
:101AA00002F034FEDFE70023CDF80080A0E6119BB2
:101AB000700753F8042B1193049B4CBF13801360E1
:101AC000A7E40823CDF8008092E600BF1757000076
:101AD0009F86010000002440000014400000F0FF39
:101AE0000000F07F780300200400002008000020A0
:101AF0001023CDF8008026F006027BE64FF0FF357C
:101B000063680135013B002B63602ADB23685A1CA4
:101B10002260187809EB000393F8807017F0010732
:101B2000EED1411C3FF497AC16F0010B08BF119B9E
:101B3000A84402BF1A1D1F681192454507D0421CD8
:101B400005D009EB000393F88030DB070DD5214663
:101B500003F0B5F9BBF1000F7FF445AF87F800B093
:101B600041E7204602F0C0F8D4E7BBF1000F01D1F5
:101B700007F8010B63680135013B002B636004DB50
:101B800023685A1C22601878D7E7204602F0ACF888
:101B9000D3E70A233246CDF800802BE61023CDF898
:101BA000008025E600229AF8003001255E2B14BF44
:101BB00000210121CDE91422CDE91622CDE9182218
:101BC000CDE91A220ABF9AF801300AF1010A0AF196
:101BD000020A002B3FF444AC5A111CA800EB82020D
:101BE00052F8200C03F01F0305FA03F3034342F8F5
:101BF000203C1AF8013B5D2BEBD161BB16F00106CE
:101C000033D000276368013B002B636032DB23681D
:101C10005A1C226018780025A84511D0411C0FD00D
:101C200003460028B8BF00F11F031CAA5B1102EB9A
:101C3000830353F8203C00F01F021341DA0720D43D
:101C4000214603F03CF9002E7FF4D3AE3E70059B95
:101C500001330593CDE6002314AA11680133C9436B
:101C6000082B42F8041BF8D1C8E7119B1A1D1F6806
:101C70001192C7E7204602F037F8451CCBD1FFF799
:101C8000EABB0EB907F8010B63680135013B002B75
:101C9000636004DB23685A1C22601878BCE7204686
:101CA00002F022F8B8E700BF2DE9F8430022002334
:101CB00004460D4603F0C1FB78B100220023204604
:101CC000294603F064FB20B121220024364B374D16
:101CD0001A6020462946BDE8F88340F2FE33C5F37A
:101CE0000A5763F31E55204629A3D3E9002329464A
:101CF00002F08EFA28A3D3E9002302F07BFC804691
:101D0000894602460B462046294602F0FFFA424623
:101D10004B4602F06FFC0022254B02F079FA804618
:101D2000894602460B462046294602F0EFFA424613
:101D30004B4602F05FFC00221D4B02F069FA804620
:101D4000894602460B462046294602F0DFFA424603
:101D50004B4602F04FFC0022154B02F059FAA7F255
:101D6000FE36F20704460D4609D50DA3D3E900233C
:101D700002F04EFA6FF47F7304460D46FE18C5F369
:101D80000A5306EBD67603EB660363F31E55A0E712
:101D900018096D3997E2E23FF7CC920035B5DA3F8A
:101DA000CD3B7F669EA0E63F780300200000F0FF59
:101DB0000000E03FFFFFFFFF2DE9F0471446DDE99B
:101DC00008761D465CA3D3E9002380468946204659
:101DD000294603F05CFB40B121220024724B734D75
:101DE0001A6020462946BDE8F087204654A3D3E96F
:101DF0000023294602F0FEFB53A3D3E9002302F09F
:101E000085FA03F060FA824603F0A1FA1AF0010F96
:101E100004460D4618BF7F422EB10022644B02F0EB
:101E20000FFB04460D464AA3D3E90023204629466A
:101E300002F0EEF902460B464046494602F000FB2E
:101E400045A3D3E90023804689462046294602F06F
:101E5000DFF902460B464046494602F0CBFB0446FA
:101E60000D4602F034FF3EA3D3E9002303F00FFB3D
:101E7000002857D022462B462046294602F0C8F9B2
:101E800039A3D3E900238046894602F0C1F938A37B
:101E9000D3E9002302F0D4FA42464B4602F0B8F9E7
:101EA00035A3D3E9002302F0A5FB42464B4602F0DE
:101EB000AFF933A3D3E9002302F0C2FA42464B46FE
:101EC00002F0A6F930A3D3E9002302F093FB4246C7
:101ED0004B4602F09DF92EA3D3E9002302F0B0FA9D
:101EE00042464B4602F094F92BA3D3E9002302F0BB
:101EF00081FB42464B4602F08BF929A3D3E900232C
:101F000002F09EFA42464B4602F082F922462B46E8
:101F100002F07EF902460B462046294602F06AFB93
:101F200004460D46002FBFBF224605F1004314466C
:101F30001D4656E7AFF300800000000065CDCD419F
:101F4000182D4454FB21F93F182D4454FB2109401E
:101F500000000000002209409EE59E4BEFAEE23EED
:101F6000BBBDD7D9DF7CDB3D95DF9369FF80E83CC3
:101F70009C4908DC20E46A3D30D46A683C12E63DA6
:101F8000ABC05D4B45E65A3E63F024A5E31DC73E5A
:101F90001A3E011AA0012A3FB01011111111813F00
:101FA000555555555555C53F780300200000F0FFA5
:101FB0000000E03F80B400AF0B4B0C4A1A610A4BA3
:101FC0000B4A9A60084B0B4ADA60074B0A4A5A617F
:101FD000054B0A4A5A60044B094A1A60024B1846DC
:101FE000BD4680BC704700BF98000020152100004E
:101FF00001210000ED200000292100009D200000AB
:102000001920000080B400AF024B1846BD4680BCCA
:10201000704700BF9800002080B582B000AF26E076
:1020200000F0ECFC0346DBB2FB71FB1D01221946FC
:10203000144802F006FFFB790A2B18D10622124938
:10204000104802F012FF0346002B0DD10F4A104931
:102050000C4800F079F80F4A0D490F4802F0D4FC03
:10206000084B00221A7002E0064B00221A7000F0A2
:10207000DDFC0346002BD3D100BF00BF0837BD46AF
:1020800080BD00BFB000002038560000580000207E
:1020900010000020280000204000002080B584B0FF
:1020A00000AFC7E902011346FB710D49D7E90223CE
:1020B000C1E902230A4AFB7913740949D7E90623C7
:1020C000C1E90023064A97F820305374044A0549B1
:1020D000054802F099FC00BF1037BD4680BD00BF27
:1020E00028000020100000204000002080B400AF35
:1020F000024B1846BD4680BC704700BF1000002050
:1021000080B400AF024B1846BD4680BC704700BF8C
:102110004000002080B400AF024B1846BD4680BC92
:10212000704700BF5800002080B400AF054B1B680B
:10213000092B94BF01230023DBB21846BD4680BCA7
:10214000704700BF000000202DE9B04F8EB000AFF7
:10215000F860B9607A6007F10C037B49184602F019
:102160002BFC786300233B63E3E03B6B01333B6371
:102170003B6B033B062B00F2BB8001A252F823F01D
:102180009D21000017220000212200009B22000058
:10219000A5220000D1220000DF220000786B01F0B0
:1021A0008DFDC7E908014FF00002684BD7E908012F
:1021B00002F0ACF802460B461046194603F083F8CD
:1021C0000346FB61FB69642202FB03F3184603F03C
:1021D000BEF802460B46D7E9080102F031F9024683
:1021E0000B46C7E90423F86903F0B1F882468B4631
:1021F0004FF00002564BD7E9040102F087F802467F
:102200000B465046594602F0F5F902460B46B968AE
:10221000C1E902236CE07B6B1A78BB681A7467E033
:10222000786B01F04BFDC7E908014FF00002474B06
:10223000D7E9080102F06AF802460B461046194633
:1022400003F041F80346FB61FB69642202FB03F3E0
:10225000184603F07CF802460B46D7E9080102F065
:10226000EFF802460B46C7E90423F86903F06FF85C
:1022700082468B464FF00002354BD7E9040102F04D
:1022800045F802460B465046594602F0B3F902465D
:102290000B46B968C1E900232AE07B6B1A78BB685A
:1022A0005A7425E0786B01F013FDF8627B68FA6AD6
:1022B000DA60786B01F00CFD0346002B05D1254B4D
:1022C0001B680133234A136002E0224B00221A608C
:1022D000786B01F0FDFC02467B689A6008E0786B41
:1022E00001F0ECFC02460B467968C1E9002300BF0F
:1022F000BB681B7C532B08D1BB68D3E9022314466F
:1023000083F00045BB68C3E90245BB685B7C572B83
:1023100008D1BB68D3E90023904683F00049BB682D
:10232000C3E9008907F10C030749184602F044FB92
:1023300078637B6B002B7FF418AF00BF00BF38378A
:10234000BD46BDE8B08F00BF4056000000005940B8
:1023500000004E400000002080B400AF064B002279
:102360001A70054B00229A70034B00225A7000BF6E
:102370001846BD4680BC70471401002080B400AFF1
:10238000024B1846BD4680BC704700BF14010020B8
:1023900080B500AF114B9B78002B05D00F4B00226E
:1023A0009A700E4B00221A700C4B5B78002B13D0E6
:1023B0000A4B00225A70094B1B78052B06D108489E
:1023C00000F0C2FC054B00221A7005E0034B1B789D
:1023D0000133DAB2014B1A7000BF80BD1401002036
:1023E00044560000F0B58BB004AFFFF70BFE7861E8
:1023F000FFF7C4FF38617B695C682C4BD3E90201AD
:102400002A4B1E7C294BD3E90023284D6D7C029575
:10241000CDE900233246A0477B699B689847F86066
:10242000FB68D3E902014FF000024FF08043FEF752
:1024300013FD04460D46FB68D3E900014FF000028E
:102440004FF08043FEF708FD02460B462046294622
:1024500002F0D0F802460B4610461946FFF724FC5E
:10246000C7E900017B691B6998470346D3E900234C
:102470000F4800F069FCD7E900230E4800F064FC27
:102480004FF000020C4BD7E9000102F080FF034639
:10249000002B00D105E0094800F056FC3B69012201
:1024A0005A7000BF1C37BD46F0BD00BF6800002059
:1024B0005056000060560000000024407056000096
:1024C000F0B58DB004AFFFF79DFD7861FFF756FFC3
:1024D00038617B695C68404BD3E902013E4B1E7C4E
:1024E0003D4BD3E900233C4D6D7C0295CDE90023A3
:1024F0003246A0477B699B689847F860FB68D3E940
:1025000002014FF000024FF08043FEF7A5FC0446A5
:102510000D46FB68D3E900014FF000024FF0804305
:10252000FEF79AFC02460B462046294602F062F866
:1025300002460B4610461946FFF7B6FBC7E90001F5
:102540004FF00002254BD7E9000102F04BFF034694
:10255000002B06D04FF000024FF00003C7E906231E
:1025600011E04FF000021D4BD7E9000101F0CEFE53
:1025700002460B464FF00000194901F061FF024688
:102580000B46C7E906237B691B6998470346D3E9D5
:102590000023144800F0D8FBD7E90023124800F0CC
:1025A000D3FBD7E90623114800F0CEFB4FF0000221
:1025B0000F4BD7E9000102F0EAFE0346002B00D1E1
:1025C00005E00C4800F0C0FB3B6901225A7000BFD7
:1025D0002437BD46F0BD00BF8000002000006940E8
:1025E0000000F03F50560000605600007856000092
:1025F000000024407056000080B483B000AF034652
:10260000FB7197F90730002B0BDBFB7903F01F02FE
:10261000064997F907305B09012000FA02F241F8F8
:10262000232000BF0C37BD4680BC704700E100E0AE
:1026300080B483B000AF0346FB7197F90730002BDD
:102640000CDBFB7903F01F02074997F907305B09A0
:10265000012000FA02F2603341F8232000BF0C375A
:10266000BD4680BC704700BF00E100E080B483B08D
:1026700000AF03463960FB7197F90730002B0ADB86
:102680003B68DAB20C4997F907305201D2B20B44D9
:1026900083F800230AE03B68DAB20849FB7903F0CB
:1026A0000F03043B5201D2B20B441A7600BF0C3721
:1026B000BD4680BC704700BF00E100E000ED00E0D7
:1026C00080B582B000AF786080222649264802F0AB
:1026D0000CFA80222549264802F007FA254B0222EF
:1026E000C3F8E020234B0022C3F8E420214B4FF431
:1026F00000225A641F4B4FF000525A641D4B4FF496
:1027000000225A601B4B4FF000525A601A4B4FF494
:102710001242C3F88820184B4FF40242C3F88C20B1
:102720007B681B01154AB2FBF3F3C3F30C03144A95
:1027300043F070631361124B9B69114A43F43013E9
:10274000936103211F20FFF791FF1F20FFF770FF08
:102750001F20FFF751FF62B600BF00BF0837BD461C
:1027600080BD00BF4801002018010020C8010020E2
:10277000300100200010094000C00B40006CDC025A
:1027800000F0094080B582B000AF786000BF7B6880
:10279000DBB21946094802F0CDF9034683F0010384
:1027A000DBB2002BF3D1064B9B69054A43F40003CF
:1027B000936100BF0837BD4680BD00BF18010020EF
:1027C00000F0094080B582B000AF0023FB7100BF6C
:1027D000FB1D1946064802F0E2F9034683F00103A7
:1027E000DBB2002BF4D1FB7918460837BD4680BD1B
:1027F0003001002080B582B000AF1F20FFF718FF26
:10280000184B5B6903F40003002B11D0FB1D194624
:10281000154802F0C4F90346002B03D0FA79114B96
:10282000DA6105E00F4B9B690E4A23F400039361C4
:102830000C4B5B6903F40013002B0FD0094BDB69D1
:10284000DBB2FB71FB791946084802F073F90346C5
:1028500083F00103DBB2002B00D0FEE700BF083796
:10286000BD4680BD00F00940180100203001002065
:1028700080B483B000AF0346FB7197F90730002B9B
:102880000BDBFB7903F01F02064997F907305B0960
:10289000012000FA02F241F8232000BF0C37BD46A8
:1028A00080BC704700E100E080B483B000AF034615
:1028B000FB7197F90730002B0CDBFB7903F01F024B
:1028C000074997F907305B09012000FA02F26033EB
:1028D00041F8232000BF0C37BD4680BC704700BFC5
:1028E00000E100E080B483B000AF03463960FB71C3
:1028F00097F90730002B0ADB3B68DAB20C4997F9ED
:1029000007305201D2B20B4483F800230AE03B683F
:10291000DAB20849FB7903F00F03043B5201D2B24B
:102920000B441A7600BF0C37BD4680BC704700BF11
:1029300000E100E000ED00E080B582B000AF78601B
:1029400080222649264802F0D0F8802225492648D0
:1029500002F0CBF8254B0222C3F8F020234B0022D3
:10296000C3F8F420214B4FF400125A641F4B4FF070
:1029700080425A641D4B4FF400125A601B4B4FF0BB
:1029800080425A601A4B4FF41342C3F8B020184BE0
:102990004FF40342C3F8B4207B681B01154AB2FB15
:1029A000F3F3C3F30C03144A43F070631361124B47
:1029B0009B69114A43F43013936103212120FFF7EF
:1029C00091FF2120FFF770FF2120FFF751FF62B632
:1029D00000BF00BF0837BD4680BD00BF78020020A1
:1029E00048020020F8020020600200200010094088
:1029F00000D00B40006CDC0200100A4080B582B0B1
:102A000000AF0023FB7100BFFB1D1946064802F012
:102A1000C6F8034683F00103DBB2002BF4D1FB7947
:102A200018460837BD4680BD6002002080B500AF63
:102A3000024802F0E7F80346184680BD6002002015
:102A400080B582B000AF2120FFF72EFF184B5B69E5
:102A500003F40003002B11D0FB1D1946154802F0AA
:102A60009EF80346002B03D0FA79114BDA6105E09A
:102A70000F4B9B690E4A23F4000393610C4B5B6977
:102A800003F40013002B0FD0094BDB69DBB2FB71A1
:102A9000FB791946084802F04DF8034683F001031C
:102AA000DBB2002B00D0FEE700BF0837BD4680BD7B
:102AB00000100A40480200206002002080B584B067
:102AC00000AF4FF4E130FFF7FBFD4FF41650FFF776
:102AD00033FFFFF741FCF860FFF76CFAB860FDF7D1
:102AE0006BFCFDF78DFCFB6801225A70BB681B680C
:102AF0009847BB689B6898477860FFF749FCFB687C
:102B00001B78052B1FD801A252F823F04F2B000091
:102B1000252B00002B2B0000332B0000392B00004D
:102B20003F2B0000FFF75EFC12E0FB6801225A70A9
:102B30000EE0FB6801225A70FFF7C2FC08E0FB6858
:102B400001225A7004E0FB6801229A7000E000BF85
:102B5000CCE700BF80B582B000AF3B4BD3F88830E4
:102B6000394A43F00F03C2F88830374BD3F88C3022
:102B7000354A43F4406343F00303C2F88C30324BD0
:102B8000324A9A60324BD3F82438314A43F4807386
:102B9000C2F824382E4BD3F824382D4A23F00103F1
:102BA000C2F824384FF080731B68B3F1FF3F0FD099
:102BB0004FF080731B68274A934237D1264B1B681E
:102BC000B3F1FF3F32D1254B1B68B3F1FF3F2DD14D
:102BD000234B4FF4C0221A60214B224A1A60204B2B
:102BE000214A1A601E4B4FF424125A601C4B1D4A96
:102BF0001A601B4B4FF420125A60194B0F221A60B7
:102C00001A4B4FF4EE421A620023FB7108E0174A98
:102C1000FB791033002142F82310FB790133FB715B
:102C2000FB79012BF3D90E4B0E4A1A60104BD3F8E7
:102C300000330F4A43F08073C2F8003302F03AF8D1
:102C400000BF0837BD4680BD00ED00E00000000079
:102C500000100940000063594000000144000001D9
:102C6000001D09400F0002000F00010000E00840B5
:102C7000000009400EB430B594B017AB53F8045BB4
:102C800004463C22002105A8049302F031F90A23EE
:102C900008936FF000430793104B4FF0FF320293FD
:102CA000049B05A8CDE900536FF00043059400F0A4
:102CB000B1F8079B0446013B002B079308DB002279
:102CC000059B1A70204614B0BDE8304003B0704731
:102CD00005A9002002F03FF9F4E700BFA9040000B5
:102CE000F0B50C4616461F46054695B010B931BBE7
:102CF000012404AD3C22002105A802F0F9F80A23C2
:102D000008936FF000430595002507930D4B621E55
:102D1000CDE9017300962B4605A800F07BF8079AD1
:102D20000446013AAA42079204DB059B1D70204627
:102D300015B0F0BD284605A902F00DF9F7E74FF0F0
:102D4000FF34F4E7A90400000FB473B506AB53F8E1
:102D5000046B0121324668460193FFF7C1FF041E50
:102D600013DD651C284601F0D5F8009068B13246A5
:102D70002946019BFFF7B4FF074B22460099186DC7
:102D800001F04BFF009802F003FA204602B0BDE8C4
:102D9000704004B0704700BF8403002010B5174A8C
:102DA0001749002002F06AF94FF480734FF48062F3
:102DB0000021124801F0F0FF124A1349012002F0ED
:102DC0005DF94FF480734FF4806200210D4801F0EB
:102DD000E3FF0E4B1B68022B0EDD0D4A0A49022051
:102DE00002F04CF9BDE810404FF480734FF480625C
:102DF0000021074801F0D0BF10BD00BF84030020B0
:102E0000C4560000C0030020C65600008C560000C7
:102E1000FC0300202DE9F04F06464FF000089DB05E
:102E2000CDE90823279DDDF8989019F8010B18B912
:102E300040461DB0BDE8F08F252819D0089A4FEA0A
:102E4000E8739045099A934104DB08F10108CDF835
:102E50009890E8E7B368013B002BB36004DB33686C
:102E60005A1C32601870F0E7314602F074F8ECE753
:102E7000002416E02D2F10D0302F50D04FF0000A34
:102E80000A22A7F13003D9B2092925D802FB0A3A50
:102E9000049B13F8017B0493F3E744F00104DDF88D
:102EA00010904B4613F8017B2B2F04932ED0E1D8C2
:102EB000202F2ED0232F2FD02A2FDFD1049B55F87F
:102EC00004AB1F78BAF1000F09F10203BCBFCAF1CD
:102ED000000A84F0010404932AEAEA732E2F059372
:102EE00053D1049B1F782A2F1CD04FF0000B0A22CD
:102EF00001330493A7F13003D9B2092918D802FB92
:102F00000B3B049B13F8017B0493F3E744F00204AA
:102F1000C5E744F00404C2E744F00804BFE744F402
:102F20000074BCE7049B55F804BB5F78023304933C
:102F3000BBF1000F29DB44F010046C2F0ED1049B71
:102F40001F786C2F15BF049B5F780133023307BFD6
:102F500044F060040493049344F02004712F46D09D
:102F600016DC682F4AD06A2F00F0A5804C2F3ED087
:102F7000572F15DC412F00F0A68200F3A280002F0E
:102F80004CD1049B013B049392E04FF0000BD4E73B
:102F9000742F00F092807A2F00F08F80782F3DDC24
:102FA000A7F15803202B39D8DFE813F0900138003F
:102FB00038003800380038003800380038008D02FA
:102FC0003800A2005E028F008F008F0038005E0282
:102FD0003800380038003800DE001102D80138000F
:102FE0003800F8003800300238003800B401049B83
:102FF00044F0600413F8017B04930DE0049B1F78F8
:10300000682F04D15F7844F480740233F4E7049BA2
:1030100044F0800401330493782FA9DD059B03F16C
:10302000FF3914F0010306931DD114F4007F0CBF87
:103030004FF0200B4FF0300B44464FEAE873B9F1E4
:10304000010958D5059B059A012BB8BF0123BAF198
:10305000000FC2F10109D8BF4FF00009013B9844AD
:10306000059B023B9944089A4FEAE8739045099AF8
:1030700008F1010A934108DAB368013B002BB36001
:1030800054DB33685A1C32601F70069B002B00F023
:10309000758454464F464FF0200B4FEAEA78013FC3
:1030A00049D5B9F1000FACBF0AEB09080AF10008D5
:1030B000DDF81090CBE644F04004049B13F8017B4C
:1030C0009AE727F00203452BA8D1073525F007051D
:1030D000F5E80223CDE91223002314F0100F08BFF6
:1030E0004FF0060B1A461946184644F480643AE13C
:1030F00055F8047B92E7089A9442099A73EB02010F
:1031000009DAB16801390029B16008DB3168481C6F
:10311000306081F800B0013443F100038FE731469D
:103120005846079301F017FF079BF4E731463846EE
:1031300001F011FFA9E7089B9C42099B78EB030370
:1031400009DAB368013B002BB36008DB33685A1C13
:10315000326083F800B0013448F100089FE731463F
:10316000202001F0F8FEF6E767062A6805F104035F
:1031700005D54FEAE871C2E900811D4698E7A5062A
:1031800002D5C2F80080F8E7E00502D582F8008099
:10319000F3E72106F5D5A2F80080EEE755F804AB79
:1031A000AA4BBAF1000F08BF9A46504601F022FE22
:1031B000E706814602D55845A8BFD946059BA3EB33
:1031C000090714F00103059310D114F4007F0CBF1C
:1031D000202230224446BB464FEAE873BBF1010B84
:1031E00020D527EAE773013F9844FF1A44464FF081
:1031F000000B4FEAE873CB4530DB059BB9F1000FBC
:10320000A8BFC844002B3FF453AF4446B9464FF023
:10321000200B4FEAE87AB9F101093ED5002FA8BF8B
:10322000B84445E708998C42099973EB010108DA23
:10323000B16801390029B16007DB3168481C306092
:103240000A70013443F10003C8E710463146079382
:10325000069201F080FEDDE90623F2E7089A944227
:10326000099A73EB02020ADAB268013A002AB260E4
:103270000BDB3268511C31601AF80B1011700134ED
:103280000BF1010B43F10003B5E731461AF80B00CF
:10329000069301F060FE069BF1E7089B9C42099BA8
:1032A0007AEB030309DAB368013B002BB36008DB58
:1032B00033685A1C326083F800B001344AF1000AC6
:1032C000A9E73146202001F046FEF6E714F040025F
:1032D0001DBFEA1D22F00702154655F8043B1CBF2E
:1032E00055F8083B526814F080010DD000229BB2C3
:1032F000574914F0080F574818BF0846E10601D592
:1033000024F4007454492EE0E00544BF0A4603F05B
:10331000FF03EDE714F040021DBFEA1D22F0070293
:10332000154655F8043B1CBF55F8083B526814F08D
:1033300080010DD000229BB2484914F0080F454887
:1033400018BF0846E10601D524F4007444490AE098
:10335000E00544BF0A4603F0FF03EDE7002255F8FD
:10336000043B3F493D48CDE90EB04FF0FF30DDF85A
:1033700020C0CDE91000BCEB080CCDF818C0DDF87A
:1033800024C04FF000006CEBE87CCDF81CC00DF1C0
:10339000500CE6464FF05509013020280EF8019BED
:1033A000FAD114F4826F04BF01200E906E2F00F347
:1033B0009180472F00F39F805123A7F14102D34012
:1033C00013F0010340F093814FF0000BCEE014F0B6
:1033D00040021DBFEA1D22F00702154655F8043BC6
:1033E0001CBF55F8083B526814F0800108D0002239
:1033F0009BB218481B4914F0080F18BF08464BE051
:10340000E00544BF0A4603F0FF03F2E714F0400270
:103410001DBFEA1D22F00702154655F8043B1CBFEC
:1034200055F8083B526814F0800109D000229BB285
:1034300014F0100102D0002124F40074054892E732
:10344000E00544BF0A4603F0FF03F1E7C856000059
:10345000CF56000016570000D7560000D256000085
:10346000E8560000D5560000600643BFEA1D22F072
:103470000702154655F8043B46BF55F8083B52680D
:10348000DA17210610D543F3C0321BB2002A11DA35
:103490005B42B74862EB420214F010013FF463AFA5
:1034A000002124F400745EE7E00544BF43F3C0123A
:1034B0005BB2EBE7A10704D4AE48AF4914F0040FA8
:1034C0009BE7AE48E8E7E3065CBF4FF00D0B44F026
:1034D0001004FAE56F3F4FF0000B092F46D8DFE8E4
:1034E00017F0B900420045004500450045000301C2
:1034F000450045004200A7F1580011283FF664AF8F
:103500000FF2040E5EF820F039360000C9330000D7
:10351000C9330000C9330000C9330000C9330000BB
:10352000C9330000C9330000C9330000EF36000082
:10353000C9330000C9330000E5360000EF36000053
:10354000EF360000EF360000C9330000E53600001A
:1035500003F00F00085C1B0943EA02730BF1010B37
:103560000CF8010B120953EA0200F1D114F4806344
:103570000B9300F0CC8000230E93109B002BC4BF54
:1035800003F1FF330E93119B0E9A002B02DD013BDA
:1035900013440E930F980E9F01F02CFC059B5F4483
:1035A000DF1B3B1A40F201270593274004F001037B
:1035B0000C9300F0D6800027B9464FEAE77A0F9BBC
:1035C0005A1C0F921B780A93002B40F0D9800C9B59
:1035D000ABB914F4007F0CBF202330233C46DDF848
:1035E00014904FEAE77AB9F1010940F1E480059BB4
:1035F000059A23EAE373013A1F44D31A05930B9B00
:10360000002B00F0F2804FF0300A0A9B9B4500F33C
:1036100005810C9B73B13C464FF0200BDDF81490F4
:103620004FEAE77AB9F1010940F18F81059B002B40
:10363000A8BFFF18B8443BE54FF0000B93E703F039
:1036400007013031DB0843EA42730BF1010B0CF840
:10365000011BD20853EA0201F1D187E758089F08FD
:1036600040EAC27047EA8277C7194FEA920141EBFC
:103670005201380940EA01703F1841EB1111380A34
:1036800040EA01603F1841EB1121380C40EA01404B
:10369000381841EB1141401841F10001C00840EADF
:1036A00041709F1D42F1000AA0FB0E92C9080EFB5B
:1036B0000122B7EB09076AEB02023F0947EA0277EA
:1036C0003F1803F1300307EB8700A3EB40030CF82E
:1036D000013B3B460BF1010B41EB121253EA020195
:1036E000BCD143E74FF0000B4FF00A0EF6E711ABE9
:1036F000039310AB02930EAB01930FAB38460093CC
:10370000289F234614AA12A9B84783462EE70E9B8A
:103710000B9AB3EB0B0348BF13463AE7069A97425E
:10372000079A79EB020208DAB268013A002AB2601D
:1037300011DB3268511C31601370013749F1000907
:10374000AAEB0702002AE9DA059B23EAE377AAEB52
:103750000703059330E73146202001F0FCFB2023CE
:10376000EBE7059BB94603F1FF3A2023E8E700BFEA
:103770009456000016570000925600009056000024
:10378000069B01379945079B7AEB030309DAB36877
:10379000013B002BB36009DB33685A1C32600A9A84
:1037A0001A7019F101094AF1000A08E731460A982E
:1037B00001F0D1FBF5E7069A9442079A7AEB0202F0
:1037C00008DAB268013A002AB26007DB3268511C9D
:1037D0003160137001344AF1000A04E7184631469B
:1037E0000D9301F0B8FB0D9BF4E73C464FF0300A17
:1037F0004FEAE7790E9B013B002B0E9370DA3C46B3
:103800005A464FEAE77914AB002A02F1FF3A00F377
:103810008180BBF1000FA8BF5F44FAE60A9B14AA9F
:10382000D05CFC173C281DD03E2845D1B946119BE1
:10383000013B002B11931BDB069B01379945079B2E
:1038400074EB030309DAB368013B002BB3602EDB92
:1038500033685A1C326083F800A019F1010944F161
:103860000004E4E7B946109B013B002B109303DAF8
:103870000A9B01330A93C8E6069B01379945079BCB
:1038800074EB030309DAB368013B002BB36009DB77
:1038900033685A1C326083F800A019F1010944F121
:1038A0000004E0E73146302001F055FBF5E73146F2
:1038B000302001F050FBD0E7069B9F42079B9C41C4
:1038C00008DAB368013B002BB36005DB33685A1C90
:1038D000326018700137CBE7314601F03CFBF9E765
:1038E000069B01379C42079B79EB030309DAB36817
:1038F000013B002BB36008DB33685A1C326083F84D
:1039000000A0013449F1000974E73146302001F08C
:1039100022FBF6E7069A9442079A79EB02020ADA4A
:10392000B2681AF80300013A002AB26008DB326874
:10393000511C316010700134524649F1000963E7AF
:10394000314601F008FB14ABF5E7069B9C42079B50
:103950007AEB030309DAB368013B002BB36008DBA1
:1039600033685A1C326083F800B001344AF1000A0F
:1039700058E63146202001F0EEFAF6E7D046FFF790
:1039800097BB00BF0A4B034493F880309A0605D5D5
:1039900030388842A8BF4FF0FF3070471A0701D572
:1039A0005738F6E7DB0654BF4FF0FF303738F0E703
:1039B000175700002DE9F04707468946054614468B
:1039C000274A294615F8010BD8B1131893F880300F
:1039D000DB07F6D4302814D128788A1C00F0DF03E6
:1039E000582B09D134F0100337D110246878CA1C41
:1039F000214615461C4607E00123002CF8D1082477
:103A0000F6E7B4B1214600240026B046B246FFF7DF
:103A1000B9FF00280FDA04B16F1EC9F80070BAF1BF
:103A2000000F17D022224FF0FF300E4B1A60BDE876
:103A3000F0870A21E8E706FB01031A0C08FB0128BE
:103A4000B8F5803F28BF4FF0010A012415F8010B9B
:103A50009EB2DCE746EA0840E9E70123C8E700BF79
:103A600017570000780300202DE9F74F05468A46D6
:103A70001F464FF0FF381646DDF83090614A6B68FC
:103A8000C346013B002B08F101086B6055DB2B6836
:103A9000591C29601C78131993F88030D807EED48C
:103AA000611C00F0A080B9F1000F61D0B20613D5FF
:103AB0002B2C03D02D2C0FD146F400766B680BF124
:103AC0000208013B002B6B603DDB2B685A1C2A600F
:103AD0001C78B9F101094BD0302C49D108F1010310
:103AE00000936B6846F48071013B002B09F1FF3BAA
:103AF0006B602DDB2B68581C28601C78BBF1000F15
:103B000032D024F02003582B2ED137F010030FD1E0
:103B100008F1020300936B68A9F1020B013B002B33
:103B20006B601CDB2B68591C29601C783146102700
:103B3000D9460E46DDF800801DE0284600F0D4F896
:103B4000304A0446A7E7284600F0CEF80446C0E70E
:103B50002846019100F0C8F801990446CEE72846AE
:103B600000F0C2F80446E1E7002F08BF0827DFE7AE
:103B7000002F08BF0A27A346C14444464FF000085F
:103B80000FE06B6808FB0708013B002B46F48076CA
:103B900004F101046B602ADB2B685A1C2A6093F83D
:103BA00000B04C4505D039465846FFF7EBFE0028DB
:103BB000E7DA2946584601F082F9F3051FD5F707E1
:103BC00011D4DAF80030B50606F0040203F104015E
:103BD00003D5B00548BFC8F10008CAF800101B683B
:103BE00052B1A3F80080204603B0BDE8F08F28460C
:103BF00000F07AF88346D4E7C3F80080F3E76FF06B
:103C00000104F0E71757000030B585B00C4601AB52
:103C1000094902AA054601F0A0F8002805DC04B114
:103C200025600020002105B030BD14B1019B1D446A
:103C30002560DDE90201F6E7F9560000F7B5034615
:103C400007460E46DFF86CC01D4613F8011B21B372
:103C50000CEB010090F8804014F00104F4D12B2902
:103C60001DD02D290ABF1D4600244FF4007428469C
:103C700001A9FFF79FFE26B1019BAB4208BF3B465F
:103C8000336074B10028BDBF22224FF000400A4BC0
:103C90004042B8BF1A6003B0F0BD0C46E7E71D46CE
:103CA000E5E70028BFBF2222034B6FF000401A60F7
:103CB000F1E700BF175700007803002038B5034C28
:103CC00000212568FFF7A0FF256038BD780300209C
:103CD00038B5044C0A2225680021FFF7AFFF2560A4
:103CE00038BD00BF78030020F8B5C36804461A0346
:103CF00009D5426B23F400234260826BC36082606B
:103D000090F82500F8BD9F0601D501F004F946F2B0
:103D1000C902E3681A40012A0FD00022626044F20F
:103D20004002134276D023F4A04323F0400343F033
:103D30004003E3604FF0FF30E4E7474A13420CD101
:103D40004FF4807000F04AF94FF48073E361E36848
:103D5000206143F400632060E3606268E368561CFE
:103D60000DDA43F48053C2F1FF22E36002F57F02D3
:103D70002368FE3262605A1C22601878C2E7DD06B2
:103D8000676904D5D8033ED5204601F0ABF9E26857
:103D9000E66942F48053D103E360256923684CD57A
:103DA000E16A8B422CBFC5EB0305C5EB0105761B11
:103DB00033D1204601F096F9E669E36925699B1B3A
:103DC0001D44E368324623F01003E3602946384679
:103DD00001F090F80028BEBFE36820F0004043F4F3
:103DE0008043A6EB0006B8BFE360AB19E362E3696A
:103DF0002363E36836BB23F4805343F04003C4E9F4
:103E00000056E36096E73846A16901F0A4FB00285C
:103E1000BDDAE36843F080038BE7104B1340002BBF
:103E2000CBD1A1693846294401F095FB0028E3680D
:103E3000F0DB43F40033E360BFE7A2695B1B1A4485
:103E4000A261BEE7013E6A1C43F400336660226053
:103E5000E360287856E700BF000F01001000020061
:103E600070B500231646002204460D4601F077FA8D
:103E700010B10020002170BDC5F30A539A1940F219
:103E8000FE739A422046294605DD2222044B00207B
:103E900004491A60EFE7002AEBDD62F31E51EAE7FE
:103EA000780300200000F07F2DE9F041D5688046BE
:103EB000EB020E461446576905D5384601F033FB30
:103EC00045F01005A061124B2B408BB13846A1691B
:103ED00001F041FB002806DAE3684FF0FF3043F0C1
:103EE0008003E36011E025F4003525F01005E5605E
:103EF00032464146384600F090FE20F00043F61A64
:103F0000A3693344A3610028E6D1BDE8F08100BF76
:103F100010000200F8B5304F3C68002851D1002055
:103F2000F8BD2368B3F1805F39D1D4E9013151B1D3
:103F30000D68B5F1805F06D1DD1C4B682B446360D2
:103F40008B68A360F1E79E4207DC9E4505DB2046B7
:103F50004FF0005340F80C3BE2E7634511D920468F
:103F60004FF00055666040F80C5B22F003054219E3
:103F7000A2604FF080549B1B033B4451C2E90131C6
:103F8000CEE761B9A0EB830000F018F90130C6D08C
:103F90004FF0005304F10C00C4E90036C0E7254699
:103FA000A468002CBDD10C3000F008F9431CB6D039
:103FB0004FF000538460C0E9003655B938600C30CA
:103FC000AEE7C21C9608002506F10A0C06F1030EA6
:103FD000E7E7A860F3E700BF8003002010B5FFF714
:103FE00099FF044628B91722034900F016FE00F095
:103FF000B9FB204610BD00BFFF560000F8B50446CF
:1040000038B905460A4B0B4E1F68A74205DC284607
:10401000F8BDBDE8F84001F036B9304601F033F99B
:10402000002818BF4FF0FF3501343C36EDE700BFE4
:104030008C560000840300202DE9F843C6683B4BF2
:10404000044633400D469046D0F814906BB1484674
:1040500001F06FFA074640B9B8F1010F09D0B8F185
:10406000020F31D0B8F1000F07D002273846BDE863
:10407000F883204600F05CF80544002DF5DBB3041E
:1040800004D52368E26A9A4238BFE362A069A84275
:104090000EDC2368E26A934238BF1346226919187E
:1040A000891AA94204DB216B00EB010CAC452CDC26
:1040B0000023C4E9013346F02006A56226F4032656
:1040C00026F04006E660D1E7484601F02CFA0028C9
:1040D000E26804DA42F080020127E260C6E7216864
:1040E000A369D4F82CC061452CBF5B1863442169D7
:1040F0009206A3EB010303D5A26A9342B8BF13460D
:104100008342ACBFED182D18B7E72D1AB00744BF96
:10411000691AA160F10744BF9B1AEB1A2A4448BFF1
:104120006360226026F02006C8E700BF030010008D
:10413000C3689A0705D121220D4B4FF0FF301A605A
:10414000704703F020021B0309D512B1806A0138C1
:1041500070470368826900691344181AF7E70AB1C7
:10416000806A70470368826900691344181A7047AF
:104170007803002070B500231646002204460D4641
:1041800001F0EDF810B10020002170BDC5F30A5315
:104190009A1940F2FE739A422046294605DD2222F2
:1041A000044B002004491A60EFE7002AEBDD62F3BC
:1041B0001E51EAE7780300200000F07F70B50B4D38
:1041C0002B680BB90A4B2B60C41C2E6824F0030427
:1041D0003444204600F010F810B92C60304670BD11
:1041E0000C22044B4FF0FF361A60F7E77C030020E7
:1041F0003804002078030020044B23B1984234BFD8
:104200000020012070471846704700BF380A002080
:104210002DE9F04381EA0304C1F30A550E469C469A
:1042200040F2FF7E04F0004455B1754504D0C3F35D
:104230000A570FB1774517D1730013F5001F5CD2F1
:104240004FEA4C0313F5001F54D34FEA4C0313F508
:10425000001F53D82B4B00201E4250D01CEA030FE6
:104260004DD044EA03013AE0C1F3130600213D4476
:10427000570D47EAC3270B4646F48016D202A6FB29
:1042800002EC47F00047E6FB07C3A2FB0062E7FB36
:10429000002112EB0E0241F1000111EB0C0143F180
:1042A0000000B0F5801F42EA96031AD2491841EA8D
:1042B000D371A5F5806540415B00DA0F521840F1DB
:1042C0000000B3F1004F40F2FD7308BF22F001027D
:1042D0009D4209D844EA0003104603EB0551BDE8AE
:1042E000F083A5F2FF35E8E7002D03DB44F0FF443F
:1042F00044F4E00400202146F1E7A6D00020024962
:10430000EDE700BF0000F07F0000F87F2DE9F041ED
:10431000C1F30A5E8C461E4640F2FF7883EA01052F
:10432000BEF1000F11D14900700010F5001F18D820
:10433000414A46EA0C03134213D01CEA020305F07B
:10434000004565D12946184657E0C64504D0C3F359
:104350000A570FB1474506D14FEA4C0111F5001F2E
:10436000E2D9002065E0430D43EAC123510DC002AC
:1043700041EAC621D202904243F0004341F000419D
:1043800073EB01064FF0350C4FF00006AEEB07075C
:1043900028BF40084FEA520228BF40EAC37042EAF1
:1043A000C17232BF07F2FD375B0807F2FE374908DA
:1043B000904273EB010E4FEA460604D3801A63EB7A
:1043C000010346F0010600185B41BCF1210F08BF54
:1043D0003446BCF1010CEBD1904273EB010102D3E6
:1043E000013608BF013440F2FD739F4205F00045DD
:1043F00005D8304605EB07552919BDE8F0810020A6
:10440000002FA4BF45F0FF4545F4E0052946F4E739
:1044100016EA020302D145EA020194E710F5001FF3
:104420004FF0000002D045EA0201E6E711F5001F57
:10443000ECD10249E1E700BF0000F07F0000F87F07
:10444000F0B5174693EA01020E4605469E4607D58B
:1044500003F100453A462B46BDE8F04000F0CAB8EB
:104460008B4203D8874209D38B4207D102F1004225
:1044700056408EEA020E2A463D46174640F2FF7C21
:10448000C6F30A524FEA1E5062454FEA1654C0EB7B
:10449000165104D1330300F0A1800020A2E0914224
:1044A00004D1002900F0A080314689E0C6F3130250
:1044B000CEF313031F2942F4801243F4801350D823
:1044C000203023FA01FC001BA2EB0C0227FA01FCAE
:1044D00003FA00F141EA0C01691A38BF02F1FF3218
:1044E00017FA00F30D4603D05B424D1E01B9013AA5
:1044F00012F4C01F51D1E90FDB0F41EA420243EA37
:10450000450352EA03016FD0023C510B23D0510CFA
:1045100001BF190F41EA02121B01043CD10C01BF7B
:10452000990F41EA82029B00023C110D02BFD90F94
:1045300041EA420204F1FF344FEAD67108BF5B0042
:10454000B1EBD42F4FF0000006BF184602EB045128
:1045500006F00041F0BD190E41EA02221B02083CA0
:10456000D3E7352919D8203923FA01F0281AC1F1E7
:10457000200638BF02F1FF3227FA01F1B3403F06AF
:10458000054643EA010306D043F0FF035B42451EA4
:1045900018B9013A01E0002BF8D1D10209D4013C4D
:1045A00066050FD0E90F41EA4202D90F41EA4505FD
:1045B0005B00002B22F480124FEA045405DB111932
:1045C0002846C7E730462105C4E7013508BF013258
:1045D000B3F1004F08BF25F00105F0E700200029E6
:1045E0007FF462AF0249B5E700200021B2E700BFC7
:1045F0000000F87FF0B51E4696EA010F1C468E4675
:104600000746134606D506F100452B46BDE8F040A7
:10461000FFF716BF8E429CBF0E46A64640F2FF7CB7
:1046200098BF1746C6F30A5298BF03464FEA1E5179
:1046300062454FEA1650C1EB165404D1320306D03E
:104640000020314936E0944203D1002C58D0314645
:1046500054E0C6F3130CCEF313021F2C4CF4801558
:1046600042F4801227D82031091A22FA04FC27FAD2
:1046700004F48A4022439A186544134628BF013542
:1046800007FA01F2A9022BD5013308BF01350AB997
:1046900023F002036FF3130606EB5506720012F5C2
:1046A000001F2BBF431C31460020ED0734BF45EAF5
:1046B00053001905F0BD352CE4D8203C22FA04F152
:1046C00059180B46C4F1200102FA01F227FA04F44A
:1046D00028BF013522433F0618BF42F0FF02D1E751
:1046E000002A00F1FF3407DA013308BF0135B2F1C7
:1046F000004F08BF23F0010305EB04511846D9E72A
:10470000204606F00041D5E70000F87F30B521F0E3
:10471000004505F1474404F57004B4F17E6F01F0E3
:10472000004210D2410F05F14845C400C0F30073A8
:1047300041EAC5010B44B4F1004F08BF23F0010367
:1047400043EA020030BD002C01DA1046FAE74B00C4
:1047500013F5001F8CBF024842F0FF40F2E700BF94
:104760000000C07F18200149ABBE70472600020040
:1047700008B5FBF76EFD08BD08B5FBF76AFD08BD7F
:1047800008B5FBF766FD08BD08B5FBF762FD08BD7F
:1047900008B5FBF75EFD08BD08B5FBF75AFD08BD7F
:1047A00008B5FBF756FD08BD08B5FBF752FD08BD7F
:1047B00008B5FBF74EFD08BD08B5FBF74AFD08BD7F
:1047C00008B5FBF746FD08BD08B5FBF742FD08BD7F
:1047D00008B5FBF73EFD08BD08B5FBF73AFD08BD7F
:1047E00008B5FBF736FD08BD08B5FBF732FD08BD7F
:1047F00008B5FBF72EFD08BD08B5FBF72AFD08BD7F
:1048000008B5FBF726FD08BD08B5FBF722FD08BD7E
:1048100008B5FBF71EFD08BD08B5FBF71AFD08BD7E
:1048200008B5FBF716FD08BD08B5FBF712FD08BD7E
:1048300008B5FBF70EFD08BD08B5FBF70AFD08BD7E
:1048400008B5FBF706FD08BD08B5FBF702FD08BD7E
:1048500008B5FBF7FEFC08BD08B5FBF7FAFC08BD80
:1048600008B5FBF7F6FC08BD08B5FBF7F2FC08BD80
:1048700008B5FBF7EEFC08BD08B5FBF7EAFC08BD80
:1048800008B5FBF7E6FC08BD08B5FBF7E2FC08BD80
:1048900008B5FBF7DEFC08BD08B5FBF7DAFC08BD80
:1048A00008B5FBF7D6FC08BD08B5FBF7D2FC08BD80
:1048B00008B5FBF7CEFC08BD08B5FBF7CAFC08BD80
:1048C00008B5FBF7C6FC08BD08B5FBF7C2FC08BD80
:1048D00008B5FBF7BEFC08BD08B5FBF7BAFC08BD80
:1048E00008B5FBF7B6FC08BD08B5FBF7B2FC08BD80
:1048F00008B5FBF7AEFC08BD08B5FBF7AAFC08BD80
:1049000008B5FBF7A6FC08BD08B5FBF7A2FC08BD7F
:1049100008B5FBF79EFC08BD08B5FBF79AFC08BD7F
:1049200008B5FBF796FC08BD08B5FBF792FC08BD7F
:1049300008B5FBF78EFC08BD08B5FBF78AFC08BD7F
:1049400008B5FBF786FC08BD08B5FBF782FC08BD7F
:1049500008B5FBF77EFC08BD08B5FBF77AFC08BD7F
:1049600008B5FBF776FC08BD08B5FBF772FC08BD7F
:1049700008B5FBF76EFC08BD08B5FBF76AFC08BD7F
:1049800008B5FBF766FC08BD08B5FBF762FC08BD7F
:1049900008B5FBF75EFC08BD08B5FBF75AFC08BD7F
:1049A00008B5FBF756FC08BD08B5FBF752FC08BD7F
:1049B00008B5FBF74EFC08BD80B584B000AF786049
:1049C00039607B681B68FB60FB68002B17D0396877
:1049D000F86800F000FA0246FB681344BB60BB684D
:1049E0001B78002B08D0BB685A1CBA6000221A70D2
:1049F0007B68BA681A6002E07B6800221A60FB6874
:104A000018461037BD4680BDB0B586B002AFF8601D
:104A1000B9607A60BB68D3E900017B68D3E90045DF
:104A2000BB68D3E90223CDE9002322462B46FBF7DE
:104A300013FC02460B46F968C1E90023BB68D3E9C1
:104A400002017B68D3E90223FBF76EFC02460B46AA
:104A5000F968C1E90223BB68D3E900017B68D3E9A7
:104A6000002300F014F803461A46FB685A74BB682A
:104A7000D3E902017B68D3E9022300F01FF8034663
:104A80001A46FB681A7400BF1037BD46B0BD80B52A
:104A900084B000AFC7E90201C7E90023D7E90223C8
:104AA000D7E9000100F09EFC0346002B01D045230E
:104AB00000E0572318461037BD4680BD80B584B04E
:104AC00000AFC7E90201C7E90023D7E90223D7E90C
:104AD000000100F087FC0346002B01D04E2300E0CC
:104AE000532318461037BD4680BD80B485B000AF53
:104AF000F860B9607A607B685A1E7B681340002BAF
:104B000000D0FEE7FB68BA681A60FB6800225A60B2
:104B1000FB6800229A60FB680022DA60FB687A6812
:104B20001A617B685A1EFB685A6100BF1437BD4684
:104B300080BC704780B487B000AF78600B46FB70D4
:104B40007B68DA687B681B699A4222D2EFF3108394
:104B5000FB60FB687B6172B600BF7B685B685A1CB8
:104B60007B685B691A407B685A607B681A687B685F
:104B70005B681344FA781A707B68DB685A1C7B68A0
:104B8000DA607B693B613B6983F3108800BF0123D6
:104B900000E0002318461C37BD4680BC704780B437
:104BA00087B000AF786039607B68DB68002B23D06A
:104BB000EFF31083FB60FB687B6172B600BF7B681C
:104BC0009B685A1C7B685B691A407B689A607B68AB
:104BD0001A687B689B6813441A783B681A707B6874
:104BE000DB685A1E7B68DA607B693B613B6983F353
:104BF000108800BF012300E0002318461C37BD4683
:104C000080BC704780B483B000AF78607B68DB689D
:104C100018460C37BD4680BC704780B586B000AFE3
:104C2000F860B9607A60BB68002B02D14FF0FF33A7
:104C30001AE0FB68012B05D0FB68022B02D04FF075
:104C4000FF3311E000237B6109E0BA687B691344FC
:104C50001B781846FDF796FD7B6901337B617B6805
:104C60007A699A42F1D37B6818461837BD4680BDF1
:104C700080B500AFFDF7A6FD0346184680BD0420B1
:104C80007146084202D0EFF3098001E0EFF308809B
:104C900081690A884BF6AB639A4200D0FEE7023185
:104CA00081610168012901D0002100E0202101601B
:104CB000704700BF80B400AF00BFBD4680BC7047E6
:104CC00008B5FEF76BF8BDE80840FDF7F7BE38B54C
:104CD0000022002304460D4600F059FB10B105F1F7
:104CE00000431D462046294638BD10B5425C431896
:104CF000342A01DC002010BD352A06D1194611F8EE
:104D0000012F302AFBD0002AF4D01A46302412F8A2
:104D1000011D392901D11470F9E7013111700278B0
:104D2000302AE7D01A1A002A01DA0120E3E713F843
:104D300001299A70F6E730B50A258C1F034690FBCF
:104D4000F5F0C0EB4012C0EB8202303303EB4203BC
:104D500001F80139A142F1D130BD0EB430B590B0A7
:104D600013AB53F8045B04463C22002101A80093D6
:104D700000F0BEF809232046CDE90434019400F088
:104D800039F829460290009A01A8FCF70DFB10B0F3
:104D9000BDE8304003B0704770B5C468A50708D0BF
:104DA000B2F5007F11D0B2F5806F04D0B2F5807FEC
:104DB0000BD0012008E0012300F12401144301611C
:104DC0000160C361C460002070BD6FF07F455E1E4E
:104DD000AE42F3D3EDE7024670B5134612F8016B0D
:104DE00036B14D1E15F8014F002CF6D0B442F9D162
:104DF000181A70BD034610B59A071C4615D12346F4
:104E000054F8042BA2F1013121EA020111F0803F94
:104E1000F5D0D1B299B112F47F4F0ED012F47F0FBA
:104E200014BF23460333013003E01A4612F8011B76
:104E300009B9181A10BD1346DEE70233F3E7013350
:104E4000F1E730B50446257823460134002DFAD128
:104E50001A44934202D100221A7005E011F8014B66
:104E600003F8014B002CF4D130BD03460843800702
:104E700070B512D11D460E46032A31462B460CD979
:104E800055F8040B0C680436844206D1A4F10130B5
:104E900020EA040010F0803F01D01A440BE0043AED
:104EA000EAE713F8010B11F8014BA04201D0001BF7
:104EB00070BD0028FCD09342F3D10020F8E7431CDA
:104EC00015D0CB6813F402220FD123F4012323F071
:104ED000400343F40123CB608B6881F825008B638A
:104EE0004B68C1E901224B6370474FF0FF307047B8
:104EF00000F0FABA38B50D46044608B9012A05D0C3
:104F000029462046BDE8384000F019BBFFF7B0FE47
:104F10002870204638BDC36810B523F0200382698D
:104F2000C360836A04469A420ED000F0DBF8E3685F
:104F300023F4405323F0100343F01003E360A36A0B
:104F4000A3612369E3622360E36823F4804323F0D1
:104F50004003E36010BDCB6870B523F400229E06C9
:104F600005460C46CA6002D50846FFF7D4FFD4E9CF
:104F70000236581C10DAB1050ED4C3F1FF2303F535
:104F80007F03FE33A360236846F490365A1CE66024
:104F900022601D70E8B270BD41F28A023240022ADE
:104FA00007D0002346F08006A360E6604FF0FF3094
:104FB000F1E74AF210033340B3F5004F0AD1002164
:104FC0002046FFF739F8E3689A0602D52046FFF736
:104FD000A2FFE66846F4903316F4706FE36010D1D8
:104FE000606900F0A6FA4FF48070FEF7F7FF4FF407
:104FF0008073E268E36146F494331A4320612060D1
:10500000E26013F4106F2268266917D0E36A9A42AF
:105010002CBFC6EB0201C6EB030141B9731CE3626E
:105020002360E3695A1EA26023633570B2E722460B
:105030003046FEF739FF0028F0D0B7E7511CEDB23B
:1050400021601570E26A206890422CBFC6EB000117
:10505000C6EB0201E2695B05226303D40A2D01D08D
:105060008A4209DC002322463046E6622660A360BD
:10507000FEF71AFF002899D128468CE770B50D4637
:1050800006461046144600F09BF82B78722B17D07A
:10509000772B18D0612B23D1082348F2020215F890
:1050A000011F2B2912D0622915D01B07E26066610F
:1050B00004D5022200212046FEF7BEFF204670BD27
:1050C00000230122EBE704230222E8E742F0030277
:1050D00043F00203E3E742F0040243F00103DEE79A
:1050E0000024EBE738B50446C36805690168C26A65
:1050F00023F40020E06003F08200022802D04FF089
:10510000FF3038BDDB030CD5914238BF11468D42CC
:1051100009D10023A360E368E56223F480332560AE
:10512000E3600020EDE722462846491BFEF7BCFE5F
:105130000028EED0E3E770B50023164600220446AF
:105140000D4600F00CF920B100230020002133604F
:1051500070BDC5F30A5320462946A3F2FE328BB92F
:10516000C5F3130CE30F43EA4C03BCF5002FC3F364
:1051700013034FEA440402D29C46013AF2E7204668
:1051800063F3130140F2FE33326063F31E51DFE735
:10519000A8B14FF0805340F80C3C50F8042C72B189
:1051A0001368B3F1805F0AD150F8083C51680333AB
:1051B0000B4440F8083C936840F8043CEDE7704726
:1051C000F0B5D0E90467C5680446A90789B020D0C6
:1051D0002A0716D4FEF712FF384600F09EF92B0579
:1051E00002D53046FFF7D4FF6FF3150515F1A54F33
:1051F00007D120226846216A00F0B3F9684600F022
:1052000038F83C2200212046FFF772FE002009B04A
:10521000F0BD4FF0FF30FAE770B5002316460022CC
:1052200004460D4600F09BF820B100230020002129
:10523000336070BDC5F30A5320462946A3F2FE32FF
:105240008BB9C5F3130CE30F43EA4C03BCF5002FF5
:10525000C3F313034FEA440402D29C46013AF2E737
:10526000204663F3130140F2FE33326063F31E51B4
:10527000DFE710B50446FFF7BDFD01462046BDE857
:10528000104000F062B9C36870B513F0030604461D
:1052900011D09B0611D5856AFFF73DFEE3682046D5
:1052A00023F44053E360FFF71DFF00220646294622
:1052B0002046FEF7C1FE304670BD836905681D4477
:1052C0000369ED1AEAE70246C80240EA525040F28A
:1052D0001E42A2EB115240F00040FF2A20FA02F0D9
:1052E00011D912F4E06F01D14042704711F08040B3
:1052F00009D04A0012F5001F04D86FF0004000EBFF
:10530000D170704700207047F0B1030C0CBF00044F
:1053100001F18071030E0CBF000201F50001030FC3
:105320000CBF000101F58001830F0CBF800001F567
:1053300000110028ACBF400001F5801101EBE02313
:10534000420510461946704700200021704710F0B2
:10535000004118BF404201F18041FFF7D5BF30B591
:105360001D460C464B0040EA4501114351EA4401F9
:1053700009D0AC4209D1904207D113F5001F8CBF70
:105380000020012030BD0120FCE70020FAE730B505
:105390000D461C4655EA040301460BD4630013F581
:1053A000001F1DD8A54219D31AD190422CBF00204E
:1053B000012030BD680010F5001F11D8630013F5FF
:1053C000001F0DD80B4313431843F2D0A54205D854
:1053D00006D1914294BF00200120EAE70120E8E7CE
:1053E0000020E6E730B50D461C4655EA04030146A9
:1053F0004FEA45000AD410F5001F1CD8A54218D862
:1054000019D1914294BF0020012030BD10F5001F3A
:1054100011D8630013F5001F0DD80B431343184335
:10542000F3D0A54205D306D191422CBF0020012024
:10543000EBE70120E9E70020E7E730B50C46194625
:1054400054EA01030BD44B0013F5001F1BD88C4208
:105450001BD318D190428CBF0020012030BD6500C5
:1054600015F5001F0FD84B0013F5001F0BD88C4209
:105470000BD801D1904208D2034313432B430CBFF6
:1054800001200020EAE70020E8E70120E6E730B548
:105490000C46194654EA01034FEA44050AD415F5AF
:1054A000001F1DD88C421DD81AD1904234BF002055
:1054B000012030BD15F5001F12D84B0013F5001F59
:1054C0000ED88C420ED304D190428CBF0020012014
:1054D000EFE7034313432B430CBF01200020E8E711
:1054E0000020E6E70120E4E7034613F0030F0ED1A6
:1054F00001F0FF0141EA012141EA0141043A24BFE0
:1055000043F8041BB2F10402F9D202F10402013A99
:1055100024BF03F8011BFAE7704703B46946022071
:10552000ABBE02B0704703B469460C20ABBE02B0FC
:10553000704703B469460920ABBE02B070470FB490
:1055400069460620ABBE04B0704703B469460E201E
:10555000ABBE02B0704703B469460A20ABBE02B0CE
:1055600070470FB469460D20ABBE04B07047FFFF13
:1055700000009C17239C8EBC000050896510713C74
:10558000000070B0467C6C3C000004EE771574BCE3
:10559000000046054C32863C0000F01109DA7A3CE6
:1055A0000000C8B677B0893C0000DC4A2EA6883CD3
:1055B000000000000000F03FDA90A4A2AFA4EE3F8C
:1055C00087A4FBDC1858ED3F9C5285DD9B19EC3F0E
:1055D000ADD35A999FE8EA3F90F0A38291C4E93F86
:1055E000DBA02A42E5ACE83F8701EB7314A1E73F5B
:1055F000CD3B7F669EA0E63F295448DD07ABE53FE3
:10560000272A36D5DABFE43F2234124CA6DEE33F28
:1056100015B7310AFE06E33F3862756E7A38E23F0D
:105620007B517D3CB872E13F0F89F96C58B5E03F82
:10563000000000000000E03F24474E4747410000C3
:105640002C00000047414D4520574F4E21000000DF
:1056500048444F503A20252E326C660D0A00000057
:1056600064697374616E63653A20252E326C66003E
:10567000537563636573730070726F78696D6974D5
:10568000793A20252E326C6600FFFFFF03000000F0
:105690002B0020002D0030782563702564003058E1
:1056A000256350256400307825632E252E2A6C6CE6
:1056B0007870256400305825632E252E2A6C6C588E
:1056C0005025640072007700286E756C6C290030DC
:1056D00058003078003000303132333435363738C6
:1056E0003941424344454600303132333435363750
:1056F000383961626364656600256C66256E002A30
:105700002A2A205F437379735F616C6C6F63206634
:1057100061696C65640A0000000000000000000080
:105720000000000000000000000000000000000079
:105730000000000000000000000000000000000069
:105740000000000000000000000000000000000059
:105750000000000000000000000000000000000049
:105760000000000000000000000000000000000039
:105770000000000000000000000000000000000029
:105780000000000000000000000000000000000019
:1057900000000000000000404040404040404040C9
:1057A00041414141414040404040404040404040F4
:1057B0004040404040404005020202020202020214
:1057C00002020202020202202020202020202020AB
:1057D000200202020202020290909090909010101B
:1057E00010101010101010101010101010101010B9
:1057F000101002020202020288888888888808083D
:105800000808080808080808080808080808080818
:105810000808020202024000000000000000000030
:105820000000000000000000000000000000000078
:105830000000000000000000000000000000000068
:105840000000000000000000000000000000000058
:105850000000000000000000000000000000000048
:105860000000000000000000000000000000000038
:105870000000000000000000000000000000000028
:105880000000000000000000000000000000000018
:0858900000000000000000FF11
:0C58980064000000000080FF0000807F22
:04000003000001A94F
:00000001FF
