:1000000000600020A90100003F020000B37E000054
:1000100043020000450200004702000049020000C0
:100020000000000000000000000000004B02000083
:100030004D020000000000004F020000E1450000FA
:100040001962000021620000296200003162000094
:100050003962000041620000496200005162000004
:100060005962000061620000696200007162000074
:1000700079620000816200008962000091620000E4
:1000800099620000A1620000A9620000B162000054
:10009000B9620000C1620000C9620000D1620000C4
:1000A000D9620000E1620000E9620000F162000034
:1000B000F962000001630000096300009D41000037
:1000C00011630000ED43000019630000216300008C
:1000D00029630000316300003963000041630000C0
:1000E0004963000051630000596300006163000030
:1000F00069630000716300007963000081630000A0
:10010000896300009163000099630000A16300000F
:10011000A9630000B1630000B9630000C16300007F
:10012000C9630000D1630000D9630000E1630000EF
:10013000E9630000F1630000F9630000016400005E
:1001400009640000116400001964000021640000CB
:10015000296400003164000039640000416400003B
:10016000496400005164000059640000508C000094
:100170000000002010000000508C0000000000046F
:1001800000000000508C000000200004000000006F
:10019000100000208C090000000000040000000096
:1001A000002000040000000072B6134B134A1748E9
:1001B0000360196881F3088882F30A8804F01EFA44
:1001C0000F4B07E003F10C049A685968186800F0B7
:1001D0001FF823460B4A9342F4D306E01C465968A5
:1001E00054F8080B00F022F82346074A9342F5D34F
:1001F00062B607F07FFEFEE700000000005A002014
:100200006C01000090010000A801000008ED00E072
:100210000023934209D210B450F8044B41F8044B28
:1002200004339342F8D310BC70477047002303E0B7
:10023000002240F8042B04338B42F9D37047FEE7C9
:10024000FEE7FEE7FEE7FEE7FEE7FEE7FEE7FEE786
:10025000FEE7FEE7FFFFFFFFB0B588B000AFC7E9DC
:100260000201C7E90023D7E90223D7E9000105F01D
:100270003BFE02460B461046194607F046FEC7E90C
:10028000060123A3D3E90023D7E9060105F014FDF5
:1002900002460B46104619464FF00002204B05F06F
:1002A00089FD02460B46104619461BA3D3E90023DD
:1002B00005F002FD02460B4614461D4614A3D3E981
:1002C0000023D7E90C0105F0F7FC02460B46104667
:1002D00019464FF00002124B05F06CFD02460B462A
:1002E0001046194600F068F802460B46204629469B
:1002F00005F0E2FC02460B46C7E90423D7E90423D4
:10030000104619462037BD46B0BD00BFAFF3008090
:100310007A008BFCFA21094000000000AE4D5841E4
:1003200000806640FFFFFFFF80B588B000AFC7E9DF
:100330000201C7E90023D7E90223D7E9000105F04C
:10034000D3FD02460B461046194607F0DEFDC7E90D
:10035000060113A3D3E90023D7E9060105F0ACFC9D
:1003600002460B46104619464FF00002104B05F0AE
:1003700021FD02460B46104619460BA3D3E9002384
:1003800005F09AFC02460B46C7E90423D7E904238B
:10039000104619462037BD4680BD00BFAFF3008030
:1003A0007A008BFCFA21094000000000AE4D584154
:1003B00000806640FFFFFFFFF7B5002300220446E0
:1003C0000D4608F02DF9A0B111A1D1E90001224696
:1003D0002B4605F089FD012306460F46CDE9003383
:1003E000204632463B4605F1004101F09DFC03B03A
:1003F000F0BD07A3D3E900232046294605F04EFEB1
:1004000001230246CDE9003320460B462946ECE79E
:10041000182D4454FB21F93F2DE9F04F9DB01446AF
:100420000693D1E90023CDE90423059B8246089376
:1004300047F6F073089ADDF89C9033EA124320D116
:100440000023E370C2F31303049A134340F0A8841B
:10045000089B002BC0F2AA84069B98070FD4A84AD9
:1004600013F0040FA74B18BF134669226E206621B4
:100470002270269A6070A1700325136039E3A24BA5
:10048000F3E720F02003412B00F0F082DDE90401C6
:100490000022002308F0C4F80546002834D0DDE926
:1004A000040303F1004101230FAA079307F08CFF17
:1004B00040F22D15CDE910014FF47A710F9A00200A
:1004C0005543A5F5AB531C3B93FBF1FB8F49ABEBBD
:1004D000020205F019FA41F294139D42CDE91A0186
:1004E0001FDC81A3D3E90023CDE91623CBF100055E
:1004F000E9071FD4DDE91601DDE9162305F0DCFB71
:100500006D10CDE91601F3E70023DDE904010022B7
:1005100008F06EF80346002840F0A282DDE90401ED
:10052000C2E700227A4BCDE91623BBF1000F0BD0B6
:100530005D46DDE7DDE91601DDE91A2305F0BCFBC8
:10054000012DCDE91A01D5D1DDE91001DDE91A232C
:1005500005F030FC0026CDE912016E4FDDE91201F5
:1005600063A3D3E9002308F05BF8002840F09380F0
:100570000026684FDDE912015FA3D3E9002308F0EC
:10058000CFF8002840F09A80DDE9120107F0E4FF7F
:1005900005468BEAEB73A3EBEB7309930F9A28469E
:1005A000ABEB020608F01CF8324605F0ADF900226C
:1005B0000023BBF1000FCDE91201CDE9142380F235
:1005C000AB8049A1D1E90001CDE91601CDE918239D
:1005D000DDE91667DDE916010026DDE91823CDE91E
:1005E0000A2332463B4605F07FFCDDE90A2305F08D
:1005F00055FDCDE91801CDE91667DDE916010022A8
:10060000434B05F059FB02460B4600203F4905F0DD
:100610006BFC00223E4B05F0CDFBCDE91801DDF867
:10062000248018F0010F40F08E80DDE91623DDE90B
:100630001801DDE91867CDE90A011046194605F0F1
:100640002DFDDDE90A2305F029FD32463B4605F084
:1006500033FBCDE91801DDE91601DDE9162305F0CC
:100660002BFBCDE91601DDE91667DDE91601002651
:10067000DDE91823CDE90A2332463B4605F034FC78
:10068000DDE90A2305F00AFD4FEA6808CDE9180103
:10069000CDE91667C5E7DDE9120132463B4605F0B4
:1006A0000BFBCDE91201DDE91A0132463B4605F0AC
:1006B00081FB0BF1FF3BCDE91A014FE7DDE91201A8
:1006C00032463B4605F076FBCDE91201DDE91A0121
:1006D00032463B4605F0F0FA0BF1010BCDE91A0169
:1006E00048E700BFAFF300809A9999999999C93F5B
:1006F00000000000006AF8400000000080842E41E5
:100700004A8A0000CE8A0000488A00000000F03FBC
:1007100000001440000024404FF00002B64BCDE929
:1007200016234FF000024FF00003CDE918237FF4A9
:1007300076AFDDE91201DDE9102307F0C7FF0028DD
:1007400047D1013D2AE7DDE91223CDE90A23DDE99E
:100750001823DDE91601CDE90C23DDE91823DDE9D5
:10076000146705F09BFC32463B4605F0A5FADDE92F
:100770000C2306460F46DDE90A0105F09DFA024604
:100780000B463046394605F089FCCDE91401DDE918
:100790001601DDE9122305F08FFACDE91201DDE93A
:1007A0001267DDE912010026DDE91423CDE90A23F1
:1007B00032463B4605F098FBDDE90A2305F06EFC66
:1007C000B8F1010FCDE91401CDE912677FF42DAF27
:1007D000AFE7DDE91223DDE9100105F085FBCDE986
:1007E0001001DDE91423DDE9100105F07DFBCDE901
:1007F0001001DDE91A23DDE9100105F0DBFA7CA325
:10080000D3E90023CDE91001DDE9100105F054FA28
:10081000CDE91001DDE9100107F09EFEDDE910676A
:10082000804607F0DDFE02460B463046394605F0AD
:100830005BFB6FA3D3E9002305F03EFACDE910017D
:10084000DDE9100107F088FE0646002EC0F2C280E6
:100850006A4B9E4200F3C580B8F1000FC0F2DA8007
:10086000664B984500F3DC80654A954200F3DE80D4
:10087000644B0A21B8FBF3F2B6FBF3F3624801FBC9
:10088000052500FB028201FB023800FB036301FB2C
:1008900003F60BF1FF3B21463027284601F8067B83
:1008A00007F067FB404604F10C0107F062FB30469D
:1008B00004F1120107F05DFB00232375079B0BF188
:1008C000050BE77443EA8B0B002B40F0D480069BAA
:1008D0009A0700F1CE804D4A13F0040F4C4B18BF1D
:1008E00013463BF0010B269A48BF0BF1030BBAF1FC
:1008F000670FD9F8001013604FEAAB0B0EDCBAF1AA
:10090000600F00F3BA80BAF1450F00F0C881BAF168
:10091000470F05D0BAF1410F00F0C6804FF0670ACB
:10092000069B002943F400630693DCBF0123C9F84A
:100930000030D9F8001020461129A8BF112101313B
:1009400007F0F1FAD9F8003083445B4540F3A28107
:100950001BF1040FC0F29E810BF101029B1AC9F832
:100960000030069ABBF1000FD9F8003002F400669F
:1009700080F21481CBF100075A1CBA4280F2D78072
:10098000302323702E2302256370D9F80030299A72
:100990001360299B1B68002B02DD3E236355013544
:1009A000069B03F00803002E00F05B81002B40F053
:1009B000A080254415F8013C6A1E302B00F04F81C1
:1009C0003E2B00F04C812E2BA5EB040540F09180CE
:1009D000013D8EE006F5742606F5107608F1FF3825
:1009E00033E7A6F57426A6F5107608F1010830E77E
:1009F0000000000080842E41000014403F420F00A0
:100A00009F860100A08601006079FEFF4A8A0000EF
:100A1000CE8A000008F5742808F51078013D1BE720
:100A2000A8F57428A8F5107801351AE79D427FF7DC
:100A300032AF0A226FF0090795FBF2F107FB015371
:100A40008B480D4600FB038393FBF2F807FB08334A
:100A500000FB0363053393FBF2F60BF1010B1AE77E
:100A60006FF0040B2E46A846079514E74FF0000BD5
:100A70002DE7804B35E7804B33E7AAF16103062B66
:100A80003FF64CAF01A252F823F000BFA90A0000C4
:100A90001D0900001D0900001D0900009F0C000039
:100AA0006309000021090000089B049DC3F30A525A
:100AB000C3F313000AB3A2F2FF33069E06F0080642
:100AC0000E4320D16D486E49002A14BF31223022D6
:100AD000BAF1610F18BF0146204603F01FFE694AB4
:100AE0000599654B054613EA210338BF1346269A3C
:100AF000136028461DB0BDE8F08F55EA00030CBF17
:100B00001346614BD9E7CDE9005002935F480B468D
:100B10005F49002A14BF31223022BAF1610F18BF99
:100B20000146204603F0FAFDD9E71546EBE05B44A9
:100B30009D1C122DC1BF299A113B1325136076B954
:100B40002946204607F0EFF948B17FEA0B0705F187
:100B5000010504D1637823702E23637019E7012FF8
:100B600004EB05030CD11A1B002A02DC30230135EB
:100B7000F1E713F801299A70F5E713F80129DA7003
:100B80001A1B002AF9DC302323702E2363703C23C8
:100B9000A370289B013F02351F60FAE60BEB0307A9
:100BA000BD1C122D45DD26B91321204607F0BBF9E7
:100BB000E0B91323132B0CBF122213225A4519DD5F
:100BC000621E04EB0B01907802F8010F9142FAD1FA
:100BD0002E224A70D9F8002029995A44113A0A6005
:100BE000002A3AD03E225D1CE254D9E614230BF1D0
:100BF000010BDFE7621CE11812F8010B914202F8C9
:100C0000020CF9D13C22ABEB030B01F8012C289923
:100C10000BF102020A602E22E254D9F800205D1C7A
:100C2000002A3FF4BDAE29990A603E2262559D1C00
:100C3000B6E63EB92946204607F075F910B10BF12A
:100C4000010BFD1C631EA3449A7803F8012F9B45FA
:100C5000FAD12E238BF80130A2E61D46A0E61546F8
:100C6000A8E6D9F8002013437FF443AFB0E600BFF5
:100C700040420F00488A00004C8A0000568A00005B
:100C80004E8A0000CE8A000001FCFFFF6D8A000042
:100C90005E8A0000013BC9F80030AAF1020AD9F8C7
:100CA0000030112B05DD299A113B13601123C9F87F
:100CB0000030069BD9F8005013F4006605F10205D8
:100CC00004D12946204607F02EF983446378237027
:100CD000069BD9F8002023F4FE6323F007031B05CD
:100CE0001B0D13431CBF2E236370299B08BF0125D6
:100CF0001B68002BC2BF3E23635501358EB1069B96
:100D00001B070ED4254415F8013C6A1E302B3FF416
:100D10000CAF3E2B3FF409AF2D1B2E2B08BF05F166
:100D2000FF35BBF1000FB6BF2D222B22CBF1000BFC
:100D300060195FFA8AF6691CBBF57A7F067005F1C7
:100D4000020362540ADB4FF47A72BBFBF2F202F147
:100D50003001E154184B03FB02BBEB1CBBF1630FEA
:100D60000ADD64229BFBF2F202F13001E1546FF0E4
:100D7000630101FB02BB01330A229BFBF2F2D2B2F8
:100D800002F13001E154C2EB4211C2EB81020BF1DE
:100D9000300B9D1C0BEB420B234483F801B0A8E6FB
:100DA0006E2261201146054BFFF762BB69226E205F
:100DB0006621034BFFF75CBB18FCFFFFCE8A0000E7
:100DC0004C8A0000FFFFFFFF2DE9F04F92469B4643
:100DD00004460D468BB00022504659463A4B07F068
:100DE00007FC28BB002200232046294607F06EFCA2
:100DF00000285FD0002200232046294607F0F8FB98
:100E00000022D0B100235046594607F05FFC00286D
:100E100000F09A8121222D4B50461A60594600223B
:100E2000002307F0E5FB002840F04A820024284D0B
:100E3000204629460BB0BDE8F08F50465946254B59
:100E400007F0EEFB98B91CA3D3E90023504659469E
:100E500007F011FC58B95946504607F07DFB06468D
:100E600007F0BEFB52465B4607F0C2FB18B92122D1
:100E7000164B1A60DAE705F100431D4606F0010340
:100E8000019300224FF080435046594607F0B0FBD3
:100E900010B30BA3D3E900232046294607F0C0FB7B
:100EA000D0B122462B462046294604F005FF0446D1
:100EB0000D46BDE70190E4E70000C0FFFFFFDF4102
:100EC000408CB5781DAF15440000F03FD4080020D9
:100ED0000000F0FF0000E0C12046294609AA07F003
:100EE000E4FA9BA3D3E900230F46064607F0EEFB86
:100EF000041E18BF0124A24DE40004F1040805EB10
:100F0000C8013246D1E900013B4607F009FC002840
:100F100008BFA04608F1020405EBC4013246D1E93E
:100F200000013B4607F0FCFB002808BF444605EBE8
:100F3000C405D5E90289304642464B46394604F09D
:100F4000D3FF904B621003EBC203D3E9002304F0FC
:100F5000CBFF0022CDE902018B4B3046394604F02D
:100F6000ABFE002206460F4640464946864B04F03B
:100F7000A3FE02460B463046394605F08FF802467E
:100F80000B46DDE9020104F015FF02460B468046E0
:100F9000894604F091FE70A3D3E9002306460F466C
:100FA00004F08AFE6EA3D3E9002305F077F83246F9
:100FB0003B4604F081FE6CA3D3E9002305F06EF8F4
:100FC00032463B4604F078FE69A3D3E9002305F0DE
:100FD00065F832463B4604F06FFE42464B4604F04D
:100FE0006BFE65A3D3E9002306460F4604F064FEBA
:100FF000099BCDE90601C4EB0310013807F0F0FAB4
:101000000022624B04F058FE0022614BCDE9020140
:101010005046594604F050FE07F09EFA07F0E0FAF9
:1010200000225A4B04F048FE53A3D3E90023CDE934
:1010300004014046494604F03FFE324604460D4650
:10104000DDE906013B4605F029F802460B4620463D
:10105000294605F023F842464B4605F01FF8524654
:101060005B4604F029FEDDE9042304460D465046A4
:10107000594604F039FFDDE9022304F01DFE024663
:101080000B462046294605F009F80022404B04464D
:101090000D4604F011FE07F05FFA07F0A1FA0022F6
:1010A0003A4B04F009FE06460F4602460B46204620
:1010B000294604F019FFDDE9042304460D46DDE965
:1010C000020104F0F9FD32463B4604F0E7FF00223E
:1010D0002F4B8046894604F0EFFD07F03DFA07F0FC
:1010E0007FFA0022294B04F0E7FD064602460B4634
:1010F0000F464046494604F0F7FE22462B4604F0D0
:10110000CDFF0022224B8046894604F0D5FD07F032
:1011100023FA07F065FA00221C4B04F0CDFD0246CD
:101120000B4604460D463046394604F0B7FF184BCF
:10113000002204F0C1FD07F00FFA164B0646984254
:101140002CDA2222144B1A600024002570E600BF1E
:10115000CD3B7F669EA0E63F28FC4ADBFD783C3F06
:10116000AC8D272E2449623F0E089E999999893F9C
:101170004D5555555555B53FF80BAE941D55DC3FB3
:1011800078880000388800000000E03F0000B03F91
:101190000000304020C0FFFFD408002022462B462C
:1011A0004046494604F0A0FE0022002304460D46B6
:1011B00007F061FA40B1204629460022504B04F066
:1011C00093FE04460D460136002EB5BF06F10F080A
:1011D0004FEA26184FEA281808F10108494BC6EBD8
:1011E000081603EBC603D3E90067204636A3D3E90C
:1011F0000023294604F060FD35A3D3E9002304F061
:101200004DFF22462B4604F057FD33A3D3E90023BC
:1012100004F044FF22462B4604F04EFD30A3D3E9F0
:10122000002304F03BFF22462B4604F045FD2EA38D
:10123000D3E9002304F032FF22462B4604F03CFDA4
:101240002BA3D3E9002304F029FF22462B4604F008
:1012500033FD29A3D3E9002304F020FF22462B46C7
:1012600004F02AFD32463B4604F026FD0B460246BA
:101270003946304604F012FF09AA07F016F9099B17
:1012800008EB0302B2F5806F09DD22221E4B1A60C3
:10129000019B002B7FF4CAAD00241C4DC8E56FF400
:1012A0007F739A42FFF64DAF04F0B8FC019B0446F1
:1012B0000D46002B3FF4BCAD01F100431D46B7E5E0
:1012C0000024134DB4E500BF80CC92E3DD4EEF3E29
:1012D000744C38E07A2F243F9FCDD7187ED8553FE5
:1012E000981D136EABB2833F6D0203D7086BAC3F02
:1012F000CEC482FFBDBFCE3FEF39FAFE422EE63F9D
:101300000000B03F78880000D40800200000F07F83
:101310000000F03FFFFFFFFF00232DE9F04F0446E0
:101320009DB0CDE9043311920E78002E50D0252EB9
:10133000DFF8CC9201F1010A4ED009EB060292F8D7
:1013400080206368D20703F1FF3324D555461AF88D
:10135000013B4B4493F88030DF07F7D46368013BCF
:10136000002B636013DB23685A1C2260187809EB9A
:10137000000393F88030DE0705D4214606F0EAFE2C
:10138000AA465146D0E7049B01330493E6E7204682
:1013900004F0FEF9EBE7002B636009DB23685A1CBD
:1013A00022601D78B54208D1049B01330493E8E71D
:1013B000204604F0EDF90546F4E72146284606F0FC
:1013C000C9FE013504D1059B13B94FF0FF330593D6
:1013D00005981DB0BDE8F08F4B784FF000082A2B20
:1013E00006BF01F1020A0126002652460A2085495D
:1013F0001AF8013B09EB030595F88050AD0600F1A2
:10140000038116F0080F08BF6FF000486C2B40F006
:1014100008819AF8003046F0020602F1020A782BA1
:10142000D6DC572B00F30C81252B00F05381242BA5
:10143000CEDD23F00203452BCAD14FF0FF356368A0
:10144000AB46013B002B05F101056360C0F29081C2
:1014500023685A1C2260187809EB000393F8803047
:10146000DB07ECD4471CAED0B8F1000F00F08A8146
:101470002B2800F081812D2840F0848146F40077EC
:1014800063680BF10205013B002B6360C0F27681BB
:1014900023685A1C2260187808F1FF3852A3D3E958
:1014A0000023CDE9082300230022CDE90A230023ED
:1014B0009B4608F1FF390693B9F1FF3F40F0648184
:1014C000214606F047FEDDE90A010A23032203FB59
:1014D0000BF393FBF2F3ABEB03084246109304F0DB
:1014E00013FACDE90C01069807F07AF8424604F0A9
:1014F0000BFABBF1000FCDE90A0180F2EC813CA3AD
:10150000D3E90023CBF1000BCDE908233AA3D3E9BB
:1015100000234FF000084FF00009CDE906231BF02F
:10152000010F39D0DDE90823DDE9060104F0B6FD3D
:1015300002460B46CDE90E01DDE90C0104F0BCFBCF
:1015400042464B46CDE90C01DDE90E0104F0B4FB47
:10155000DDE90A2380468946DDE9080104F0ACFB99
:1015600042464B4604F09AFDDDE90A23804689464F
:10157000DDE9060104F0A0FB00220B46CDE90A23B9
:1015800004F0B2FC42464B4604F088FDBBF1010F6B
:101590008046894600F0AB81DDE9062310461946F6
:1015A00004F07CFDDDE9082304F078FD02460B46DB
:1015B000DDE9080104F080FBDDE90623CDE908013F
:1015C0001046194604F078FB00220B46CDE90623AD
:1015D00004F08AFCDDE9082304F060FD4FEA6B0BA0
:1015E000CDE908019BE700BF9A9999999999B93F6C
:1015F000333333333333733E000000009999C93FCE
:10160000CF8A0000CCCCCC0C88453FF7E1AE00FB84
:101610000833B3F130083FF5DBAE524646F008061A
:10162000E6E64C2B04D19AF8003046F01206F4E6B8
:10163000682B7FF4F4AE9AF8003046F00406ECE62E
:10164000583B202B3FF6C4AE01A252F823F000BF56
:101650000D1B0000D1130000D1130000151B00006A
:10166000D1130000D1130000D1130000D1130000EA
:10167000D1130000D1130000D1130000F5160000B3
:101680005B1700003B1400003B1400003B140000FB
:10169000D1130000171A0000D1130000D11300006D
:1016A000D1130000D11300001F1A0000331A0000EC
:1016B000611A0000D1130000D11300006D1A000060
:1016C000D1130000031B0000D1130000D113000050
:1016D0000D1B00006368013B002B636005DB236882
:1016E0005A1C22601D78252D5DE6204604F050F836
:1016F0000546F8E716F0080F08BF4FF0010816F08E
:10170000010609BF119B00251A1D1D6808BF119213
:10171000B8F1000F3FF45CAE049B9844049B013386
:1017200004936368013B002B636010DB23685A1C41
:10173000226018780EB905F8010B049B4345EDD1E2
:10174000002E7FF41EAE059B0133059319E620465B
:1017500004F01EF8421CEDD135E60A23CDF80080D6
:1017600046F02002204611A903F0D2FE0546F2E021
:10177000204604F00DF86FE6374681E6204604F077
:1017800007F889E6374689E62E2811D179060FD465
:1017900047F0400863680135013B002B63603CDB88
:1017A00023685A1C22601878474609F1FF3983E6FE
:1017B000A24B034493F880309A0632D5069BA04A88
:1017C00047F48078934207F04007A0F1300009DC2D
:1017D0000A23069A03FB02030693002FDAD00BF1CB
:1017E000FF3BD7E706F0FCFEDDE9082304F064FACE
:1017F00002460B46DDE90A0104F050FC0022CDE967
:101800000A01DDE908018F4B04F0D4FACDE90801A3
:10181000002FBFD10BF1010BBCE7204603F0B8FF4E
:10182000C2E720F02003452B7FF44AAEFB057FF58D
:1018300047AE636827F4C077013B002B63601CDB75
:1018400023685A1C226018782B281CD02D2818D009
:1018500001354FF000080A22784BA944A9EB050195
:10186000002904DD191891F8801089061CD43B0664
:101870004CBFABEB080BC34422E6204603F088FFC5
:10188000E2E747F0800763680235013B002B6360A5
:1018900006DB23685A1C2260187809F1FF39D8E763
:1018A000204603F075FFF8E76168303801390029F8
:1018B00002FB080847F4807705F10105616004DB4D
:1018C0002168481C20600878C8E7204603F060FFC4
:1018D0000A225A4BC2E706D000220023CDE9082392
:1018E0000022594B15E64FF000084FF00009DDE9E2
:1018F0000C0142464B4604F0D1FBDDE90A2304F01B
:10190000CDFB13AA06F060FD139BDDF840B08046C6
:101910009B44BBF5806F8946CDF84CB024DD002296
:10192000B9054CBF494B4A4BCDE902232222494B12
:101930001A60FB057FF54CAD07F00108BF0735D5F0
:10194000B8F1000F07D1119B1A1D1B681192DDE938
:101950000212C3E90012002DFFF633ADF30740F188
:101960002E81049B2B4421E56FF47F739B450CDA99
:101970000022002306F03CFE38B92222354B1A60C3
:1019800000220023CDE90223D3E7BB055A46404697
:10199000494606D503F0B8FF01F1004302900393D6
:1019A000C7E703F0B1FFCDE90201C2E714AADDE900
:1019B000020106F009FD149B7E33002B149313DC07
:1019C000DDE902010022002306F012FEF0B9222216
:1019D0000020204B1A60B8F1000FBCD1119B1A1DDA
:1019E0001B6811921860B6E7FE2B0FDDDDE90201DE
:1019F0000022002306F094FE174A184B22210028EB
:101A000008BF1346134A18681160E4E7DDE90201D4
:101A100004F0D0FBDFE70023CDF80080A0E6119BA7
:101A2000700753F8042B1193049B4CBF1380136071
:101A3000A7E40823CDF8008092E600BFCF8A00001B
:101A40009F86010000002440000014400000F0FFC9
:101A50000000F07FD40800200400002008000020CF
:101A60001023CDF8008026F006027BE64FF0FF350C
:101A700063680135013B002B63602ADB23685A1C35
:101A80002260187809EB000393F8807017F00107C3
:101A9000EED1411C3FF497AC16F0010B08BF119B2F
:101AA000A84402BF1A1D1F681192454507D0421C69
:101AB00005D009EB000393F88030DB070DD52146F4
:101AC00006F048FBBBF1000F7FF445AF87F800B08C
:101AD00041E7204603F05CFED4E7BBF1000F01D1E3
:101AE00007F8010B63680135013B002B636004DBE1
:101AF00023685A1C22601878D7E7204603F048FE76
:101B0000D3E70A233246CDF800802BE61023CDF828
:101B1000008025E600229AF8003001255E2B14BFD4
:101B200000210121CDE91422CDE91622CDE91822A8
:101B3000CDE91A220ABF9AF801300AF1010A0AF126
:101B4000020A002B3FF444AC5A111CA800EB82029D
:101B500052F8200C03F01F0305FA03F3034342F885
:101B6000203C1AF8013B5D2BEBD161BB16F001065E
:101B700033D000276368013B002B636032DB2368AE
:101B80005A1C226018780025A84511D0411C0FD09E
:101B900003460028B8BF00F11F031CAA5B1102EB2B
:101BA000830353F8203C00F01F021341DA0720D4CE
:101BB000214606F0CFFA002E7FF4D3AE3E70059B8F
:101BC00001330593CDE6002314AA11680133C943FC
:101BD000082B42F8041BF8D1C8E7119B1A1D1F6897
:101BE0001192C7E7204603F0D3FD451CCBD1FFF788
:101BF000EABB0EB907F8010B63680135013B002B06
:101C0000636004DB23685A1C22601878BCE7204616
:101C100003F0BEFDB8E700BF2DE9F8430022002322
:101C200004460D4606F052FD78B1002200232046FE
:101C3000294606F0F5FC20B121220024364B374D11
:101C40001A6020462946BDE8F88340F2FE33C5F30A
:101C50000A5763F31E55204629A3D3E900232946DA
:101C600004F02AF828A3D3E9002304F017FA8046E9
:101C7000894602460B462046294604F09BF8424618
:101C80004B4604F00BFA0022254B04F015F8804671
:101C9000894602460B462046294604F08BF8424608
:101CA0004B4604F0FBF900221D4B04F005F880467A
:101CB000894602460B462046294604F07BF84246F8
:101CC0004B4604F0EBF90022154B03F0F5FFA7F2A9
:101CD000FE36F20704460D4609D50DA3D3E90023CD
:101CE00003F0EAFF6FF47F7304460D46FE18C5F358
:101CF0000A5306EBD67603EB660363F31E55A0E7A3
:101D000018096D3997E2E23FF7CC920035B5DA3F1A
:101D1000CD3B7F669EA0E63FD40800200000F0FF88
:101D20000000E03FFFFFFFFF2DE9F0471446DDE92B
:101D300008761D465CA3D3E90023804689462046E9
:101D4000294606F0EDFC40B121220024724B734D70
:101D50001A6020462946BDE8F087204654A3D3E9FF
:101D60000023294604F09AF953A3D3E9002304F091
:101D700021F806F0F1FB824606F032FC1AF0010F62
:101D800004460D4618BF7F422EB10022644B04F07A
:101D9000ABF804460D464AA3D3E900232046294662
:101DA00003F08AFF02460B464046494604F09CF881
:101DB00045A3D3E90023804689462046294603F0FF
:101DC0007BFF02460B464046494604F067F904464D
:101DD0000D4606F09AF83EA3D3E9002306F0A0FCD6
:101DE000002857D022462B462046294603F064FFA0
:101DF00039A3D3E900238046894603F05DFF38A369
:101E0000D3E9002304F070F842464B4603F054FF38
:101E100035A3D3E9002304F041F942464B4603F0D1
:101E20004BFF33A3D3E9002304F05EF842464B4650
:101E300003F042FF30A3D3E9002304F02FF9424618
:101E40004B4603F039FF2EA3D3E9002304F04CF8EE
:101E500042464B4603F030FF2BA3D3E9002304F0A6
:101E60001DF942464B4603F027FF29A3D3E900237F
:101E700004F03AF842464B4603F01EFF22462B463A
:101E800003F01AFF02460B462046294604F006F9E5
:101E900004460D46002FBFBF224605F100431446FD
:101EA0001D4656E7AFF300800000000065CDCD4130
:101EB000182D4454FB21F93F182D4454FB210940AF
:101EC00000000000002209409EE59E4BEFAEE23E7E
:101ED000BBBDD7D9DF7CDB3D95DF9369FF80E83C54
:101EE0009C4908DC20E46A3D30D46A683C12E63D37
:101EF000ABC05D4B45E65A3E63F024A5E31DC73EEB
:101F00001A3E011AA0012A3FB01011111111813F90
:101F1000555555555555C53FD40800200000F0FFD4
:101F20000000E03F80B582B000AF26E002F03CFA4E
:101F30000346DBB2FB71FB1D01221946144806F073
:101F4000CBF8FB790A2B18D106221249104806F06B
:101F5000D7F80346002B0DD10F4A10490C4800F06A
:101F600069F80F4A0D490F4804F0A2FA084B002205
:101F70001A7002E0064B00221A7002F02DFA034696
:101F8000002BD3D100BF00BF0837BD4680BD00BFC6
:101F9000A000002000890000580000201000002050
:101FA000280000204000002080B584B000AFC7E9C1
:101FB00002011346FB710D49D7E90223C1E902234F
:101FC0000A4AFB7913740949D7E90623C1E90023BA
:101FD000064A97F820305374044A0549054804F02E
:101FE00067FA00BF1037BD4680BD00BF2800002043
:101FF000100000204000002080B400AF024B1846C3
:10200000BD4680BC704700BF1000002080B400AF08
:10201000024B1846BD4680BC704700BF4000002000
:1020200080B400AF024B1846BD4680BC704700BF6D
:10203000580000202DE9B04F8EB000AFF860B960B5
:102040007A6007F10C038049184604F009FA7863B6
:1020500000233B63EDE03B6B01333B633B6B023B97
:10206000072B00F2C58001A252F823F08D2000005A
:102070009D20000017210000212100009B2100006D
:10208000A5210000D1210000DF210000786B03F0C2
:1020900069FB02460B467968C1E90023786B03F0BF
:1020A00061FBC7E908014FF00002684BD7E908015E
:1020B00003F080FE02460B461046194606F04CFA25
:1020C0000346FB61FB69642202FB03F3184606F03A
:1020D00087FA02460B46D7E9080103F005FF0246DE
:1020E0000B46C7E90423F86906F07AFA82468B4664
:1020F0004FF00002564BD7E9040103F05BFE0246A5
:102100000B465046594603F0C9FF02460B46B968D4
:10211000C1E902236CE07B6B1A78BB681A7467E034
:10212000786B03F01FFBC7E908014FF00002474B33
:10213000D7E9080103F03EFE02460B461046194659
:1021400006F00AFA0346FB61FB69642202FB03F313
:10215000184606F045FA02460B46D7E9080103F097
:10216000C3FE02460B46C7E90423F86906F038FAB5
:1021700082468B464FF00002354BD7E9040103F04D
:1021800019FE02460B465046594603F087FF0246A9
:102190000B46B968C1E900232AE07B6B1A78BB685B
:1021A0005A7425E0786B03F0E7FAF8627B68FA6A04
:1021B0005A61786B03F0E0FA0346002B05D1254BFA
:1021C0001B680133234A136002E0224B00221A608D
:1021D000786B03F0D1FA02467B681A6108E0786BED
:1021E00003F0C0FA02460B467968C1E9022300BF3A
:1021F000BB681B7C532B08D1BB68D3E90223144670
:1022000083F00045BB68C3E90245BB685B7C572B84
:1022100008D1BB68D3E90023904683F00049BB682E
:10222000C3E9008907F10C030749184604F018F9BF
:1022300078637B6B002B7FF40EAF00BF00BF383795
:10224000BD46BDE8B08F00BF0889000000005940BE
:1022500000004E40000000202DE9F0439DB00AAF81
:10226000FFF7CAFE7864FFF7DBFE38643B6CD3E906
:1022700000897B6CD3E90223796C097C7960796CE5
:10228000D1E900017C6C647C3C603C6CD4E9024583
:1022900007F10C06CDE908453C680694CDE9040138
:1022A00079680291CDE9002342464B460749304602
:1022B00002F034FA07F10C0332221946044800F008
:1022C00029F800BF4C37BD46BDE8F0830C890000FB
:1022D0002C89000080B500AF01220A490A4801F0AC
:1022E00007F803461A46094B1A70084B1B78002B57
:1022F00006D0064B1B781946054802F079FAFEE72E
:1023000000BF80BD248A000004010020960900203F
:102310003489000080B584B000AFF860B9607A609D
:102320003222F9680D4801F02DF803461A460C4B8D
:102330001A700B4B1B78002B0CD17A68094BB968CB
:10234000064805F0D4F9054805F02EFB03461A4669
:10235000034B1A7000BF1037BD4680BD3803002004
:10236000960900206003002080B584B000AFF860BB
:10237000B9607A600A22F9680D4801F003F8034653
:102380001A460C4B1A700B4B1B78002B0CD17A6839
:10239000094BB968064805F0AAF9054805F004FBA1
:1023A00003461A46034B1A7000BF1037BD4680BD66
:1023B00038030020960900206003002080B584B017
:1023C00000AFF860B9607A600122F968164800F041
:1023D000D9FF03461A46154B1A70144B1B78042B71
:1023E00001D100231CE0114B1B78002B12D17B681C
:1023F000013B1A460E4BB9680B4805F06BF80C4BC5
:102400001B68BA68134400221A70074805F0CCFA1A
:10241000012305E0054B1B781946064802F0E8F950
:1024200018461037BD4680BD3803002096090020AD
:10243000640300204889000080B582B000AF3B1DD6
:10244000012219462148FFF7B9FF3B79303B062BA3
:102450002CD801A252F823F0752400007D2400003E
:10246000852400008D240000952400009D24000098
:10247000A5240000164B00221A701BE0144B012209
:102480001A7017E0124B02221A7013E0104B03224D
:102490001A700FE00E4B04221A700BE00C4B052251
:1024A0001A7007E00A4B06221A7003E0084B00225C
:1024B0001A7000BF064B00229A70054B00225A701A
:1024C00000BF18460837BD4680BD00BF4C890000DC
:1024D0006803002080B400AF024B1846BD4680BCA4
:1024E000704700BF6803002080B500AF324B9B7877
:1024F000002B0AD0304B00229A702F4B00221A700A
:1025000001222E492E48FFF72FFF2B4B5B78002B23
:102510004FD0294B00225A70274B1B78062B08D12D
:10252000012226492648FFF71FFF234B00221A707D
:102530003FE0214B1B780133DAB21F4B1A701E4B60
:102540001B78013B052B33D801A252F823F000BFC2
:102550006925000075250000812500008D250000FB
:1025600099250000A5250000012216491448FFF70F
:10257000FBFE1EE0012214491148FFF7F5FE18E0AA
:10258000012212490E48FFF7EFFE12E00122104926
:102590000B48FFF7E9FE0CE001220E490848FFF75F
:1025A000E3FE06E001220C490548FFF7DDFE00E0EE
:1025B00000BF00BF80BD00BF680300205C89000031
:1025C0004C8900006089000064890000688900006F
:1025D0006C890000708900007489000080B58CB09F
:1025E00000AF3B1D1E2219464348FFF7E7FE786205
:1025F0007B6A002B03D1414802F0FAF8FEE740491C
:102600004FF000024FF00003C1E902233C4B582277
:102610001A743B494FF000024FF00003C1E9002358
:10262000374B58225A743B1D3649184603F018FFA1
:10263000F8620023BB6233E0BB6A0133BB62BB6A52
:10264000013B032B26D801A252F823F05D2600009F
:102650006F260000792600008B260000F86A03F040
:1026600081F802460B462649C1E9022312E0FB6AC3
:102670001A78234B1A740DE0F86A03F073F80246D7
:102680000B461F49C1E9002304E0FB6A1A781C4B82
:102690005A7400BF3B1D1B49184603F0E1FEF86267
:1026A000FB6A002BC8D1164BD3E902014FF00002A0
:1026B0004FF0000305F09CFF0346002B13D1104B95
:1026C0001B7C582B0FD00E4BD3E900014FF00002BA
:1026D0004FF0000305F08CFF0346002B03D1084B9D
:1026E0005B7C582B03D1084802F082F8FEE700BF5C
:1026F0003037BD4680BD00BF788900008489000066
:102700007000002008890000A8890000B0B588B0DA
:1027100004AFFFF7DFFEF8602B4BD3E902012A4B31
:102720001D7C294BD3E90023274C647C0294CDE91E
:1027300000232A46FFF738FCFFF768FCB860BB6847
:10274000D3E902014FF000024FF08043FEF73CFB5B
:1027500004460D46BB68D3E900014FF000024FF07C
:102760008043FEF731FB02460B462046294603F024
:1027700095FC02460B4610461946FFF74DFAC7E98D
:102780000001FFF74DFC0346D3E902230F4802F096
:102790002FF8D7E900230E4802F02AF84FF0000284
:1027A0000C4BD7E9000105F03BFF0346002B00D19D
:1027B00005E0094802F01CF8FB6801225A7000BFCE
:1027C0001037BD46B0BD00BF70000020C4890000B6
:1027D000D489000000002440E489000080B58CB05A
:1027E00000AF3B1D1E2219464348FFF7E7FD786204
:1027F0007B6A002B03D1414801F0FAFFFEE7404914
:102800004FF000024FF00003C1E902233C4B582275
:102810001A743B494FF000024FF00003C1E9002356
:10282000374B58225A743B1D3649184603F018FEA0
:10283000F8620023BB6233E0BB6A0133BB62BB6A50
:10284000013B032B26D801A252F823F05D2800009B
:102850006F280000792800008B280000F86A02F039
:1028600081FF02460B462649C1E9022312E0FB6ABA
:102870001A78234B1A740DE0F86A02F073FF0246CF
:102880000B461F49C1E9002304E0FB6A1A781C4B80
:102890005A7400BF3B1D1B49184603F0E1FDF86266
:1028A000FB6A002BC8D1164BD3E902014FF000029E
:1028B0004FF0000305F09CFE0346002B13D1104B94
:1028C0001B7C582B0FD00E4BD3E900014FF00002B8
:1028D0004FF0000305F08CFE0346002B03D1084B9C
:1028E0005B7C582B03D1084801F082FFFEE700BF54
:1028F0003037BD4680BD00BFEC89000084890000F0
:102900008800002008890000A8890000B0B58AB0BE
:1029100004AFFFF7DFFDF8603F4BD3E902013E4B08
:102920001D7C3D4BD3E900233B4C647C0294CDE9F4
:1029300000232A46FFF738FBFFF768FBB860BB6847
:10294000D3E902014FF000024FF08043FEF73CFA5A
:1029500004460D46BB68D3E900014FF000024FF07A
:102960008043FEF731FA02460B462046294603F023
:1029700095FB02460B4610461946FFF74DF9C7E98D
:1029800000014FF00002254BD7E9000105F073FE6E
:102990000346002B06D04FF000024FF00003C7E9BA
:1029A000042311E04FF000021C4BD7E9000103F0B3
:1029B00001FA02460B464FF00000194903F094FA61
:1029C00002460B46C7E90423FFF72AFB0346D3E977
:1029D0000223144801F00CFFD7E90023124801F04C
:1029E00007FFD7E90423114801F002FF4FF000026E
:1029F0000F4BD7E9000105F013FE0346002B00D171
:102A000005E00C4801F0F4FEFB6801225A7000BF9B
:102A10001837BD46B0BD00BF8800002000006940E7
:102A20000000F03FC4890000D4890000F88900004C
:102A300000002440E489000080B584B000AF7860D5
:102A4000786803F06DFE0346FB73FB7B002B57D1C8
:102A50007B685B79012B47D17B6800225A717B68C8
:102A60001B78032B40D17B6834334FF40072002174
:102A7000184605F048FA7B6834332449184603F0B9
:102A8000DCFD7B68343303F5F2732149184603F00B
:102A9000D4FD7B68343303F5F4727B681B691946F7
:102AA000104603F0CAFD7B68343303F5F6727B6889
:102AB000DB681946104603F0C0FD7B68343303F52C
:102AC000F9731449184603F0B8FD7B6858787B68A1
:102AD00003F134017B681B6A5A1C7B681A637B68AC
:102AE0001A6B012301F0B6F97B685B7800220021A4
:102AF000184605F089F80346002B01D00123FB732B
:102B0000FB7B18461037BD4680BD00BF5252614165
:102B100072724161000055AA80B58AB000AF78603A
:102B200039603B681B687B617B6820333B610B220B
:102B30002021386905F0E7F90023BB61BB69FB611F
:102B400008233B627A69FB6913441B782E2B36D12C
:102B5000FB695A1CFA617A6913441B7887F827309D
:102B600097F827302E2B0BD1FB69022B08D8BB69B5
:102B70005A1CBA613A69134497F827201A70E7E79C
:102B800097F827302F2B09D097F827305C2B05D0EA
:102B900097F82730202B01D90623BCE07A69FB691E
:102BA0001A443B681A6097F82730202B01D824225A
:102BB00000E020223B690B331A700023ABE0FB6975
:102BC0005A1CFA617A6913441B7887F8273097F802
:102BD0002730202B7CD997F827302F2B07D097F858
:102BE00027305C2B10D102E0FB690133FB617A696D
:102BF000FB6913441B782F2BF6D07A69FB691344C9
:102C00001B785C2BF0D064E097F827302E2B03D094
:102C1000BA693B6A9A420DD33B6A0B2B03D097F8F3
:102C200027302E2B01D0062375E00823BB610B2330
:102C30003B624CE097F82730184603F029FD034625
:102C4000002B24D0FB695A1CFA617A6913441B7863
:102C5000FB73FB7B184603F03AFD0346002B04D0C0
:102C60003B6A013BBA699A4201D3062353E0BB6930
:102C70005A1CBA613A69134497F827201A70BB6945
:102C80005A1CBA613A691344FA7B1A7097E797F8AD
:102C900027301946224805F0DDF90346002B01D004
:102CA000062338E097F82730602B08D997F82730AB
:102CB0007A2B04D897F82730203B87F82730BB6958
:102CC0005A1CBA613A69134497F827201A7076E7BC
:102CD00000BF7A69FB691A443B681A60BB69002B24
:102CE00001D1062317E03B691B78E52B02D13B6934
:102CF00005221A7097F82730202B05D97A69FB69CD
:102D000013441B78202B01D8042200E000223B69E9
:102D10000B331A70002318462837BD4680BD00BF0C
:102D20000C8A000080B487B000AF78607B681B68B5
:102D3000FB60FB687B61FB68002B02D14FF0FF3327
:102D40002DE07B695A1C7A611B78FB72FB7A202B81
:102D500002D9FB7A3A2BF4D1FB7A3A2B1DD101230D
:102D60003B61FB681B782F2B0CD9FB681B78392B38
:102D700008D8FB6802337A699A4203D1FB681B7852
:102D8000303B3B613B69002B02DD4FF0FF3306E037
:102D90007B687A691A603B6901E0034B1B7818462F
:102DA0001C37BD4680BC70479709002080B584B0B1
:102DB00000AF786039607B6800221A717B684FF041
:102DC000FF321A633968786803F0E6FC0346002B8B
:102DD00001D0042388E07B68343303F5FF73184681
:102DE00003F0D7FB0346FB817B6893F834307B7399
:102DF0007B7BEB2B05D07B7BE92B02D07B7BE82B0D
:102E00006AD1FB894AF6552293420CD17B68343350
:102E1000523308223649184605F0BDF80346002B08
:102E200001D1002360E07B6834330B33184603F094
:102E3000B0FB03467B817B6893F841307B737A89D2
:102E40007B89013B1340002B46D17B89B3F5007F82
:102E500042D37B89B3F5007F3ED87B7B002B3BD0F0
:102E60007A7B7B7B013B1340002B35D17B6834336D
:102E70000E33184603F08DFB0346002B2CD07B68E5
:102E800093F84430013B012B26D87B68343311334F
:102E9000184603F07EFB0346002B1DD07B683433BD
:102EA0001333184603F075FB03467F2B09D87B6864
:102EB00034332033184603F084FB0346B3F5803FD8
:102EC0000AD37B6834331633184603F062FB03469B
:102ED000002B01D0002307E0FB894AF655229342DC
:102EE00001D1022300E0032318461037BD4680BD00
:102EF0001C8A000080B590B000AFF860B96013463E
:102F0000FB71BB6800221A60F868FFF70BFFF862DC
:102F1000FB6A002B01DA0B23DDE19D4AFB6A52F8C4
:102F20002330BB62BB6A002B01D10C23D3E1BB6809
:102F3000BA6A1A60FB7923F00103FB71BB6A1B7844
:102F4000002B1AD0BB6A5B78184600F007FE0346D8
:102F500087F8273097F8273003F00103002B0CD1B6
:102F6000FB79002B07D097F8273003F00403002BE0
:102F700001D00A23AFE10023ADE1BB6A00221A7041
:102F8000BB6A5B78184600F0FDFD034687F82730E2
:102F900097F8273003F00103002B01D003239AE1B7
:102FA000FB79002B07D097F8273003F00403002BA0
:102FB00001D00A238FE10021B86A04F0F7F93863E1
:102FC0003B6B042B01D1012385E13B6B012B01D924
:102FD0000D2380E1BB6A1B6B3B62BB6A34330B334E
:102FE000184603F0D6FA0346B3F5007F01D00D234F
:102FF00071E1BB6A34331633184603F0CAFA03464C
:10300000BB63BB6B002B06D1BB6A34332433184639
:1030100003F0D7FAB863BB6ABA6BDA61BB6A93F89C
:103020004420BB6ADA70BB6ADB78012B05D0BB6A2F
:10303000DB78022B01D00D234DE1BB6ADB781A4609
:10304000BB6B02FB03F3BB63BB6A93F841301A46C8
:10305000BB6A5A81BB6A5B89002B08D0BB6A5B895B
:103060001A46BB6A5B89013B1340002B01D00D233C
:1030700031E1BB6A34331133184603F08AFA034650
:103080001A46BB6A1A81BB6A1B8903F00F039BB205
:10309000002B01D00D231EE1BB6A343313331846D5
:1030A00003F077FA0346FB63FB6B002B06D1BB6A88
:1030B00034332033184603F084FAF863BB6A3433A0
:1030C0000E33184603F065FA0346FB83FB8B002B97
:1030D00001D10D23FFE0FA8BBB6B1344BA6A12894E
:1030E000120992B21344BB61FA6BBB699A4201D2D6
:1030F0000D23F0E0FA6BBB69D31ABA6A5289B3FBAD
:10310000F2F37B617B69002B01D10D23E3E0002307
:103110003B637B691F4A934201D803233B637B696E
:103120004FF6F572934201D802233B637B6940F668
:10313000F572934201D801233B633B6B002B01D115
:103140000D23C8E07B699A1CBB6A9A61BB6A3A6A24
:103150001A62FA8B3B6A1A44BB6A5A623A6ABB69C2
:103160001A44BB6ADA623B6B032B23D1BB6A34334C
:103170002A33184603F00DFA0346002B01D00D2325
:10318000A9E0BB6A1B89002B06D00D23A3E000BF7A
:103190006C030020F5FFFF0FBB6A34332C33184655
:1031A00003F00FFA0246BB6A9A62BB6A9B699B00F6
:1031B0007B631EE0BB6A1B89002B01D10D238AE0D3
:1031C000BB6A5A6ABB6B1A44BB6A9A623B6B022B9E
:1031D00003D1BB6A9B695B000AE0BB6A9A6913462C
:1031E0005B0013445A08BB6A9B6903F00103134454
:1031F0007B63BB6ADA697B6B03F2FF135B0A9A425B
:1032000001D20D2367E0BB6A4FF0FF321A61BB6A3F
:103210001A69BB6ADA60BB6A80225A713B6B032B66
:1032200047D1BB6A34333033184603F0B2F9034652
:10323000012B3ED13B6A01331946B86A03F0ACFA60
:103240000346002B35D1BB6A00225A71BB6A343366
:10325000184603F0B6F90346214A934229D1BB6AC6
:10326000343303F5F273184603F0ABF903461D4AF5
:1032700093421ED1BB6A343303F5F973184603F049
:10328000A0F90346184A934213D1BB6A343303F5BD
:10329000F473184603F095F90246BB6A1A61BB6ADB
:1032A000343303F5F673184603F08BF90246BB6A14
:1032B000DA603B6BDAB2BB6A1A700C4B1B880133C5
:1032C0009AB20A4B1A80094B1A88BB6ADA80BB6A29
:1032D00000225A61002318464037BD4680BD00BF1A
:1032E0005252614172724161000055AA9409002056
:1032F00080B588B000AFF860B9601346FB71BB6859
:103300003B6107F110031846FFF70CFDF861FB69FC
:10331000002B01DA0B232EE0194AFB6952F8233007
:10332000BB61BB69002B07D0154AFB69002142F83D
:103330002310BB6900221A70FB68002B0BD0FB68BE
:10334000FA69D2B25A70FB6800221A70FA680C4906
:10335000FB6941F82320FB79002B01D100230AE00F
:1033600007F10C0107F1080300221846FFF7C2FD20
:103370000346FB75FB7D18462037BD4680BD00BF68
:103380006C03002080B598B000AFF860B9601346B8
:10339000FB71FB68002B01D109235DE1FB7903F090
:1033A0003F03FB71FA7907F1140107F1080318468E
:1033B000FFF7A0FD034687F85F3097F85F30002BDA
:1033C00040F041817B69BB61BA6807F1180311467F
:1033D000184603F05DFF034687F85F3097F85F30CB
:1033E000002B07D197F843305BB2002B02DA06239B
:1033F00087F85F30FB7903F01C03002B77D097F838
:103400005F30002B10D097F85F30042B07D107F105
:103410001803184603F00AFF034687F85F30FB796C
:1034200043F00803FB7110E0BB7F03F01103002B96
:1034300003D0072387F85F3007E0FB7903F004032C
:10344000002B02D0082387F85F3097F85F30002BFD
:1034500067D1FB7903F00803002B62D0804B3B65FA
:103460007B6B0E33396D184603F0E7F87B6B163330
:10347000396D184603F0E1F87B697A6B11461846FE
:1034800003F040FEF8647B6B0B3320221A707B69DB
:10349000796B0022184603F054FE7B6B1C3300212D
:1034A000184603F0CAF87B6901221A71FB6C002BE5
:1034B00037D07B691B6BBB6407F118030022F96CE2
:1034C000184603F045FB034687F85F3097F85F30F6
:1034D000002B26D17B69B96C184603F05DF90346D1
:1034E00087F85F307B69FA6C013ADA6019E097F887
:1034F0005F30002B15D1BB7F03F01003002B03D0EE
:10350000042387F85F300CE0FB7903F00203002B03
:1035100007D0BB7F03F00103002B02D0072387F8FD
:103520005F3097F85F30002B0FD1FB7903F0080371
:10353000002B03D0FB7943F04003FB717B691A6BCE
:10354000FB681A627A6BFB685A6297F85F30002B4F
:1035500079D17B697A6B1146184603F0D3FD024698
:10356000FB689A607B6B1C33184603F02AF802460E
:10357000FB68DA607A69FB681A607B69DA88FB6845
:103580009A80FB68FA791A74FB6800225A74FB6807
:103590000022DA61FB6800225A61FB7903F0200304
:1035A000002B50D0FB68DB68002B4CD0FB68DA683E
:1035B000FB685A617B695B895B027B64FB689B6883
:1035C000BB65FB68DB687B6516E0FB68B96D184678
:1035D00003F02DF9B865BB6D012B02D8022387F8E3
:1035E0005F30BB6DB3F1FF3F02D1012387F85F303D
:1035F0007A6D7B6CD31A7B6597F85F30002B03D113
:103600007A6D7B6C9A42E0D8FB68BA6D9A6197F844
:103610005F30002B17D17B6DC3F30803002B12D052
:103620007B69B96D184603F0E4F8B864BB6C002BF5
:1036300003D1022387F85F3005E07B6D5A0ABB6C2B
:103640001A44FB68DA6197F85F30002B02D0FB6800
:1036500000221A6097F85F3018466037BD4680BD7B
:103660000000615980B586B000AF78607B6807F1D3
:1036700008021146184603F0F8FE0346FB75FB7D71
:10368000002B4CD17B681B7C03F04003002B46D001
:10369000254B3B61BA687B681B6A1946104603F0EC
:1036A0007BF80346FB75FB7D002B38D17B685B6A9A
:1036B000FB60FB680B331A78FB680B3342F0200287
:1036C000D2B21A707B6818687B689B681A46F968E2
:1036D00003F037FDFB6803F11C027B68DB681946C9
:1036E000104602F0AAFFFB6816333969184602F04B
:1036F000A4FFFB6812330021184602F084FFBB6868
:1037000001221A71BB681846FFF796F90346FB754C
:103710007B681B7C23F04003DAB27B681A74FB7D64
:1037200018461837BD4680BD0000615980B485B089
:1037300000AF786039607B685A1C7A601B78FB7335
:1037400097F90F30002B06DA7B4B1B6C7A4A43F457
:103750000053136405E0784B9B6C774A43F40053A5
:103760009364754B1B6C744A43F480531364724B1F
:103770009B6C714A43F480539364FB7B03F04003DA
:10378000002B06D06C4B1B6C6B4A43F40053136444
:1037900005E0694B9B6C684A43F400539364664BA5
:1037A0001B6C654A43F480531364634B9B6C624A01
:1037B00043F480539364FB7B03F02003002B06D07B
:1037C0005D4B1B6C5C4A43F40053136405E05A4B99
:1037D0009B6C594A43F400539364574B1B6C564AF5
:1037E00043F480531364544B9B6C534A43F480530B
:1037F0009364FB7B03F01003002B06D04E4B1B6C35
:103800004D4A43F40053136405E04B4B9B6C4A4A0A
:1038100043F400539364484B1B6C474A43F4805372
:103820001364454B9B6C444A43F480539364FB7B85
:1038300003F00803002B06D03F4B1B6C3E4A43F4B9
:103840000053136405E03C4B9B6C3B4A43F400532C
:103850009364394B1B6C384A43F480531364364BE2
:103860009B6C354A43F480539364FB7B03F0040361
:10387000002B06D0304B1B6C2F4A43F400531364CB
:1038800005E02D4B9B6C2C4A43F4005393642A4B68
:103890001B6C294A43F480531364274B9B6C264AC4
:1038A00043F480539364FB7B03F00203002B06D0A8
:1038B000214B1B6C204A43F40053136405E01E4B5C
:1038C0009B6C1D4A43F4005393641B4B1B6C1A4AB8
:1038D00043F480531364184B9B6C174A43F4805392
:1038E0009364FB7B03F00103002B06D0124B1B6C8F
:1038F000114A43F40053136405E00F4B9B6C0E4ACE
:1039000043F4005393640C4B1B6C0B4A43F48053F9
:103910001364094B9B6C084A43F4805393643B68DF
:10392000013B3B603B68002B7FF405AF00BF00BF4D
:103930001437BD4680BC70470040104080B485B04D
:1039400000AF786039606B4B1B6C6A4A43F40053DC
:1039500013640023FB73674B1B6D03F48033002B50
:1039600002D0FB7B0133FB73624B1B6C614A43F457
:10397000805313645F4B9B6C5E4A43F480539364A3
:10398000FB7B5B00FB735B4B1B6D03F48033002BF5
:1039900002D0FB7B0133FB73564B1B6C554A43F43F
:1039A00080531364534B9B6C524A43F4805393648B
:1039B000FB7B5B00FB734F4B1B6D03F48033002BD1
:1039C00002D0FB7B0133FB734A4B1B6C494A43F427
:1039D00080531364474B9B6C464A43F48053936473
:1039E000FB7B5B00FB73434B1B6D03F48033002BAD
:1039F00002D0FB7B0133FB733E4B1B6C3D4A43F40F
:103A0000805313643B4B9B6C3A4A43F4805393645A
:103A1000FB7B5B00FB73374B1B6D03F48033002B88
:103A200002D0FB7B0133FB73324B1B6C314A43F4F6
:103A3000805313642F4B9B6C2E4A43F48053936442
:103A4000FB7B5B00FB732B4B1B6D03F48033002B64
:103A500002D0FB7B0133FB73264B1B6C254A43F4DE
:103A600080531364234B9B6C224A43F4805393642A
:103A7000FB7B5B00FB731F4B1B6D03F48033002B40
:103A800002D0FB7B0133FB731A4B1B6C194A43F4C6
:103A900080531364174B9B6C164A43F48053936412
:103AA000FB7B5B00FB73134B1B6D03F48033002B1C
:103AB00002D0FB7B0133FB730E4B1B6C0D4A43F4AE
:103AC000805313640B4B9B6C0A4A43F480539364FA
:103AD0007B685A1C7A60FA7B1A703B68013B3B603A
:103AE0003B68002B7FF435AF00BF00BF1437BD46E5
:103AF00080BC70470040104080B582B000AF074BDB
:103B00001B6C064A43F040031364FB1D0121184659
:103B1000FFF714FF00BF0837BD4680BD00401040CE
:103B200080B582B000AF0C4B9B6C0B4A43F0400356
:103B30009364FB1D01211846FFF700FF03F06DFFA2
:103B40000346002B01D0012302E0FFF7D5FF00233D
:103B500018460837BD4680BD0040104080B483B091
:103B600000AF0346FB71FB79002B01D0012301E07C
:103B7000034B1B7818460C37BD4680BC704700BF0E
:103B80000C00002080B586B000AF0346FB71FB79C6
:103B9000002B01D00323F8E042F2107003F024FF61
:103BA0007C4B4FF000425A647A4B80225A65794B25
:103BB0004FF000425A60774B80225A61764B4FF4A7
:103BC0000042C3F89820754B1B6C744A43F04003C5
:103BD0001364724B5B6D714A43F0400353656F4B46
:103BE0001B6C6E4A43F0400313646B4B4FF400426E
:103BF000C3F8B020694B9B6C684A43F480539364CC
:103C0000664B5B6D654A43F480535365634B9B6C15
:103C1000624A43F4805393645F4B4FF40042C3F80D
:103C2000B4205E4B1B6C5D4A43F4005313645B4B42
:103C30005B6D5A4A43F400535365574B4FF410429F
:103C4000C3F8C0200A23FB7508E007F1080301212F
:103C50001846FFF773FEFB7D013BFB75FB7D002BD8
:103C6000F3D10023BB750021002003F060FF034661
:103C7000012B7AD14FF4D571082003F058FF034689
:103C8000012B3DD107F1080304211846FFF756FE2A
:103C9000BB7A012B69D1FB7AAA2B66D14FF47A73D8
:103CA0003B610EE04FF08041A92003F040FF034646
:103CB000002B0AD04FF47A7003F096FE3B69013B6B
:103CC0003B613B69002BEDD100E000BF3B69002B5D
:103CD0004BD000213A2003F02AFF0346002B44D1A9
:103CE00007F1080304211846FFF728FE3B7A03F08A
:103CF0004003002B01D0182300E00823BB7534E0FB
:103D00000021A92003F013FF0346012B04D8082348
:103D1000BB75A9237B7503E00123BB7501237B756C
:103D20004FF47A733B610EE07B7D0021184603F06F
:103D3000FEFE0346002B0AD04FF47A7003F054FEC7
:103D40003B69013B3B613B69002BEDD100E000BFCB
:103D50003B69002B07D04FF40071102003F0E7FE01
:103D60000346002B01D00023BB750D4ABB7D1370A9
:103D7000BB7D002B0CBF01230023DBB2FB73094A80
:103D8000FB7B1370FFF7B8FEFB7B18461837BD4668
:103D900080BD00BF0010094000E00B400040104013
:103DA000980900200C00002080B586B000AFB960F3
:103DB0007A603B600346FB737B687B61FB7B184644
:103DC000FFF7CCFE034603F00103002B01D00323D1
:103DD0003AE01F4B1B7803F01003002B02D17B69E4
:103DE0005B027B613B68012B01D9122300E01123A8
:103DF000FB74FB7C7969184603F099FE0346002B9F
:103E00001AD14FF40071B86803F02BFE0346002B63
:103E10000AD0BB6803F50073BB603B68013B3B60A5
:103E20003B68002BEDD100E000BFFB7C122B03D1DF
:103E300000210C2003F07BFEFFF75EFE3B68002BA9
:103E400014BF01230023DBB218461837BD4680BDDE
:103E50009809002080B586B000AFB9607A603B60F9
:103E60000346FB737B687B61FB7B1846FFF776FE9E
:103E7000034603F00103002B01D0032351E02B4B39
:103E80001B7803F01003002B02D17B695B027B617E
:103E90003B68012B10D17969182003F048FE0346D6
:103EA000002B36D1FE21B86803F00CFE0346002B30
:103EB0002FD000233B602CE01C4B1B7803F00C033D
:103EC000002B03D03968972003F031FE796919205F
:103ED00003F02DFE0346002B1BD1FC21B86803F034
:103EE000F1FD0346002B0AD0BB6803F50073BB60ED
:103EF0003B68013B3B603B68002BEED100E000BF1C
:103F0000FD21002003F0DEFD0346002B01D101233B
:103F10003B60FFF7F1FD3B68002B14BF012300233A
:103F2000DBB218461837BD4680BD00BF9809002097
:103F300080B400AF174B1B6D164A43F04003136566
:103F4000144B1B6C134A43F080431364114B1B69E1
:103F5000104A43F0400313610E4B1B680D4A43F0B7
:103F6000804313600C4BD3F894300B4A43F4004366
:103F7000C2F89430094B1B6C084A03F02003136409
:103F8000064B5B6D054A43F02003536500BFBD46F9
:103F900080BC70470010094000D00B40003010403A
:103FA00080B483B000AF0346FB7197F90730002B54
:103FB0000BDBFB7903F01F02064997F907305B0919
:103FC000012000FA02F241F8232000BF0C37BD4661
:103FD00080BC704700E100E080B483B000AF0346CE
:103FE000FB7197F90730002B0CDBFB7903F01F0204
:103FF000074997F907305B09012000FA02F26033A4
:1040000041F8232000BF0C37BD4680BC704700BF7D
:1040100000E100E080B483B000AF03463960FB717B
:1040200097F90730002B0ADB3B68DAB20C4997F9A5
:1040300007305201D2B20B4483F800230AE03B68F8
:10404000DAB20849FB7903F00F03043B5201D2B204
:104050000B441A7600BF0C37BD4680BC704700BFCA
:1040600000E100E000ED00E080B582B000AF7860D4
:1040700080222649264803F052FE80222549264800
:1040800003F04DFE254B0222C3F8E020234B002213
:10409000C3F8E420214B4FF400225A641F4B4FF029
:1040A00000525A641D4B4FF400225A601B4B4FF0D4
:1040B00000525A601A4B4FF41242C3F88820184B32
:1040C0004FF40242C3F88C207B681B01154AB2FBF7
:1040D000F3F3C3F30C03144A43F070631361124B00
:1040E0009B69114A43F43013936103211F20FFF7AA
:1040F00091FF1F20FFF770FF1F20FFF751FF62B6EF
:1041000000BF00BF0837BD4680BD00BFA003002030
:1041100070030020200400208803002000100940C4
:1041200000C00B40006CDC0200F0094080B582B09A
:1041300000AF786000BF7B68DBB21946094803F026
:1041400013FE034683F00103DBB2002BF3D1064BD1
:104150009B69054A43F40003936100BF0837BD46DD
:1041600080BD00BF7003002000F0094080B582B020
:1041700000AF0023FB7100BFFB1D1946064803F08A
:1041800028FE034683F00103DBB2002BF4D1FB7958
:1041900018460837BD4680BD8803002080B582B030
:1041A00000AF1F20FFF718FF184B5B6903F40003F3
:1041B000002B11D0FB1D1946154803F00AFE0346DB
:1041C000002B03D0FA79114BDA6105E00F4B9B69A4
:1041D0000E4A23F4000393610C4B5B6903F4001354
:1041E000002B0FD0094BDB69DBB2FB71FB79194661
:1041F000084803F0B9FD034683F00103DBB2002B4E
:1042000000D0FEE700BF0837BD4680BD00F0094082
:10421000700300208803002080B483B000AF034601
:10422000FB7197F90730002B0BDBFB7903F01F02C2
:10423000064997F907305B09012000FA02F241F8BC
:10424000232000BF0C37BD4680BC704700E100E072
:1042500080B483B000AF0346FB7197F90730002BA1
:104260000CDBFB7903F01F02074997F907305B0964
:10427000012000FA02F2603341F8232000BF0C371E
:10428000BD4680BC704700BF00E100E080B483B051
:1042900000AF03463960FB7197F90730002B0ADB4A
:1042A0003B68DAB20C4997F907305201D2B20B449D
:1042B00083F800230AE03B68DAB20849FB7903F08F
:1042C0000F03043B5201D2B20B441A7600BF0C37E5
:1042D000BD4680BC704700BF00E100E000ED00E09B
:1042E00080B582B000AF78604FF40072264927484D
:1042F00003F015FD4FF400722549264803F00FFD29
:10430000254B0222C3F8F020234B0022C3F8F420EF
:10431000214B4FF400125A641F4B4FF080425A64F5
:104320001D4B4FF400125A601B4B4FF080425A60F5
:104330001A4B4FF41342C3F8B020184B4FF403420A
:10434000C3F8B4207B681B01154AB2FBF3F3C3F337
:104350000C03144A43F070631361124B9B69114ABA
:1043600043F43013936103212120FFF78FFF2120B5
:10437000FFF76EFF2120FFF74FFF62B600BF00BFBF
:104380000837BD4680BD00BFD0040020A004002037
:10439000D0060020B80400200010094000D00B40D7
:1043A000006CDC0200100A4080B582B000AF002330
:1043B000FB7100BFFB1D1946064803F00AFD0346CA
:1043C00083F00103DBB2002BF4D1FB7918460837E8
:1043D000BD4680BDB804002080B500AF024803F0A0
:1043E0002BFD0346184680BDB804002080B582B07E
:1043F00000AF2120FFF72CFF184B5B6903F400038B
:10440000002B11D0FB1D1946154803F0E2FC0346B2
:10441000002B03D0FA79114BDA6105E00F4B9B6951
:104420000E4A23F4000393610C4B5B6903F4001301
:10443000002B0FD0094BDB69DBB2FB71FB7919460E
:10444000084803F091FC034683F00103DBB2002B24
:1044500000D0FEE700BF0837BD4680BD00100A400F
:10446000A0040020B804002080B483B000AF03464D
:104470003960FB7197F90730002B0ADB3B68DAB231
:104480000C4997F907305201D2B20B4483F800234C
:104490000AE03B68DAB20849FB7903F00F03043BFA
:1044A0005201D2B20B441A7600BF0C37BD4680BC15
:1044B000704700BF00E100E000ED00E080B582B091
:1044C00000AF78607B68013BB3F1807F01D30123AB
:1044D0000FE00A4A7B68013B536007214FF0FF3031
:1044E000FFF7C2FF054B00229A60044B07221A60B7
:1044F000002318460837BD4680BD00BF10E000E02D
:1045000080B582B000AF4BF68030FFF7D7FF4FF495
:10451000E130FFF7A9FD4FF41650FFF7E1FEFFF77A
:1045200007FDFDF7D7FE2A4800F062F962B600BF2A
:10453000FDF782FF7860FEF751F8FEF74FF97B68D0
:1045400001225A70234800F053F9FDF7EBFCFDF708
:104550005DFD3860FDF7C8FF1F4B1B684EF65F22FC
:10456000934201DDFDF778FE7B681B78062B2AD885
:1045700001A252F823F000BF954500009D450000C0
:10458000A3450000AB450000B1450000B745000061
:10459000BF450000114800F02BF918E0FEF7B6F80F
:1045A00015E07B6801225A7011E07B6801225A7085
:1045B000FEF7ACF90BE07B6801225A7007E07B68DC
:1045C00001225A7003E07B6801229A7000BFB9E7AC
:1045D000288A0000348A0000D00800203C8A0000AD
:1045E00080B400AF044B1B680133034A136000BF63
:1045F000BD4680BC704700BFD008002080B582B0A7
:1046000000AF3B4BD3F88830394A43F00F03C2F870
:104610008830374BD3F88C30354A43F4406343F04D
:104620000303C2F88C30324B324A9A60324BD3F8D3
:104630002438314A43F48073C2F824382E4BD3F81F
:1046400024382D4A23F00103C2F824384FF0807338
:104650001B68B3F1FF3F0FD04FF080731B68274AF0
:10466000934237D1264B1B68B3F1FF3F32D1254B24
:104670001B68B3F1FF3F2DD1234B4FF4C0221A60CA
:10468000214B224A1A60204B214A1A601E4B4FF4DC
:1046900024125A601C4B1D4A1A601B4B4FF4201207
:1046A0005A60194B0F221A601A4B4FF4EE421A62ED
:1046B0000023FB7108E0174AFB791033002142F810
:1046C0002310FB790133FB71FB79012BF3D90E4BDE
:1046D0000E4A1A60104BD3F800330F4A43F0807330
:1046E000C2F8003303F000FC00BF0837BD4680BDB0
:1046F00000ED00E0000000000010094000006359D8
:104700004000000144000001001D09400F000200AC
:104710000F00010000E00840000009400EB430B571
:1047200094B017AB53F8045B04463C22002105A863
:10473000049303F0E8FB0A2308936FF00043079308
:10474000104B4FF0FF320293049B05A8CDE90053B4
:104750006FF00043059400F0B1F8079B0446013B5D
:10476000002B079308DB0022059B1A70204614B02B
:10477000BDE8304003B0704705A9002003F034FDC8
:10478000F4E700BF19040000F0B50C4616461F46BA
:10479000054695B010B931BB012404AD3C2200217F
:1047A00005A803F0B0FB0A2308936FF000430595BA
:1047B000002507930D4B621ECDE9017300962B4631
:1047C00005A800F07BF8079A0446013AAA4207922E
:1047D00004DB059B1D70204615B0F0BD284605A9D9
:1047E00003F002FDF7E74FF0FF34F4E7190400008F
:1047F0000FB473B506AB53F8046B0121324668461B
:104800000193FFF7C1FF041E13DD651C284601F06C
:10481000D5F8009068B132462946019BFFF7B4FFF6
:10482000074B22460099186D03F011FB009803F026
:10483000F8FD204602B0BDE8704004B0704700BFEC
:10484000E008002010B5174A1749002003F05FFD6B
:104850004FF480734FF480620021124803F0DBFBB9
:10486000124A1349012003F052FD4FF480734FF4B4
:10487000806200210D4803F0CEFB0E4B1B68022B1B
:104880000EDD0D4A0A49022003F041FDBDE810404B
:104890004FF480734FF480620021074803F0BBBBE4
:1048A00010BD00BFE00800207C8A00001C09002029
:1048B0007E8A0000448A0000580900202DE9F04F4C
:1048C00006464FF000089DB0CDE90823279DDDF88E
:1048D000989019F8010B18B940461DB0BDE8F08F4B
:1048E000252819D0089A4FEAE8739045099A934110
:1048F00004DB08F10108CDF89890E8E7B368013BC4
:10490000002BB36004DB33685A1C32601870F0E788
:10491000314603F069FCECE7002416E02D2F10D09F
:10492000302F50D04FF0000A0A22A7F13003D9B23D
:10493000092925D802FB0A3A049B13F8017B04934A
:10494000F3E744F00104DDF810904B4613F8017BC7
:104950002B2F04932ED0E1D8202F2ED0232F2FD011
:104960002A2FDFD1049B55F804AB1F78BAF1000F52
:1049700009F10203BCBFCAF1000A84F001040493E8
:104980002AEAEA732E2F059353D1049B1F782A2F0E
:104990001CD04FF0000B0A2201330493A7F130031F
:1049A000D9B2092918D802FB0B3B049B13F8017BF1
:1049B0000493F3E744F00204C5E744F00404C2E7BB
:1049C00044F00804BFE744F40074BCE7049B55F8C6
:1049D00004BB5F7802330493BBF1000F29DB44F082
:1049E00010046C2F0ED1049B1F786C2F15BF049BF5
:1049F0005F780133023307BF44F0600404930493EB
:104A000044F02004712F46D016DC682F4AD06A2F5C
:104A100000F0A5804C2F3ED0572F15DC412F00F021
:104A2000A68200F3A280002F4CD1049B013B04938B
:104A300092E04FF0000BD4E7742F00F092807A2FB1
:104A400000F08F80782F3DDCA7F15803202B39D858
:104A5000DFE813F0900138003800380038003800E3
:104A60003800380038008D023800A2005E028F0046
:104A70008F008F0038005E023800380038003800A0
:104A8000DE001102D80138003800F800380030028A
:104A900038003800B401049B44F0600413F8017B33
:104AA00004930DE0049B1F78682F04D15F7844F4D1
:104AB00080740233F4E7049B44F0800401330493D0
:104AC000782FA9DD059B03F1FF3914F0010306934C
:104AD0001DD114F4007F0CBF4FF0200B4FF0300BB2
:104AE00044464FEAE873B9F1010958D5059B059A88
:104AF000012BB8BF0123BAF1000FC2F10109D8BFE1
:104B00004FF00009013B9844059B023B9944089AE9
:104B10004FEAE8739045099A08F1010A934108DACF
:104B2000B368013B002BB36054DB33685A1C32601E
:104B30001F70069B002B00F0758454464F464FF0C3
:104B4000200B4FEAEA78013F49D5B9F1000FACBF1D
:104B50000AEB09080AF10008DDF81090CBE644F0F2
:104B60004004049B13F8017B9AE727F00203452BCE
:104B7000A8D1073525F00705F5E80223CDE9122372
:104B8000002314F0100F08BF4FF0060B1A46194609
:104B9000184644F480643AE155F8047B92E7089A99
:104BA0009442099A73EB020109DAB16801390029CC
:104BB000B16008DB3168481C306081F800B0013416
:104BC00043F100038FE731465846079303F00CFB8F
:104BD000079BF4E73146384603F006FBA9E7089B3C
:104BE0009C42099B78EB030309DAB368013B002B75
:104BF000B36008DB33685A1C326083F800B00134BC
:104C000048F100089FE73146202003F0EDFAF6E76F
:104C100067062A6805F1040305D54FEAE871C2E981
:104C200000811D4698E7A50602D5C2F80080F8E786
:104C3000E00502D582F80080F3E72106F5D5A2F859
:104C40000080EEE755F804ABAA4BBAF1000F08BF9D
:104C50009A46504603F019FAE706814602D55845B0
:104C6000A8BFD946059BA3EB090714F001030593E0
:104C700010D114F4007F0CBF202230224446BB46E2
:104C80004FEAE873BBF1010B20D527EAE773013F38
:104C90009844FF1A44464FF0000B4FEAE873CB45A7
:104CA00030DB059BB9F1000FA8BFC844002B3FF4CF
:104CB00053AF4446B9464FF0200B4FEAE87AB9F1BA
:104CC00001093ED5002FA8BFB84445E708998C429A
:104CD000099973EB010108DAB16801390029B16063
:104CE00007DB3168481C30600A70013443F100036F
:104CF000C8E7104631460793069203F075FADDE9DE
:104D00000623F2E7089A9442099A73EB02020ADA40
:104D1000B268013A002AB2600BDB3268511C316084
:104D20001AF80B10117001340BF1010B43F1000361
:104D3000B5E731461AF80B00069303F055FA069BC7
:104D4000F1E7089B9C42099B7AEB030309DAB368FD
:104D5000013B002BB36008DB33685A1C326083F8D8
:104D600000B001344AF1000AA9E73146202003F0DF
:104D70003BFAF6E714F040021DBFEA1D22F00702DD
:104D8000154655F8043B1CBF55F8083B526814F013
:104D900080010DD000229BB2574914F0080F5748EC
:104DA00018BF0846E10601D524F4007454492EE0EA
:104DB000E00544BF0A4603F0FF03EDE714F04002AC
:104DC0001DBFEA1D22F00702154655F8043B1CBF23
:104DD00055F8083B526814F080010DD000229BB2B8
:104DE000484914F0080F454818BF0846E10601D5A8
:104DF00024F4007444490AE0E00544BF0A4603F085
:104E0000FF03EDE7002255F8043B3F493D48CDE95B
:104E10000EB04FF0FF30DDF820C0CDE91000BCEB44
:104E2000080CCDF818C0DDF824C04FF000006CEB82
:104E3000E87CCDF81CC00DF1500CE6464FF055094A
:104E4000013020280EF8019BFAD114F4826F04BFC0
:104E500001200E906E2F00F39180472F00F39F806A
:104E60005123A7F14102D34013F0010340F0938195
:104E70004FF0000BCEE014F040021DBFEA1D22F0FF
:104E80000702154655F8043B1CBF55F8083B52680D
:104E900014F0800108D000229BB218481B4914F07E
:104EA000080F18BF08464BE0E00544BF0A4603F070
:104EB000FF03F2E714F040021DBFEA1D22F00702D3
:104EC000154655F8043B1CBF55F8083B526814F0D2
:104ED000800109D000229BB214F0100102D0002101
:104EE00024F40074054892E7E00544BF0A4603F045
:104EF000FF03F1E7808A0000878A0000CE8A000065
:104F00008F8A00008A8A0000A08A00008D8A000033
:104F1000600643BFEA1D22F00702154655F8043B20
:104F200046BF55F8083B5268DA17210610D543F3FF
:104F3000C0321BB2002A11DA5B42B74862EB420270
:104F400014F010013FF463AF002124F400745EE715
:104F5000E00544BF43F3C0125BB2EBE7A10704D402
:104F6000AE48AF4914F0040F9BE7AE48E8E7E3060C
:104F70005CBF4FF00D0B44F01004FAE56F3F4FF0AB
:104F8000000B092F46D8DFE817F0B90042004500B2
:104F90004500450045000301450045004200A7F1DA
:104FA000580011283FF664AF0FF2040E5EF820F0AF
:104FB000E1500000714E0000714E0000714E000083
:104FC000714E0000714E0000714E0000714E0000E5
:104FD000714E000097510000714E0000714E0000AC
:104FE0008D5100009751000097510000975100002B
:104FF000714E00008D51000003F00F00085C1B098A
:1050000043EA02730BF1010B0CF8010B120953EA8E
:105010000200F1D114F480630B9300F0CC800023E4
:105020000E93109B002BC4BF03F1FF330E93119B13
:105030000E9A002B02DD013B13440E930F980E9F36
:1050400003F023F8059B5F44DF1B3B1A40F2012766
:105050000593274004F001030C9300F0D68000274D
:10506000B9464FEAE77A0F9B5A1C0F921B780A93B6
:10507000002B40F0D9800C9BABB914F4007F0CBF1F
:10508000202330233C46DDF814904FEAE77AB9F14B
:10509000010940F1E480059B059A23EAE373013A94
:1050A0001F44D31A05930B9B002B00F0F2804FF0A6
:1050B000300A0A9B9B4500F305810C9B73B13C466B
:1050C0004FF0200BDDF814904FEAE77AB9F10109AF
:1050D00040F18F81059B002BA8BFFF18B8443BE52A
:1050E0004FF0000B93E703F007013031DB0843EA90
:1050F00042730BF1010B0CF8011BD20853EA0201B9
:10510000F1D187E758089F0840EAC27047EA8277E2
:10511000C7194FEA920141EB5201380940EA017088
:105120003F1841EB1111380A40EA01603F1841EB8A
:105130001121380C40EA0140381841EB1141401868
:1051400041F10001C00840EA41709F1D42F1000A90
:10515000A0FB0E92C9080EFB0122B7EB09076AEB10
:1051600002023F0947EA02773F1803F1300307EBD9
:105170008700A3EB40030CF8013B3B460BF1010B0E
:1051800041EB121253EA0201BCD143E74FF0000B8E
:105190004FF00A0EF6E711AB039310AB02930EAB80
:1051A00001930FAB38460093289F234614AA12A9F7
:1051B000B84783462EE70E9B0B9AB3EB0B0348BF11
:1051C00013463AE7069A9742079A79EB020208DA01
:1051D000B268013A002AB26011DB3268511C3160BA
:1051E0001370013749F10009AAEB0702002AE9DA36
:1051F000059B23EAE377AAEB0703059330E73146E3
:10520000202002F0F1FF2023EBE7059BB94603F1D4
:10521000FF3A2023E8E700BF4C8A0000CE8A000056
:105220004A8A0000488A0000069B01379945079B7F
:105230007AEB030309DAB368013B002BB36009DBA7
:1052400033685A1C32600A9A1A7019F101094AF13E
:10525000000A08E731460A9802F0C6FFF5E7069A09
:105260009442079A7AEB020208DAB268013A002AFD
:10527000B26007DB3268511C3160137001344AF1AF
:10528000000A04E7184631460D9302F0ADFF0D9B6E
:10529000F4E73C464FF0300A4FEAE7790E9B013BBA
:1052A000002B0E9370DA3C465A464FEAE77914AB6E
:1052B000002A02F1FF3A00F38180BBF1000FA8BF82
:1052C0005F44FAE60A9B14AAD05CFC173C281DD068
:1052D0003E2845D1B946119B013B002B11931BDBA6
:1052E000069B01379945079B74EB030309DAB36802
:1052F000013B002BB3602EDB33685A1C326083F80D
:1053000000A019F1010944F10004E4E7B946109B3B
:10531000013B002B109303DA0A9B01330A93C8E682
:10532000069B01379945079B74EB030309DAB368C1
:10533000013B002BB36009DB33685A1C326083F8F1
:1053400000A019F1010944F10004E0E731463020E2
:1053500002F04AFFF5E73146302002F045FFD0E782
:10536000069B9F42079B9C4108DAB368013B002BD8
:10537000B36005DB33685A1C326018700137CBE725
:10538000314602F031FFF9E7069B01379C42079B4B
:1053900079EB030309DAB368013B002BB36008DB48
:1053A00033685A1C326083F800A0013449F10009C7
:1053B00074E73146302002F017FFF6E7069A944270
:1053C000079A79EB02020ADAB2681AF80300013A86
:1053D000002AB26008DB3268511C31601070013461
:1053E000524649F1000963E7314602F0FDFE14AB75
:1053F000F5E7069B9C42079B7AEB030309DAB36847
:10540000013B002BB36008DB33685A1C326083F821
:1054100000B001344AF1000A58E63146202002F07B
:10542000E3FEF6E7D046FFF797BB00BF0A4B034405
:1054300093F880309A0605D530388842A8BF4FF0DF
:10544000FF3070471A0701D55738F6E7DB0654BF1F
:105450004FF0FF303738F0E7CF8A00002DE9F047F2
:105460000746894605461446274A294615F8010B82
:10547000D8B1131893F88030DB07F6D4302814D154
:1054800028788A1C00F0DF03582B09D134F0100370
:1054900037D110246878CA1C214615461C4607E0FF
:1054A0000123002CF8D10824F6E7B4B121460024EA
:1054B0000026B046B246FFF7B9FF00280FDA04B164
:1054C0006F1EC9F80070BAF1000F17D022224FF0FA
:1054D000FF300E4B1A60BDE8F0870A21E8E706FBB3
:1054E00001031A0C08FB0128B8F5803F28BF4FF0D4
:1054F000010A012415F8010B9EB2DCE746EA0840D8
:10550000E9E70123C8E700BFCF8A0000D4080020E4
:105510002DE9F74F05468A461F464FF0FF381646DD
:10552000DDF83090614A6B68C346013B002B08F1FF
:1055300001086B6055DB2B68591C29601C78131916
:1055400093F88030D807EED4611C00F0A080B9F148
:10555000000F61D0B20613D52B2C03D02D2C0FD108
:1055600046F400766B680BF10208013B002B6B6080
:105570003DDB2B685A1C2A601C78B9F101094BD01D
:10558000302C49D108F1010300936B6846F4807117
:10559000013B002B09F1FF3B6B602DDB2B68581C96
:1055A00028601C78BBF1000F32D024F02003582B68
:1055B0002ED137F010030FD108F1020300936B686E
:1055C000A9F1020B013B002B6B601CDB2B68591C03
:1055D00029601C7831461027D9460E46DDF8008038
:1055E0001DE0284600F0D4F8304A0446A7E72846D4
:1055F00000F0CEF80446C0E72846019100F0C8F854
:1056000001990446CEE7284600F0C2F80446E1E7D7
:10561000002F08BF0827DFE7002F08BF0A27A3468F
:10562000C14444464FF000080FE06B6808FB0708D0
:10563000013B002B46F4807604F101046B602ADB09
:105640002B685A1C2A6093F800B04C4505D03946A7
:105650005846FFF7EBFE0028E7DA2946584602F0E5
:1056600079FDF3051FD5F70711D4DAF80030B50638
:1056700006F0040203F1040103D5B00548BFC8F1E8
:105680000008CAF800101B6852B1A3F80080204639
:1056900003B0BDE8F08F284600F07AF88346D4E7DF
:1056A000C3F80080F3E76FF00104F0E7CF8A000051
:1056B00030B585B00C4601AB094902AA054602F097
:1056C0008BFC002805DC04B125600020002105B01A
:1056D00030BD14B1019B1D442560DDE90201F6E7F0
:1056E000B18A0000F7B5034607460E46DFF86CC0E6
:1056F0001D4613F8011B21B30CEB010090F880400C
:1057000014F00104F4D12B291DD02D290ABF1D4608
:1057100000244FF40074284601A9FFF79FFE26B12C
:10572000019BAB4208BF3B46336074B10028BDBF4C
:1057300022224FF000400A4B4042B8BF1A6003B02B
:10574000F0BD0C46E7E71D46E5E70028BFBF222273
:10575000034B6FF000401A60F1E700BFCF8A0000F2
:10576000D408002038B5034C00212568FFF7A0FFBE
:10577000256038BDD408002038B5044C0A222568BD
:105780000021FFF7AFFF256038BD00BFD40800201F
:10579000F8B5C36804461A0309D5426B23F4002305
:1057A0004260826BC360826090F82500F8BD9F065E
:1057B00001D502F0F9FC46F2C902E3681A40012A59
:1057C0000FD00022626044F24002134276D023F4EC
:1057D000A04323F0400343F04003E3604FF0FF3069
:1057E000E4E7474A13420CD14FF4807000F04AF9C5
:1057F0004FF48073E361E368206143F40063206049
:10580000E3606268E368561C0DDA43F48053C2F12A
:10581000FF22E36002F57F022368FE3262605A1CB9
:1058200022601878C2E7DD06676904D5D8033ED543
:10583000204602F0A0FDE268E66942F48053D103FD
:10584000E360256923684CD5E16A8B422CBFC5EB28
:105850000305C5EB0105761B33D1204602F08BFD15
:10586000E669E36925699B1B1D44E368324623F022
:105870001003E3602946384602F085FC0028BEBFCD
:10588000E36820F0004043F48043A6EB0006B8BF75
:10589000E360AB19E362E3692363E36836BB23F497
:1058A000805343F04003C4E90056E36096E738466E
:1058B000A16902F0B3FF0028BDDAE36843F080037A
:1058C0008BE7104B1340002BCBD1A16938462944FC
:1058D00002F0A4FF0028E368F0DB43F40033E36048
:1058E000BFE7A2695B1B1A44A261BEE7013E6A1CC6
:1058F00043F4003366602260E360287856E700BF17
:10590000000F01001000020070B5002316460022AF
:1059100004460D4602F06CFE10B10020002170BD5F
:10592000C5F30A539A1940F2FE739A42204629465B
:1059300005DD2222044B002004491A60EFE7002A0B
:10594000EBDD62F31E51EAE7D40800200000F07F8F
:105950002DE9F041D5688046EB020E4614465769A2
:1059600005D5384602F042FF45F01005A061124B04
:105970002B408BB13846A16902F050FF002806DAAF
:10598000E3684FF0FF3043F08003E36011E025F45B
:10599000003525F01005E56032464146384602F0F4
:1059A00056FA20F00043F61AA3693344A361002895
:1059B000E6D1BDE8F08100BF10000200F8B5304F1D
:1059C0003C68002851D10020F8BD2368B3F1805F06
:1059D00039D1D4E9013151B10D68B5F1805F06D1FB
:1059E000DD1C4B682B4463608B68A360F1E79E422B
:1059F00007DC9E4505DB20464FF0005340F80C3B8A
:105A0000E2E7634511D920464FF00055666040F843
:105A10000C5B22F003054219A2604FF080549B1BDF
:105A2000033B4451C2E90131CEE761B9A0EB8300E9
:105A300000F018F90130C6D04FF0005304F10C000B
:105A4000C4E90036C0E72546A468002CBDD10C305F
:105A500000F008F9431CB6D04FF000538460C0E951
:105A6000003655B938600C30AEE7C21C96080025E8
:105A700006F10A0C06F1030EE7E7A860F3E700BFA2
:105A8000DC08002010B5FFF799FF044628B917225B
:105A9000034902F0DCF900F0B9FB204610BD00BF5D
:105AA000B78A0000F8B5044638B905460A4B0B4ED4
:105AB0001F68A74205DC2846F8BDBDE8F84002F0A3
:105AC0002BBD304602F028FD002818BF4FF0FF35EF
:105AD00001343C36EDE700BF448A0000E0080020B6
